{
  "_format": "hh-sol-artifact-1",
  "contractName": "BetOnChain",
  "sourceName": "contracts/BetOnChain.sol",
  "abi": [
    {
      "inputs": [
        {
          "internalType": "address",
          "name": "bocTokenAddress",
          "type": "address"
        }
      ],
      "stateMutability": "nonpayable",
      "type": "constructor"
    },
    {
      "inputs": [],
      "name": "BetOnChain__RequirementsNotMet",
      "type": "error"
    },
    {
      "inputs": [],
      "name": "BetOnChain__ThisAchievementDoesNotExist",
      "type": "error"
    },
    {
      "anonymous": false,
      "inputs": [
        {
          "indexed": true,
          "internalType": "address",
          "name": "previousOwner",
          "type": "address"
        },
        {
          "indexed": true,
          "internalType": "address",
          "name": "newOwner",
          "type": "address"
        }
      ],
      "name": "OwnershipTransferred",
      "type": "event"
    },
    {
      "inputs": [
        {
          "internalType": "address",
          "name": "",
          "type": "address"
        },
        {
          "internalType": "uint256",
          "name": "",
          "type": "uint256"
        }
      ],
      "name": "addressToBetToPlayer",
      "outputs": [
        {
          "internalType": "address",
          "name": "player",
          "type": "address"
        },
        {
          "internalType": "uint256",
          "name": "betAmount",
          "type": "uint256"
        },
        {
          "internalType": "uint256",
          "name": "betFor",
          "type": "uint256"
        },
        {
          "internalType": "uint256",
          "name": "nftId",
          "type": "uint256"
        }
      ],
      "stateMutability": "view",
      "type": "function"
    },
    {
      "inputs": [
        {
          "internalType": "uint256",
          "name": "betAmount",
          "type": "uint256"
        },
        {
          "internalType": "uint256",
          "name": "betFor",
          "type": "uint256"
        },
        {
          "internalType": "uint256",
          "name": "betId",
          "type": "uint256"
        }
      ],
      "name": "bet",
      "outputs": [],
      "stateMutability": "nonpayable",
      "type": "function"
    },
    {
      "inputs": [
        {
          "internalType": "uint256",
          "name": "",
          "type": "uint256"
        }
      ],
      "name": "bets",
      "outputs": [
        {
          "internalType": "uint256",
          "name": "betFor1",
          "type": "uint256"
        },
        {
          "internalType": "uint256",
          "name": "betFor2",
          "type": "uint256"
        },
        {
          "internalType": "uint256",
          "name": "oddsfor1",
          "type": "uint256"
        },
        {
          "internalType": "uint256",
          "name": "oddsfor2",
          "type": "uint256"
        },
        {
          "internalType": "bool",
          "name": "betsOpen",
          "type": "bool"
        },
        {
          "internalType": "uint256",
          "name": "totalBetAmount",
          "type": "uint256"
        }
      ],
      "stateMutability": "view",
      "type": "function"
    },
    {
      "inputs": [],
      "name": "bocNFT",
      "outputs": [
        {
          "internalType": "contract BocNFT",
          "name": "",
          "type": "address"
        }
      ],
      "stateMutability": "view",
      "type": "function"
    },
    {
      "inputs": [],
      "name": "bocToken",
      "outputs": [
        {
          "internalType": "contract BocToken",
          "name": "",
          "type": "address"
        }
      ],
      "stateMutability": "view",
      "type": "function"
    },
    {
      "inputs": [
        {
          "internalType": "uint256",
          "name": "betId",
          "type": "uint256"
        }
      ],
      "name": "closeBet",
      "outputs": [],
      "stateMutability": "nonpayable",
      "type": "function"
    },
    {
      "inputs": [
        {
          "internalType": "uint256",
          "name": "betId",
          "type": "uint256"
        },
        {
          "internalType": "uint256",
          "name": "betFor1",
          "type": "uint256"
        },
        {
          "internalType": "uint256",
          "name": "betFor2",
          "type": "uint256"
        },
        {
          "internalType": "uint256",
          "name": "oddsfor1",
          "type": "uint256"
        },
        {
          "internalType": "uint256",
          "name": "oddsfor2",
          "type": "uint256"
        }
      ],
      "name": "createBet",
      "outputs": [],
      "stateMutability": "nonpayable",
      "type": "function"
    },
    {
      "inputs": [],
      "name": "getAchievementRequirement",
      "outputs": [
        {
          "components": [
            {
              "internalType": "uint256",
              "name": "beginnerNumberOfBets",
              "type": "uint256"
            },
            {
              "internalType": "uint256",
              "name": "warriorNumberOfBets",
              "type": "uint256"
            },
            {
              "internalType": "uint256",
              "name": "expertNumberOfBets",
              "type": "uint256"
            }
          ],
          "internalType": "struct BetOnChain.AchievementRequirement",
          "name": "",
          "type": "tuple"
        }
      ],
      "stateMutability": "view",
      "type": "function"
    },
    {
      "inputs": [],
      "name": "getAchievementURI",
      "outputs": [
        {
          "components": [
            {
              "internalType": "string",
              "name": "beginner",
              "type": "string"
            },
            {
              "internalType": "string",
              "name": "warrior",
              "type": "string"
            },
            {
              "internalType": "string",
              "name": "expert",
              "type": "string"
            }
          ],
          "internalType": "struct BetOnChain.AchievementURI",
          "name": "",
          "type": "tuple"
        }
      ],
      "stateMutability": "view",
      "type": "function"
    },
    {
      "inputs": [],
      "name": "getBetPositionURI",
      "outputs": [
        {
          "internalType": "string",
          "name": "",
          "type": "string"
        }
      ],
      "stateMutability": "view",
      "type": "function"
    },
    {
      "inputs": [
        {
          "internalType": "uint256",
          "name": "achievementLevelToMint",
          "type": "uint256"
        }
      ],
      "name": "mintAchievementNft",
      "outputs": [],
      "stateMutability": "nonpayable",
      "type": "function"
    },
    {
      "inputs": [
        {
          "internalType": "address",
          "name": "",
          "type": "address"
        }
      ],
      "name": "numberOfBets",
      "outputs": [
        {
          "internalType": "uint256",
          "name": "",
          "type": "uint256"
        }
      ],
      "stateMutability": "view",
      "type": "function"
    },
    {
      "inputs": [
        {
          "internalType": "uint256",
          "name": "betId",
          "type": "uint256"
        }
      ],
      "name": "openBet",
      "outputs": [],
      "stateMutability": "nonpayable",
      "type": "function"
    },
    {
      "inputs": [],
      "name": "owner",
      "outputs": [
        {
          "internalType": "address",
          "name": "",
          "type": "address"
        }
      ],
      "stateMutability": "view",
      "type": "function"
    },
    {
      "inputs": [
        {
          "internalType": "uint256",
          "name": "",
          "type": "uint256"
        }
      ],
      "name": "playerBets",
      "outputs": [
        {
          "internalType": "address",
          "name": "player",
          "type": "address"
        },
        {
          "internalType": "uint256",
          "name": "betAmount",
          "type": "uint256"
        },
        {
          "internalType": "uint256",
          "name": "betFor",
          "type": "uint256"
        },
        {
          "internalType": "uint256",
          "name": "nftId",
          "type": "uint256"
        }
      ],
      "stateMutability": "view",
      "type": "function"
    },
    {
      "inputs": [],
      "name": "renounceOwnership",
      "outputs": [],
      "stateMutability": "nonpayable",
      "type": "function"
    },
    {
      "inputs": [
        {
          "internalType": "uint256",
          "name": "beginnerNumberOfBets",
          "type": "uint256"
        },
        {
          "internalType": "uint256",
          "name": "warriorNumberOfBets",
          "type": "uint256"
        },
        {
          "internalType": "uint256",
          "name": "expertNumberOfBets",
          "type": "uint256"
        }
      ],
      "name": "setAchievementRequirement",
      "outputs": [],
      "stateMutability": "nonpayable",
      "type": "function"
    },
    {
      "inputs": [
        {
          "internalType": "string",
          "name": "beginnerURI",
          "type": "string"
        },
        {
          "internalType": "string",
          "name": "warriorURI",
          "type": "string"
        },
        {
          "internalType": "string",
          "name": "expertURI",
          "type": "string"
        }
      ],
      "name": "setAchievementURI",
      "outputs": [],
      "stateMutability": "nonpayable",
      "type": "function"
    },
    {
      "inputs": [
        {
          "internalType": "string",
          "name": "_betPositionURI",
          "type": "string"
        }
      ],
      "name": "setBetPositionURI",
      "outputs": [],
      "stateMutability": "nonpayable",
      "type": "function"
    },
    {
      "inputs": [
        {
          "internalType": "address",
          "name": "newOwner",
          "type": "address"
        }
      ],
      "name": "transferOwnership",
      "outputs": [],
      "stateMutability": "nonpayable",
      "type": "function"
    },
    {
      "inputs": [
        {
          "internalType": "uint256",
          "name": "betId",
          "type": "uint256"
        }
      ],
      "name": "withdrawPrize",
      "outputs": [],
      "stateMutability": "nonpayable",
      "type": "function"
    }
  ],
  "bytecode": "0x60806040523480156200001157600080fd5b50604051620068c9380380620068c983398181016040528101906200003791906200024f565b620000576200004b6200010b60201b60201c565b6200011360201b60201c565b6040516200006590620001d7565b604051809103906000f08015801562000082573d6000803e3d6000fd5b50600960006101000a81548173ffffffffffffffffffffffffffffffffffffffff021916908373ffffffffffffffffffffffffffffffffffffffff16021790555080600a60006101000a81548173ffffffffffffffffffffffffffffffffffffffff021916908373ffffffffffffffffffffffffffffffffffffffff1602179055505062000281565b600033905090565b60008060009054906101000a900473ffffffffffffffffffffffffffffffffffffffff169050816000806101000a81548173ffffffffffffffffffffffffffffffffffffffff021916908373ffffffffffffffffffffffffffffffffffffffff1602179055508173ffffffffffffffffffffffffffffffffffffffff168173ffffffffffffffffffffffffffffffffffffffff167f8be0079c531659141344cd1fd0a4f28419497f9722a3daafe3b4186f6b6457e060405160405180910390a35050565b613f33806200299683390190565b600080fd5b600073ffffffffffffffffffffffffffffffffffffffff82169050919050565b60006200021782620001ea565b9050919050565b62000229816200020a565b81146200023557600080fd5b50565b60008151905062000249816200021e565b92915050565b600060208284031215620002685762000267620001e5565b5b6000620002788482850162000238565b91505092915050565b61270580620002916000396000f3fe608060405234801561001057600080fd5b50600436106101375760003560e01c80639d8ac2cd116100b8578063c2c90f1d1161007c578063c2c90f1d14610301578063c7387ad21461031f578063dead7a141461033d578063ea62596c14610370578063f074281f1461038e578063f2fde38b146103c157610137565b80639d8ac2cd14610261578063a24beff71461027d578063a253c3c914610299578063bfc54822146102c9578063c20eec7b146102e557610137565b80635849ddb2116100ff5780635849ddb2146101e55780636c2ebeef146102015780636de0b3751461021d578063715018a6146102395780638da5cb5b1461024357610137565b806310dc74c91461013c57806322af00fa1461015a5780632a2869581461018f57806333b5c99f146101ab578063517bca55146101c9575b600080fd5b6101446103dd565b60405161015191906117d6565b60405180910390f35b610174600480360381019061016f9190611842565b61046f565b60405161018696959493929190611899565b60405180910390f35b6101a960048036038101906101a49190611a2f565b6104b8565b005b6101b36104fd565b6040516101c09190611b7e565b60405180910390f35b6101e360048036038101906101de9190611ba0565b6106cd565b005b6101ff60048036038101906101fa9190611be9565b6106e8565b005b61021b60048036038101906102169190611842565b6107c6565b005b61023760048036038101906102329190611842565b610b51565b005b610241610bf1565b005b61024b610c05565b6040516102589190611ca5565b60405180910390f35b61027b60048036038101906102769190611cc0565b610c2e565b005b61029760048036038101906102929190611842565b610c59565b005b6102b360048036038101906102ae9190611d3f565b610cf8565b6040516102c09190611d6c565b60405180910390f35b6102e360048036038101906102de9190611cc0565b610d10565b005b6102ff60048036038101906102fa9190611842565b6110c7565b005b610309611364565b6040516103169190611dd8565b60405180910390f35b61032761139c565b6040516103349190611e52565b60405180910390f35b61035760048036038101906103529190611842565b6113c2565b6040516103679493929190611e6d565b60405180910390f35b610378611422565b6040516103859190611ed3565b60405180910390f35b6103a860048036038101906103a39190611eee565b611448565b6040516103b89493929190611e6d565b60405180910390f35b6103db60048036038101906103d69190611d3f565b6114a5565b005b6060600180546103ec90611f5d565b80601f016020809104026020016040519081016040528092919081815260200182805461041890611f5d565b80156104655780601f1061043a57610100808354040283529160200191610465565b820191906000526020600020905b81548152906001019060200180831161044857829003601f168201915b5050505050905090565b600c6020528060005260406000206000915090508060000154908060010154908060020154908060030154908060040160009054906101000a900460ff16908060050154905086565b6104c0611528565b82600260000190816104d29190612130565b5081600260010190816104e59190612130565b50806002800190816104f79190612130565b50505050565b610505611704565b600260405180606001604052908160008201805461052290611f5d565b80601f016020809104026020016040519081016040528092919081815260200182805461054e90611f5d565b801561059b5780601f106105705761010080835404028352916020019161059b565b820191906000526020600020905b81548152906001019060200180831161057e57829003601f168201915b505050505081526020016001820180546105b490611f5d565b80601f01602080910402602001604051908101604052809291908181526020018280546105e090611f5d565b801561062d5780601f106106025761010080835404028352916020019161062d565b820191906000526020600020905b81548152906001019060200180831161061057829003601f168201915b5050505050815260200160028201805461064690611f5d565b80601f016020809104026020016040519081016040528092919081815260200182805461067290611f5d565b80156106bf5780601f10610694576101008083540402835291602001916106bf565b820191906000526020600020905b8154815290600101906020018083116106a257829003601f168201915b505050505081525050905090565b6106d5611528565b80600190816106e49190612130565b5050565b6106f0611528565b60006040518060c001604052808681526020018581526020018481526020018381526020016000151581526020016000815250905082600e60008781526020019081526020016000208190555081600e60008681526020019081526020016000208190555080600c60008881526020019081526020016000206000820151816000015560208201518160010155604082015181600201556060820151816003015560808201518160040160006101000a81548160ff02191690831515021790555060a08201518160050155905050505050505050565b600081036108e057600560010154600b60003373ffffffffffffffffffffffffffffffffffffffff1673ffffffffffffffffffffffffffffffffffffffff16815260200190815260200160002054101561084c576040517f0c2f58c200000000000000000000000000000000000000000000000000000000815260040160405180910390fd5b600960009054906101000a900473ffffffffffffffffffffffffffffffffffffffff1673ffffffffffffffffffffffffffffffffffffffff1663d204c45e3360026000016040518363ffffffff1660e01b81526004016108ad929190612286565b600060405180830381600087803b1580156108c757600080fd5b505af11580156108db573d6000803e3d6000fd5b505050505b600181036109fa57600560010154600b60003373ffffffffffffffffffffffffffffffffffffffff1673ffffffffffffffffffffffffffffffffffffffff168152602001908152602001600020541015610966576040517f0c2f58c200000000000000000000000000000000000000000000000000000000815260040160405180910390fd5b600960009054906101000a900473ffffffffffffffffffffffffffffffffffffffff1673ffffffffffffffffffffffffffffffffffffffff1663d204c45e3360026001016040518363ffffffff1660e01b81526004016109c7929190612286565b600060405180830381600087803b1580156109e157600080fd5b505af11580156109f5573d6000803e3d6000fd5b505050505b60028103610b1357600560020154600b60003373ffffffffffffffffffffffffffffffffffffffff1673ffffffffffffffffffffffffffffffffffffffff168152602001908152602001600020541015610a80576040517f0c2f58c200000000000000000000000000000000000000000000000000000000815260040160405180910390fd5b600960009054906101000a900473ffffffffffffffffffffffffffffffffffffffff1673ffffffffffffffffffffffffffffffffffffffff1663d204c45e33600280016040518363ffffffff1660e01b8152600401610ae0929190612286565b600060405180830381600087803b158015610afa57600080fd5b505af1158015610b0e573d6000803e3d6000fd5b505050505b6002811115610b4e576040517f1139eba300000000000000000000000000000000000000000000000000000000815260040160405180910390fd5b50565b610b59611528565b80600c600082815260200190815260200160002060040160009054906101000a900460ff1615610bbe576040517f08c379a0000000000000000000000000000000000000000000000000000000008152600401610bb590612302565b60405180910390fd5b6001600c600084815260200190815260200160002060040160006101000a81548160ff0219169083151502179055505050565b610bf9611528565b610c0360006115a6565b565b60008060009054906101000a900473ffffffffffffffffffffffffffffffffffffffff16905090565b610c36611528565b826005600001819055508160056001018190555080600560020181905550505050565b610c61611528565b80600c600082815260200190815260200160002060040160009054906101000a900460ff16610cc5576040517f08c379a0000000000000000000000000000000000000000000000000000000008152600401610cbc9061236e565b60405180910390fd5b6000600c600084815260200190815260200160002060040160006101000a81548160ff0219169083151502179055505050565b600b6020528060005260406000206000915090505481565b80600c600082815260200190815260200160002060040160009054906101000a900460ff16610d74576040517f08c379a0000000000000000000000000000000000000000000000000000000008152600401610d6b9061236e565b60405180910390fd5b600a60009054906101000a900473ffffffffffffffffffffffffffffffffffffffff1673ffffffffffffffffffffffffffffffffffffffff166323b872dd3330876040518463ffffffff1660e01b8152600401610dd39392919061238e565b6020604051808303816000875af1158015610df2573d6000803e3d6000fd5b505050506040513d601f19601f82011682018060405250810190610e1691906123f1565b506000600960009054906101000a900473ffffffffffffffffffffffffffffffffffffffff1673ffffffffffffffffffffffffffffffffffffffff16636c1438626040518163ffffffff1660e01b8152600401602060405180830381865afa158015610e86573d6000803e3d6000fd5b505050506040513d601f19601f82011682018060405250810190610eaa9190612433565b9050600060405180608001604052803373ffffffffffffffffffffffffffffffffffffffff168152602001878152602001868152602001838152509050600881908060018154018082558091505060019003906000526020600020906004020160009091909190915060008201518160000160006101000a81548173ffffffffffffffffffffffffffffffffffffffff021916908373ffffffffffffffffffffffffffffffffffffffff160217905550602082015181600101556040820151816002015560608201518160030155505085600c60008681526020019081526020016000206005016000828254610fa0919061248f565b9250508190555080600d60003373ffffffffffffffffffffffffffffffffffffffff1673ffffffffffffffffffffffffffffffffffffffff168152602001908152602001600020600086815260200190815260200160002060008201518160000160006101000a81548173ffffffffffffffffffffffffffffffffffffffff021916908373ffffffffffffffffffffffffffffffffffffffff16021790555060208201518160010155604082015181600201556060820151816003015590505061106861166a565b6001600b60003373ffffffffffffffffffffffffffffffffffffffff1673ffffffffffffffffffffffffffffffffffffffff16815260200190815260200160002060008282546110b8919061248f565b92505081905550505050505050565b80600c600082815260200190815260200160002060040160009054906101000a900460ff161561112c576040517f08c379a000000000000000000000000000000000000000000000000000000000815260040161112390612302565b60405180910390fd5b6000600d60003373ffffffffffffffffffffffffffffffffffffffff1673ffffffffffffffffffffffffffffffffffffffff168152602001908152602001600020600084815260200190815260200160002060010154116111c2576040517f08c379a00000000000000000000000000000000000000000000000000000000081526004016111b99061250f565b60405180910390fd5b6000670de0b6b3a764000080600e6000600d60003373ffffffffffffffffffffffffffffffffffffffff1673ffffffffffffffffffffffffffffffffffffffff16815260200190815260200160002060008881526020019081526020016000206002015481526020019081526020016000205461123f919061252f565b670de0b6b3a7640000600d60003373ffffffffffffffffffffffffffffffffffffffff1673ffffffffffffffffffffffffffffffffffffffff1681526020019081526020016000206000878152602001908152602001600020600101546112a6919061252f565b6112b0919061252f565b6112ba91906125a0565b9050600a60009054906101000a900473ffffffffffffffffffffffffffffffffffffffff1673ffffffffffffffffffffffffffffffffffffffff166323b872dd3033846040518463ffffffff1660e01b815260040161131b9392919061238e565b6020604051808303816000875af115801561133a573d6000803e3d6000fd5b505050506040513d601f19601f8201168201806040525081019061135e91906123f1565b50505050565b61136c611725565b60056040518060600160405290816000820154815260200160018201548152602001600282015481525050905090565b600a60009054906101000a900473ffffffffffffffffffffffffffffffffffffffff1681565b600881815481106113d257600080fd5b90600052602060002090600402016000915090508060000160009054906101000a900473ffffffffffffffffffffffffffffffffffffffff16908060010154908060020154908060030154905084565b600960009054906101000a900473ffffffffffffffffffffffffffffffffffffffff1681565b600d602052816000526040600020602052806000526040600020600091509150508060000160009054906101000a900473ffffffffffffffffffffffffffffffffffffffff16908060010154908060020154908060030154905084565b6114ad611528565b600073ffffffffffffffffffffffffffffffffffffffff168173ffffffffffffffffffffffffffffffffffffffff160361151c576040517f08c379a000000000000000000000000000000000000000000000000000000000815260040161151390612643565b60405180910390fd5b611525816115a6565b50565b6115306116fc565b73ffffffffffffffffffffffffffffffffffffffff1661154e610c05565b73ffffffffffffffffffffffffffffffffffffffff16146115a4576040517f08c379a000000000000000000000000000000000000000000000000000000000815260040161159b906126af565b60405180910390fd5b565b60008060009054906101000a900473ffffffffffffffffffffffffffffffffffffffff169050816000806101000a81548173ffffffffffffffffffffffffffffffffffffffff021916908373ffffffffffffffffffffffffffffffffffffffff1602179055508173ffffffffffffffffffffffffffffffffffffffff168173ffffffffffffffffffffffffffffffffffffffff167f8be0079c531659141344cd1fd0a4f28419497f9722a3daafe3b4186f6b6457e060405160405180910390a35050565b600960009054906101000a900473ffffffffffffffffffffffffffffffffffffffff1673ffffffffffffffffffffffffffffffffffffffff1663d204c45e3360016040518363ffffffff1660e01b81526004016116c8929190612286565b600060405180830381600087803b1580156116e257600080fd5b505af11580156116f6573d6000803e3d6000fd5b50505050565b600033905090565b60405180606001604052806060815260200160608152602001606081525090565b60405180606001604052806000815260200160008152602001600081525090565b600081519050919050565b600082825260208201905092915050565b60005b83811015611780578082015181840152602081019050611765565b60008484015250505050565b6000601f19601f8301169050919050565b60006117a882611746565b6117b28185611751565b93506117c2818560208601611762565b6117cb8161178c565b840191505092915050565b600060208201905081810360008301526117f0818461179d565b905092915050565b6000604051905090565b600080fd5b600080fd5b6000819050919050565b61181f8161180c565b811461182a57600080fd5b50565b60008135905061183c81611816565b92915050565b60006020828403121561185857611857611802565b5b60006118668482850161182d565b91505092915050565b6118788161180c565b82525050565b60008115159050919050565b6118938161187e565b82525050565b600060c0820190506118ae600083018961186f565b6118bb602083018861186f565b6118c8604083018761186f565b6118d5606083018661186f565b6118e2608083018561188a565b6118ef60a083018461186f565b979650505050505050565b600080fd5b600080fd5b7f4e487b7100000000000000000000000000000000000000000000000000000000600052604160045260246000fd5b61193c8261178c565b810181811067ffffffffffffffff8211171561195b5761195a611904565b5b80604052505050565b600061196e6117f8565b905061197a8282611933565b919050565b600067ffffffffffffffff82111561199a57611999611904565b5b6119a38261178c565b9050602081019050919050565b82818337600083830152505050565b60006119d26119cd8461197f565b611964565b9050828152602081018484840111156119ee576119ed6118ff565b5b6119f98482856119b0565b509392505050565b600082601f830112611a1657611a156118fa565b5b8135611a268482602086016119bf565b91505092915050565b600080600060608486031215611a4857611a47611802565b5b600084013567ffffffffffffffff811115611a6657611a65611807565b5b611a7286828701611a01565b935050602084013567ffffffffffffffff811115611a9357611a92611807565b5b611a9f86828701611a01565b925050604084013567ffffffffffffffff811115611ac057611abf611807565b5b611acc86828701611a01565b9150509250925092565b600082825260208201905092915050565b6000611af282611746565b611afc8185611ad6565b9350611b0c818560208601611762565b611b158161178c565b840191505092915050565b60006060830160008301518482036000860152611b3d8282611ae7565b91505060208301518482036020860152611b578282611ae7565b91505060408301518482036040860152611b718282611ae7565b9150508091505092915050565b60006020820190508181036000830152611b988184611b20565b905092915050565b600060208284031215611bb657611bb5611802565b5b600082013567ffffffffffffffff811115611bd457611bd3611807565b5b611be084828501611a01565b91505092915050565b600080600080600060a08688031215611c0557611c04611802565b5b6000611c138882890161182d565b9550506020611c248882890161182d565b9450506040611c358882890161182d565b9350506060611c468882890161182d565b9250506080611c578882890161182d565b9150509295509295909350565b600073ffffffffffffffffffffffffffffffffffffffff82169050919050565b6000611c8f82611c64565b9050919050565b611c9f81611c84565b82525050565b6000602082019050611cba6000830184611c96565b92915050565b600080600060608486031215611cd957611cd8611802565b5b6000611ce78682870161182d565b9350506020611cf88682870161182d565b9250506040611d098682870161182d565b9150509250925092565b611d1c81611c84565b8114611d2757600080fd5b50565b600081359050611d3981611d13565b92915050565b600060208284031215611d5557611d54611802565b5b6000611d6384828501611d2a565b91505092915050565b6000602082019050611d81600083018461186f565b92915050565b611d908161180c565b82525050565b606082016000820151611dac6000850182611d87565b506020820151611dbf6020850182611d87565b506040820151611dd26040850182611d87565b50505050565b6000606082019050611ded6000830184611d96565b92915050565b6000819050919050565b6000611e18611e13611e0e84611c64565b611df3565b611c64565b9050919050565b6000611e2a82611dfd565b9050919050565b6000611e3c82611e1f565b9050919050565b611e4c81611e31565b82525050565b6000602082019050611e676000830184611e43565b92915050565b6000608082019050611e826000830187611c96565b611e8f602083018661186f565b611e9c604083018561186f565b611ea9606083018461186f565b95945050505050565b6000611ebd82611e1f565b9050919050565b611ecd81611eb2565b82525050565b6000602082019050611ee86000830184611ec4565b92915050565b60008060408385031215611f0557611f04611802565b5b6000611f1385828601611d2a565b9250506020611f248582860161182d565b9150509250929050565b7f4e487b7100000000000000000000000000000000000000000000000000000000600052602260045260246000fd5b60006002820490506001821680611f7557607f821691505b602082108103611f8857611f87611f2e565b5b50919050565b60008190508160005260206000209050919050565b60006020601f8301049050919050565b600082821b905092915050565b600060088302611ff07fffffffffffffffffffffffffffffffffffffffffffffffffffffffffffffffff82611fb3565b611ffa8683611fb3565b95508019841693508086168417925050509392505050565b600061202d6120286120238461180c565b611df3565b61180c565b9050919050565b6000819050919050565b61204783612012565b61205b61205382612034565b848454611fc0565b825550505050565b600090565b612070612063565b61207b81848461203e565b505050565b5b8181101561209f57612094600082612068565b600181019050612081565b5050565b601f8211156120e4576120b581611f8e565b6120be84611fa3565b810160208510156120cd578190505b6120e16120d985611fa3565b830182612080565b50505b505050565b600082821c905092915050565b6000612107600019846008026120e9565b1980831691505092915050565b600061212083836120f6565b9150826002028217905092915050565b61213982611746565b67ffffffffffffffff81111561215257612151611904565b5b61215c8254611f5d565b6121678282856120a3565b600060209050601f83116001811461219a5760008415612188578287015190505b6121928582612114565b8655506121fa565b601f1984166121a886611f8e565b60005b828110156121d0578489015182556001820191506020850194506020810190506121ab565b868310156121ed57848901516121e9601f8916826120f6565b8355505b6001600288020188555050505b505050505050565b6000815461220f81611f5d565b6122198186611751565b94506001821660008114612234576001811461224a5761227d565b60ff19831686528115156020028601935061227d565b61225385611f8e565b60005b8381101561227557815481890152600182019150602081019050612256565b808801955050505b50505092915050565b600060408201905061229b6000830185611c96565b81810360208301526122ad8184612202565b90509392505050565b7f426574206973206f70656e000000000000000000000000000000000000000000600082015250565b60006122ec600b83611751565b91506122f7826122b6565b602082019050919050565b6000602082019050818103600083015261231b816122df565b9050919050565b7f42657420697320636c6f73656400000000000000000000000000000000000000600082015250565b6000612358600d83611751565b915061236382612322565b602082019050919050565b600060208201905081810360008301526123878161234b565b9050919050565b60006060820190506123a36000830186611c96565b6123b06020830185611c96565b6123bd604083018461186f565b949350505050565b6123ce8161187e565b81146123d957600080fd5b50565b6000815190506123eb816123c5565b92915050565b60006020828403121561240757612406611802565b5b6000612415848285016123dc565b91505092915050565b60008151905061242d81611816565b92915050565b60006020828403121561244957612448611802565b5b60006124578482850161241e565b91505092915050565b7f4e487b7100000000000000000000000000000000000000000000000000000000600052601160045260246000fd5b600061249a8261180c565b91506124a58361180c565b92508282019050808211156124bd576124bc612460565b5b92915050565b7f5573657220686173206e6f74206d616465206120626574000000000000000000600082015250565b60006124f9601783611751565b9150612504826124c3565b602082019050919050565b60006020820190508181036000830152612528816124ec565b9050919050565b600061253a8261180c565b91506125458361180c565b92508282026125538161180c565b9150828204841483151761256a57612569612460565b5b5092915050565b7f4e487b7100000000000000000000000000000000000000000000000000000000600052601260045260246000fd5b60006125ab8261180c565b91506125b68361180c565b9250826125c6576125c5612571565b5b828204905092915050565b7f4f776e61626c653a206e6577206f776e657220697320746865207a65726f206160008201527f6464726573730000000000000000000000000000000000000000000000000000602082015250565b600061262d602683611751565b9150612638826125d1565b604082019050919050565b6000602082019050818103600083015261265c81612620565b9050919050565b7f4f776e61626c653a2063616c6c6572206973206e6f7420746865206f776e6572600082015250565b6000612699602083611751565b91506126a482612663565b602082019050919050565b600060208201905081810360008301526126c88161268c565b905091905056fea264697066735822122013208c446465c25c1cece4720e0a9c8c8b4e74aa61cd592778367bc38c4da5ff64736f6c6343000812003360806040523480156200001157600080fd5b506040518060400160405280600e81526020017f4265744f6e436861696e204e46540000000000000000000000000000000000008152506040518060400160405280600781526020017f424f43204e46540000000000000000000000000000000000000000000000000081525081600090816200008f919062000412565b508060019081620000a1919062000412565b505050620000c4620000b8620000ca60201b60201c565b620000d260201b60201c565b620004f9565b600033905090565b6000600b60009054906101000a900473ffffffffffffffffffffffffffffffffffffffff16905081600b60006101000a81548173ffffffffffffffffffffffffffffffffffffffff021916908373ffffffffffffffffffffffffffffffffffffffff1602179055508173ffffffffffffffffffffffffffffffffffffffff168173ffffffffffffffffffffffffffffffffffffffff167f8be0079c531659141344cd1fd0a4f28419497f9722a3daafe3b4186f6b6457e060405160405180910390a35050565b600081519050919050565b7f4e487b7100000000000000000000000000000000000000000000000000000000600052604160045260246000fd5b7f4e487b7100000000000000000000000000000000000000000000000000000000600052602260045260246000fd5b600060028204905060018216806200021a57607f821691505b60208210810362000230576200022f620001d2565b5b50919050565b60008190508160005260206000209050919050565b60006020601f8301049050919050565b600082821b905092915050565b6000600883026200029a7fffffffffffffffffffffffffffffffffffffffffffffffffffffffffffffffff826200025b565b620002a686836200025b565b95508019841693508086168417925050509392505050565b6000819050919050565b6000819050919050565b6000620002f3620002ed620002e784620002be565b620002c8565b620002be565b9050919050565b6000819050919050565b6200030f83620002d2565b620003276200031e82620002fa565b84845462000268565b825550505050565b600090565b6200033e6200032f565b6200034b81848462000304565b505050565b5b8181101562000373576200036760008262000334565b60018101905062000351565b5050565b601f821115620003c2576200038c8162000236565b62000397846200024b565b81016020851015620003a7578190505b620003bf620003b6856200024b565b83018262000350565b50505b505050565b600082821c905092915050565b6000620003e760001984600802620003c7565b1980831691505092915050565b6000620004028383620003d4565b9150826002028217905092915050565b6200041d8262000198565b67ffffffffffffffff811115620004395762000438620001a3565b5b62000445825462000201565b6200045282828562000377565b600060209050601f8311600181146200048a576000841562000475578287015190505b620004818582620003f4565b865550620004f1565b601f1984166200049a8662000236565b60005b82811015620004c4578489015182556001820191506020850194506020810190506200049d565b86831015620004e45784890151620004e0601f891682620003d4565b8355505b6001600288020188555050505b505050505050565b613a2a80620005096000396000f3fe608060405234801561001057600080fd5b50600436106101425760003560e01c80636c143862116100b8578063a22cb4651161007c578063a22cb46514610377578063b88d4fde14610393578063c87b56dd146103af578063d204c45e146103df578063e985e9c5146103fb578063f2fde38b1461042b57610142565b80636c143862146102e357806370a0823114610301578063715018a6146103315780638da5cb5b1461033b57806395d89b411461035957610142565b806323b872dd1161010a57806323b872dd146101ff5780632f745c591461021b57806342842e0e1461024b57806342966c68146102675780634f6ccce7146102835780636352211e146102b357610142565b806301ffc9a71461014757806306fdde0314610177578063081812fc14610195578063095ea7b3146101c557806318160ddd146101e1575b600080fd5b610161600480360381019061015c91906125a4565b610447565b60405161016e91906125ec565b60405180910390f35b61017f610459565b60405161018c9190612697565b60405180910390f35b6101af60048036038101906101aa91906126ef565b6104eb565b6040516101bc919061275d565b60405180910390f35b6101df60048036038101906101da91906127a4565b610531565b005b6101e9610648565b6040516101f691906127f3565b60405180910390f35b6102196004803603810190610214919061280e565b610655565b005b610235600480360381019061023091906127a4565b6106b5565b60405161024291906127f3565b60405180910390f35b6102656004803603810190610260919061280e565b61075a565b005b610281600480360381019061027c91906126ef565b61077a565b005b61029d600480360381019061029891906126ef565b6107d6565b6040516102aa91906127f3565b60405180910390f35b6102cd60048036038101906102c891906126ef565b610847565b6040516102da919061275d565b60405180910390f35b6102eb6108cd565b6040516102f891906127f3565b60405180910390f35b61031b60048036038101906103169190612861565b6108de565b60405161032891906127f3565b60405180910390f35b610339610995565b005b6103436109a9565b604051610350919061275d565b60405180910390f35b6103616109d3565b60405161036e9190612697565b60405180910390f35b610391600480360381019061038c91906128ba565b610a65565b005b6103ad60048036038101906103a89190612a2f565b610a7b565b005b6103c960048036038101906103c491906126ef565b610add565b6040516103d69190612697565b60405180910390f35b6103f960048036038101906103f49190612b53565b610aef565b005b61041560048036038101906104109190612baf565b610b28565b60405161042291906125ec565b60405180910390f35b61044560048036038101906104409190612861565b610bbc565b005b600061045282610c3f565b9050919050565b60606000805461046890612c1e565b80601f016020809104026020016040519081016040528092919081815260200182805461049490612c1e565b80156104e15780601f106104b6576101008083540402835291602001916104e1565b820191906000526020600020905b8154815290600101906020018083116104c457829003601f168201915b5050505050905090565b60006104f682610cb9565b6004600083815260200190815260200160002060009054906101000a900473ffffffffffffffffffffffffffffffffffffffff169050919050565b600061053c82610847565b90508073ffffffffffffffffffffffffffffffffffffffff168373ffffffffffffffffffffffffffffffffffffffff16036105ac576040517f08c379a00000000000000000000000000000000000000000000000000000000081526004016105a390612cc1565b60405180910390fd5b8073ffffffffffffffffffffffffffffffffffffffff166105cb610d04565b73ffffffffffffffffffffffffffffffffffffffff1614806105fa57506105f9816105f4610d04565b610b28565b5b610639576040517f08c379a000000000000000000000000000000000000000000000000000000000815260040161063090612d53565b60405180910390fd5b6106438383610d0c565b505050565b6000600880549050905090565b610666610660610d04565b82610dc5565b6106a5576040517f08c379a000000000000000000000000000000000000000000000000000000000815260040161069c90612de5565b60405180910390fd5b6106b0838383610e5a565b505050565b60006106c0836108de565b8210610701576040517f08c379a00000000000000000000000000000000000000000000000000000000081526004016106f890612e77565b60405180910390fd5b600660008473ffffffffffffffffffffffffffffffffffffffff1673ffffffffffffffffffffffffffffffffffffffff168152602001908152602001600020600083815260200190815260200160002054905092915050565b61077583838360405180602001604052806000815250610a7b565b505050565b61078b610785610d04565b82610dc5565b6107ca576040517f08c379a00000000000000000000000000000000000000000000000000000000081526004016107c190612de5565b60405180910390fd5b6107d381611153565b50565b60006107e0610648565b8210610821576040517f08c379a000000000000000000000000000000000000000000000000000000000815260040161081890612f09565b60405180910390fd5b6008828154811061083557610834612f29565b5b90600052602060002001549050919050565b6000806108538361115f565b9050600073ffffffffffffffffffffffffffffffffffffffff168173ffffffffffffffffffffffffffffffffffffffff16036108c4576040517f08c379a00000000000000000000000000000000000000000000000000000000081526004016108bb90612fa4565b60405180910390fd5b80915050919050565b60006108d9600c61119c565b905090565b60008073ffffffffffffffffffffffffffffffffffffffff168273ffffffffffffffffffffffffffffffffffffffff160361094e576040517f08c379a000000000000000000000000000000000000000000000000000000000815260040161094590613036565b60405180910390fd5b600360008373ffffffffffffffffffffffffffffffffffffffff1673ffffffffffffffffffffffffffffffffffffffff168152602001908152602001600020549050919050565b61099d6111aa565b6109a76000611228565b565b6000600b60009054906101000a900473ffffffffffffffffffffffffffffffffffffffff16905090565b6060600180546109e290612c1e565b80601f0160208091040260200160405190810160405280929190818152602001828054610a0e90612c1e565b8015610a5b5780601f10610a3057610100808354040283529160200191610a5b565b820191906000526020600020905b815481529060010190602001808311610a3e57829003601f168201915b5050505050905090565b610a77610a70610d04565b83836112ee565b5050565b610a8c610a86610d04565b83610dc5565b610acb576040517f08c379a0000000000000000000000000000000000000000000000000000000008152600401610ac290612de5565b60405180910390fd5b610ad78484848461145a565b50505050565b6060610ae8826114b6565b9050919050565b610af76111aa565b6000610b03600c61119c565b9050610b0f600c6115c8565b610b1983826115de565b610b2381836115fc565b505050565b6000600560008473ffffffffffffffffffffffffffffffffffffffff1673ffffffffffffffffffffffffffffffffffffffff16815260200190815260200160002060008373ffffffffffffffffffffffffffffffffffffffff1673ffffffffffffffffffffffffffffffffffffffff16815260200190815260200160002060009054906101000a900460ff16905092915050565b610bc46111aa565b600073ffffffffffffffffffffffffffffffffffffffff168173ffffffffffffffffffffffffffffffffffffffff1603610c33576040517f08c379a0000000000000000000000000000000000000000000000000000000008152600401610c2a906130c8565b60405180910390fd5b610c3c81611228565b50565b60007f780e9d63000000000000000000000000000000000000000000000000000000007bffffffffffffffffffffffffffffffffffffffffffffffffffffffff1916827bffffffffffffffffffffffffffffffffffffffffffffffffffffffff19161480610cb25750610cb182611669565b5b9050919050565b610cc28161174b565b610d01576040517f08c379a0000000000000000000000000000000000000000000000000000000008152600401610cf890612fa4565b60405180910390fd5b50565b600033905090565b816004600083815260200190815260200160002060006101000a81548173ffffffffffffffffffffffffffffffffffffffff021916908373ffffffffffffffffffffffffffffffffffffffff160217905550808273ffffffffffffffffffffffffffffffffffffffff16610d7f83610847565b73ffffffffffffffffffffffffffffffffffffffff167f8c5be1e5ebec7d5bd14f71427d1e84f3dd0314c0f7b2291e5b200ac8c7c3b92560405160405180910390a45050565b600080610dd183610847565b90508073ffffffffffffffffffffffffffffffffffffffff168473ffffffffffffffffffffffffffffffffffffffff161480610e135750610e128185610b28565b5b80610e5157508373ffffffffffffffffffffffffffffffffffffffff16610e39846104eb565b73ffffffffffffffffffffffffffffffffffffffff16145b91505092915050565b8273ffffffffffffffffffffffffffffffffffffffff16610e7a82610847565b73ffffffffffffffffffffffffffffffffffffffff1614610ed0576040517f08c379a0000000000000000000000000000000000000000000000000000000008152600401610ec79061315a565b60405180910390fd5b600073ffffffffffffffffffffffffffffffffffffffff168273ffffffffffffffffffffffffffffffffffffffff1603610f3f576040517f08c379a0000000000000000000000000000000000000000000000000000000008152600401610f36906131ec565b60405180910390fd5b610f4c838383600161178c565b8273ffffffffffffffffffffffffffffffffffffffff16610f6c82610847565b73ffffffffffffffffffffffffffffffffffffffff1614610fc2576040517f08c379a0000000000000000000000000000000000000000000000000000000008152600401610fb99061315a565b60405180910390fd5b6004600082815260200190815260200160002060006101000a81549073ffffffffffffffffffffffffffffffffffffffff02191690556001600360008573ffffffffffffffffffffffffffffffffffffffff1673ffffffffffffffffffffffffffffffffffffffff168152602001908152602001600020600082825403925050819055506001600360008473ffffffffffffffffffffffffffffffffffffffff1673ffffffffffffffffffffffffffffffffffffffff16815260200190815260200160002060008282540192505081905550816002600083815260200190815260200160002060006101000a81548173ffffffffffffffffffffffffffffffffffffffff021916908373ffffffffffffffffffffffffffffffffffffffff160217905550808273ffffffffffffffffffffffffffffffffffffffff168473ffffffffffffffffffffffffffffffffffffffff167fddf252ad1be2c89b69c2b068fc378daa952ba7f163c4a11628f55a4df523b3ef60405160405180910390a461114e838383600161179e565b505050565b61115c816117a4565b50565b60006002600083815260200190815260200160002060009054906101000a900473ffffffffffffffffffffffffffffffffffffffff169050919050565b600081600001549050919050565b6111b2610d04565b73ffffffffffffffffffffffffffffffffffffffff166111d06109a9565b73ffffffffffffffffffffffffffffffffffffffff1614611226576040517f08c379a000000000000000000000000000000000000000000000000000000000815260040161121d90613258565b60405180910390fd5b565b6000600b60009054906101000a900473ffffffffffffffffffffffffffffffffffffffff16905081600b60006101000a81548173ffffffffffffffffffffffffffffffffffffffff021916908373ffffffffffffffffffffffffffffffffffffffff1602179055508173ffffffffffffffffffffffffffffffffffffffff168173ffffffffffffffffffffffffffffffffffffffff167f8be0079c531659141344cd1fd0a4f28419497f9722a3daafe3b4186f6b6457e060405160405180910390a35050565b8173ffffffffffffffffffffffffffffffffffffffff168373ffffffffffffffffffffffffffffffffffffffff160361135c576040517f08c379a0000000000000000000000000000000000000000000000000000000008152600401611353906132c4565b60405180910390fd5b80600560008573ffffffffffffffffffffffffffffffffffffffff1673ffffffffffffffffffffffffffffffffffffffff16815260200190815260200160002060008473ffffffffffffffffffffffffffffffffffffffff1673ffffffffffffffffffffffffffffffffffffffff16815260200190815260200160002060006101000a81548160ff0219169083151502179055508173ffffffffffffffffffffffffffffffffffffffff168373ffffffffffffffffffffffffffffffffffffffff167f17307eab39ab6107e8899845ad3d59bd9653f200f220920489ca2b5937696c318360405161144d91906125ec565b60405180910390a3505050565b611465848484610e5a565b611471848484846117f7565b6114b0576040517f08c379a00000000000000000000000000000000000000000000000000000000081526004016114a790613356565b60405180910390fd5b50505050565b60606114c182610cb9565b6000600a600084815260200190815260200160002080546114e190612c1e565b80601f016020809104026020016040519081016040528092919081815260200182805461150d90612c1e565b801561155a5780601f1061152f5761010080835404028352916020019161155a565b820191906000526020600020905b81548152906001019060200180831161153d57829003601f168201915b50505050509050600061156b61197e565b905060008151036115805781925050506115c3565b6000825111156115b557808260405160200161159d9291906133b2565b604051602081830303815290604052925050506115c3565b6115be84611995565b925050505b919050565b6001816000016000828254019250508190555050565b6115f88282604051806020016040528060008152506119fd565b5050565b6116058261174b565b611644576040517f08c379a000000000000000000000000000000000000000000000000000000000815260040161163b90613448565b60405180910390fd5b80600a600084815260200190815260200160002090816116649190613614565b505050565b60007f80ac58cd000000000000000000000000000000000000000000000000000000007bffffffffffffffffffffffffffffffffffffffffffffffffffffffff1916827bffffffffffffffffffffffffffffffffffffffffffffffffffffffff1916148061173457507f5b5e139f000000000000000000000000000000000000000000000000000000007bffffffffffffffffffffffffffffffffffffffffffffffffffffffff1916827bffffffffffffffffffffffffffffffffffffffffffffffffffffffff1916145b80611744575061174382611a58565b5b9050919050565b60008073ffffffffffffffffffffffffffffffffffffffff1661176d8361115f565b73ffffffffffffffffffffffffffffffffffffffff1614159050919050565b61179884848484611ac2565b50505050565b50505050565b6117ad81611c20565b6000600a600083815260200190815260200160002080546117cd90612c1e565b9050146117f457600a600082815260200190815260200160002060006117f391906124db565b5b50565b60006118188473ffffffffffffffffffffffffffffffffffffffff16611d6e565b15611971578373ffffffffffffffffffffffffffffffffffffffff1663150b7a02611841610d04565b8786866040518563ffffffff1660e01b8152600401611863949392919061373b565b6020604051808303816000875af192505050801561189f57506040513d601f19601f8201168201806040525081019061189c919061379c565b60015b611921573d80600081146118cf576040519150601f19603f3d011682016040523d82523d6000602084013e6118d4565b606091505b506000815103611919576040517f08c379a000000000000000000000000000000000000000000000000000000000815260040161191090613356565b60405180910390fd5b805181602001fd5b63150b7a0260e01b7bffffffffffffffffffffffffffffffffffffffffffffffffffffffff1916817bffffffffffffffffffffffffffffffffffffffffffffffffffffffff191614915050611976565b600190505b949350505050565b606060405180602001604052806000815250905090565b60606119a082610cb9565b60006119aa61197e565b905060008151116119ca57604051806020016040528060008152506119f5565b806119d484611d91565b6040516020016119e59291906133b2565b6040516020818303038152906040525b915050919050565b611a078383611e5f565b611a1460008484846117f7565b611a53576040517f08c379a0000000000000000000000000000000000000000000000000000000008152600401611a4a90613356565b60405180910390fd5b505050565b60007f01ffc9a7000000000000000000000000000000000000000000000000000000007bffffffffffffffffffffffffffffffffffffffffffffffffffffffff1916827bffffffffffffffffffffffffffffffffffffffffffffffffffffffff1916149050919050565b611ace8484848461207c565b6001811115611b12576040517f08c379a0000000000000000000000000000000000000000000000000000000008152600401611b099061383b565b60405180910390fd5b6000829050600073ffffffffffffffffffffffffffffffffffffffff168573ffffffffffffffffffffffffffffffffffffffff1603611b5957611b5481612082565b611b98565b8373ffffffffffffffffffffffffffffffffffffffff168573ffffffffffffffffffffffffffffffffffffffff1614611b9757611b9685826120cb565b5b5b600073ffffffffffffffffffffffffffffffffffffffff168473ffffffffffffffffffffffffffffffffffffffff1603611bda57611bd581612238565b611c19565b8473ffffffffffffffffffffffffffffffffffffffff168473ffffffffffffffffffffffffffffffffffffffff1614611c1857611c178482612309565b5b5b5050505050565b6000611c2b82610847565b9050611c3b81600084600161178c565b611c4482610847565b90506004600083815260200190815260200160002060006101000a81549073ffffffffffffffffffffffffffffffffffffffff02191690556001600360008373ffffffffffffffffffffffffffffffffffffffff1673ffffffffffffffffffffffffffffffffffffffff168152602001908152602001600020600082825403925050819055506002600083815260200190815260200160002060006101000a81549073ffffffffffffffffffffffffffffffffffffffff021916905581600073ffffffffffffffffffffffffffffffffffffffff168273ffffffffffffffffffffffffffffffffffffffff167fddf252ad1be2c89b69c2b068fc378daa952ba7f163c4a11628f55a4df523b3ef60405160405180910390a4611d6a81600084600161179e565b5050565b6000808273ffffffffffffffffffffffffffffffffffffffff163b119050919050565b606060006001611da084612388565b01905060008167ffffffffffffffff811115611dbf57611dbe612904565b5b6040519080825280601f01601f191660200182016040528015611df15781602001600182028036833780820191505090505b509050600082602001820190505b600115611e54578080600190039150507f3031323334353637383961626364656600000000000000000000000000000000600a86061a8153600a8581611e4857611e4761385b565b5b04945060008503611dff575b819350505050919050565b600073ffffffffffffffffffffffffffffffffffffffff168273ffffffffffffffffffffffffffffffffffffffff1603611ece576040517f08c379a0000000000000000000000000000000000000000000000000000000008152600401611ec5906138d6565b60405180910390fd5b611ed78161174b565b15611f17576040517f08c379a0000000000000000000000000000000000000000000000000000000008152600401611f0e90613942565b60405180910390fd5b611f2560008383600161178c565b611f2e8161174b565b15611f6e576040517f08c379a0000000000000000000000000000000000000000000000000000000008152600401611f6590613942565b60405180910390fd5b6001600360008473ffffffffffffffffffffffffffffffffffffffff1673ffffffffffffffffffffffffffffffffffffffff16815260200190815260200160002060008282540192505081905550816002600083815260200190815260200160002060006101000a81548173ffffffffffffffffffffffffffffffffffffffff021916908373ffffffffffffffffffffffffffffffffffffffff160217905550808273ffffffffffffffffffffffffffffffffffffffff16600073ffffffffffffffffffffffffffffffffffffffff167fddf252ad1be2c89b69c2b068fc378daa952ba7f163c4a11628f55a4df523b3ef60405160405180910390a461207860008383600161179e565b5050565b50505050565b6008805490506009600083815260200190815260200160002081905550600881908060018154018082558091505060019003906000526020600020016000909190919091505550565b600060016120d8846108de565b6120e29190613991565b90506000600760008481526020019081526020016000205490508181146121c7576000600660008673ffffffffffffffffffffffffffffffffffffffff1673ffffffffffffffffffffffffffffffffffffffff168152602001908152602001600020600084815260200190815260200160002054905080600660008773ffffffffffffffffffffffffffffffffffffffff1673ffffffffffffffffffffffffffffffffffffffff168152602001908152602001600020600084815260200190815260200160002081905550816007600083815260200190815260200160002081905550505b6007600084815260200190815260200160002060009055600660008573ffffffffffffffffffffffffffffffffffffffff1673ffffffffffffffffffffffffffffffffffffffff16815260200190815260200160002060008381526020019081526020016000206000905550505050565b6000600160088054905061224c9190613991565b905060006009600084815260200190815260200160002054905060006008838154811061227c5761227b612f29565b5b90600052602060002001549050806008838154811061229e5761229d612f29565b5b9060005260206000200181905550816009600083815260200190815260200160002081905550600960008581526020019081526020016000206000905560088054806122ed576122ec6139c5565b5b6001900381819060005260206000200160009055905550505050565b6000612314836108de565b905081600660008573ffffffffffffffffffffffffffffffffffffffff1673ffffffffffffffffffffffffffffffffffffffff168152602001908152602001600020600083815260200190815260200160002081905550806007600084815260200190815260200160002081905550505050565b600080600090507a184f03e93ff9f4daa797ed6e38ed64bf6a1f01000000000000000083106123e6577a184f03e93ff9f4daa797ed6e38ed64bf6a1f01000000000000000083816123dc576123db61385b565b5b0492506040810190505b6d04ee2d6d415b85acef81000000008310612423576d04ee2d6d415b85acef810000000083816124195761241861385b565b5b0492506020810190505b662386f26fc10000831061245257662386f26fc1000083816124485761244761385b565b5b0492506010810190505b6305f5e100831061247b576305f5e10083816124715761247061385b565b5b0492506008810190505b61271083106124a05761271083816124965761249561385b565b5b0492506004810190505b606483106124c357606483816124b9576124b861385b565b5b0492506002810190505b600a83106124d2576001810190505b80915050919050565b5080546124e790612c1e565b6000825580601f106124f95750612518565b601f016020900490600052602060002090810190612517919061251b565b5b50565b5b8082111561253457600081600090555060010161251c565b5090565b6000604051905090565b600080fd5b600080fd5b60007fffffffff0000000000000000000000000000000000000000000000000000000082169050919050565b6125818161254c565b811461258c57600080fd5b50565b60008135905061259e81612578565b92915050565b6000602082840312156125ba576125b9612542565b5b60006125c88482850161258f565b91505092915050565b60008115159050919050565b6125e6816125d1565b82525050565b600060208201905061260160008301846125dd565b92915050565b600081519050919050565b600082825260208201905092915050565b60005b83811015612641578082015181840152602081019050612626565b60008484015250505050565b6000601f19601f8301169050919050565b600061266982612607565b6126738185612612565b9350612683818560208601612623565b61268c8161264d565b840191505092915050565b600060208201905081810360008301526126b1818461265e565b905092915050565b6000819050919050565b6126cc816126b9565b81146126d757600080fd5b50565b6000813590506126e9816126c3565b92915050565b60006020828403121561270557612704612542565b5b6000612713848285016126da565b91505092915050565b600073ffffffffffffffffffffffffffffffffffffffff82169050919050565b60006127478261271c565b9050919050565b6127578161273c565b82525050565b6000602082019050612772600083018461274e565b92915050565b6127818161273c565b811461278c57600080fd5b50565b60008135905061279e81612778565b92915050565b600080604083850312156127bb576127ba612542565b5b60006127c98582860161278f565b92505060206127da858286016126da565b9150509250929050565b6127ed816126b9565b82525050565b600060208201905061280860008301846127e4565b92915050565b60008060006060848603121561282757612826612542565b5b60006128358682870161278f565b93505060206128468682870161278f565b9250506040612857868287016126da565b9150509250925092565b60006020828403121561287757612876612542565b5b60006128858482850161278f565b91505092915050565b612897816125d1565b81146128a257600080fd5b50565b6000813590506128b48161288e565b92915050565b600080604083850312156128d1576128d0612542565b5b60006128df8582860161278f565b92505060206128f0858286016128a5565b9150509250929050565b600080fd5b600080fd5b7f4e487b7100000000000000000000000000000000000000000000000000000000600052604160045260246000fd5b61293c8261264d565b810181811067ffffffffffffffff8211171561295b5761295a612904565b5b80604052505050565b600061296e612538565b905061297a8282612933565b919050565b600067ffffffffffffffff82111561299a57612999612904565b5b6129a38261264d565b9050602081019050919050565b82818337600083830152505050565b60006129d26129cd8461297f565b612964565b9050828152602081018484840111156129ee576129ed6128ff565b5b6129f98482856129b0565b509392505050565b600082601f830112612a1657612a156128fa565b5b8135612a268482602086016129bf565b91505092915050565b60008060008060808587031215612a4957612a48612542565b5b6000612a578782880161278f565b9450506020612a688782880161278f565b9350506040612a79878288016126da565b925050606085013567ffffffffffffffff811115612a9a57612a99612547565b5b612aa687828801612a01565b91505092959194509250565b600067ffffffffffffffff821115612acd57612acc612904565b5b612ad68261264d565b9050602081019050919050565b6000612af6612af184612ab2565b612964565b905082815260208101848484011115612b1257612b116128ff565b5b612b1d8482856129b0565b509392505050565b600082601f830112612b3a57612b396128fa565b5b8135612b4a848260208601612ae3565b91505092915050565b60008060408385031215612b6a57612b69612542565b5b6000612b788582860161278f565b925050602083013567ffffffffffffffff811115612b9957612b98612547565b5b612ba585828601612b25565b9150509250929050565b60008060408385031215612bc657612bc5612542565b5b6000612bd48582860161278f565b9250506020612be58582860161278f565b9150509250929050565b7f4e487b7100000000000000000000000000000000000000000000000000000000600052602260045260246000fd5b60006002820490506001821680612c3657607f821691505b602082108103612c4957612c48612bef565b5b50919050565b7f4552433732313a20617070726f76616c20746f2063757272656e74206f776e6560008201527f7200000000000000000000000000000000000000000000000000000000000000602082015250565b6000612cab602183612612565b9150612cb682612c4f565b604082019050919050565b60006020820190508181036000830152612cda81612c9e565b9050919050565b7f4552433732313a20617070726f76652063616c6c6572206973206e6f7420746f60008201527f6b656e206f776e6572206f7220617070726f76656420666f7220616c6c000000602082015250565b6000612d3d603d83612612565b9150612d4882612ce1565b604082019050919050565b60006020820190508181036000830152612d6c81612d30565b9050919050565b7f4552433732313a2063616c6c6572206973206e6f7420746f6b656e206f776e6560008201527f72206f7220617070726f76656400000000000000000000000000000000000000602082015250565b6000612dcf602d83612612565b9150612dda82612d73565b604082019050919050565b60006020820190508181036000830152612dfe81612dc2565b9050919050565b7f455243373231456e756d657261626c653a206f776e657220696e646578206f7560008201527f74206f6620626f756e6473000000000000000000000000000000000000000000602082015250565b6000612e61602b83612612565b9150612e6c82612e05565b604082019050919050565b60006020820190508181036000830152612e9081612e54565b9050919050565b7f455243373231456e756d657261626c653a20676c6f62616c20696e646578206f60008201527f7574206f6620626f756e64730000000000000000000000000000000000000000602082015250565b6000612ef3602c83612612565b9150612efe82612e97565b604082019050919050565b60006020820190508181036000830152612f2281612ee6565b9050919050565b7f4e487b7100000000000000000000000000000000000000000000000000000000600052603260045260246000fd5b7f4552433732313a20696e76616c696420746f6b656e2049440000000000000000600082015250565b6000612f8e601883612612565b9150612f9982612f58565b602082019050919050565b60006020820190508181036000830152612fbd81612f81565b9050919050565b7f4552433732313a2061646472657373207a65726f206973206e6f74206120766160008201527f6c6964206f776e65720000000000000000000000000000000000000000000000602082015250565b6000613020602983612612565b915061302b82612fc4565b604082019050919050565b6000602082019050818103600083015261304f81613013565b9050919050565b7f4f776e61626c653a206e6577206f776e657220697320746865207a65726f206160008201527f6464726573730000000000000000000000000000000000000000000000000000602082015250565b60006130b2602683612612565b91506130bd82613056565b604082019050919050565b600060208201905081810360008301526130e1816130a5565b9050919050565b7f4552433732313a207472616e736665722066726f6d20696e636f72726563742060008201527f6f776e6572000000000000000000000000000000000000000000000000000000602082015250565b6000613144602583612612565b915061314f826130e8565b604082019050919050565b6000602082019050818103600083015261317381613137565b9050919050565b7f4552433732313a207472616e7366657220746f20746865207a65726f2061646460008201527f7265737300000000000000000000000000000000000000000000000000000000602082015250565b60006131d6602483612612565b91506131e18261317a565b604082019050919050565b60006020820190508181036000830152613205816131c9565b9050919050565b7f4f776e61626c653a2063616c6c6572206973206e6f7420746865206f776e6572600082015250565b6000613242602083612612565b915061324d8261320c565b602082019050919050565b6000602082019050818103600083015261327181613235565b9050919050565b7f4552433732313a20617070726f766520746f2063616c6c657200000000000000600082015250565b60006132ae601983612612565b91506132b982613278565b602082019050919050565b600060208201905081810360008301526132dd816132a1565b9050919050565b7f4552433732313a207472616e7366657220746f206e6f6e20455243373231526560008201527f63656976657220696d706c656d656e7465720000000000000000000000000000602082015250565b6000613340603283612612565b915061334b826132e4565b604082019050919050565b6000602082019050818103600083015261336f81613333565b9050919050565b600081905092915050565b600061338c82612607565b6133968185613376565b93506133a6818560208601612623565b80840191505092915050565b60006133be8285613381565b91506133ca8284613381565b91508190509392505050565b7f45524337323155524953746f726167653a2055524920736574206f66206e6f6e60008201527f6578697374656e7420746f6b656e000000000000000000000000000000000000602082015250565b6000613432602e83612612565b915061343d826133d6565b604082019050919050565b6000602082019050818103600083015261346181613425565b9050919050565b60008190508160005260206000209050919050565b60006020601f8301049050919050565b600082821b905092915050565b6000600883026134ca7fffffffffffffffffffffffffffffffffffffffffffffffffffffffffffffffff8261348d565b6134d4868361348d565b95508019841693508086168417925050509392505050565b6000819050919050565b600061351161350c613507846126b9565b6134ec565b6126b9565b9050919050565b6000819050919050565b61352b836134f6565b61353f61353782613518565b84845461349a565b825550505050565b600090565b613554613547565b61355f818484613522565b505050565b5b818110156135835761357860008261354c565b600181019050613565565b5050565b601f8211156135c85761359981613468565b6135a28461347d565b810160208510156135b1578190505b6135c56135bd8561347d565b830182613564565b50505b505050565b600082821c905092915050565b60006135eb600019846008026135cd565b1980831691505092915050565b600061360483836135da565b9150826002028217905092915050565b61361d82612607565b67ffffffffffffffff81111561363657613635612904565b5b6136408254612c1e565b61364b828285613587565b600060209050601f83116001811461367e576000841561366c578287015190505b61367685826135f8565b8655506136de565b601f19841661368c86613468565b60005b828110156136b45784890151825560018201915060208501945060208101905061368f565b868310156136d157848901516136cd601f8916826135da565b8355505b6001600288020188555050505b505050505050565b600081519050919050565b600082825260208201905092915050565b600061370d826136e6565b61371781856136f1565b9350613727818560208601612623565b6137308161264d565b840191505092915050565b6000608082019050613750600083018761274e565b61375d602083018661274e565b61376a60408301856127e4565b818103606083015261377c8184613702565b905095945050505050565b60008151905061379681612578565b92915050565b6000602082840312156137b2576137b1612542565b5b60006137c084828501613787565b91505092915050565b7f455243373231456e756d657261626c653a20636f6e736563757469766520747260008201527f616e7366657273206e6f7420737570706f727465640000000000000000000000602082015250565b6000613825603583612612565b9150613830826137c9565b604082019050919050565b6000602082019050818103600083015261385481613818565b9050919050565b7f4e487b7100000000000000000000000000000000000000000000000000000000600052601260045260246000fd5b7f4552433732313a206d696e7420746f20746865207a65726f2061646472657373600082015250565b60006138c0602083612612565b91506138cb8261388a565b602082019050919050565b600060208201905081810360008301526138ef816138b3565b9050919050565b7f4552433732313a20746f6b656e20616c7265616479206d696e74656400000000600082015250565b600061392c601c83612612565b9150613937826138f6565b602082019050919050565b6000602082019050818103600083015261395b8161391f565b9050919050565b7f4e487b7100000000000000000000000000000000000000000000000000000000600052601160045260246000fd5b600061399c826126b9565b91506139a7836126b9565b92508282039050818111156139bf576139be613962565b5b92915050565b7f4e487b7100000000000000000000000000000000000000000000000000000000600052603160045260246000fdfea2646970667358221220776220c1d301fe5a18a3563911bd1708874861a2f937e6b8c56478c5ab3ff9a664736f6c63430008120033",
  "linkReferences": {},
  "deployedLinkReferences": {}
}