{
  "_format": "hh-sol-artifact-1",
  "contractName": "BetOnChain",
  "sourceName": "contracts/BetOnChain.sol",
  "abi": [
    {
      "inputs": [
        {
          "internalType": "address",
          "name": "bocTokenAddress",
          "type": "address"
        }
      ],
      "stateMutability": "nonpayable",
      "type": "constructor"
    },
    {
      "inputs": [],
      "name": "BetOnChain__RequirementsNotMet",
      "type": "error"
    },
    {
      "inputs": [],
      "name": "BetOnChain__ThisAchievementDoesNotExist",
      "type": "error"
    },
    {
      "inputs": [],
      "name": "BetOnChain__ThisIdIsAlreadyUsed",
      "type": "error"
    },
    {
      "inputs": [],
      "name": "BetOnChain__ThisTeamDoesNotExist",
      "type": "error"
    },
    {
      "inputs": [],
      "name": "BetOnChain__YouBetIsNotAWinningBet",
      "type": "error"
    },
    {
      "inputs": [],
      "name": "BetOnChain__YouNeedTheNftToWithdrawPrize",
      "type": "error"
    },
    {
      "anonymous": false,
      "inputs": [
        {
          "indexed": true,
          "internalType": "address",
          "name": "previousOwner",
          "type": "address"
        },
        {
          "indexed": true,
          "internalType": "address",
          "name": "newOwner",
          "type": "address"
        }
      ],
      "name": "OwnershipTransferred",
      "type": "event"
    },
    {
      "inputs": [],
      "name": "_setWinnerBetId0",
      "outputs": [],
      "stateMutability": "nonpayable",
      "type": "function"
    },
    {
      "inputs": [
        {
          "internalType": "address",
          "name": "",
          "type": "address"
        },
        {
          "internalType": "uint256",
          "name": "",
          "type": "uint256"
        }
      ],
      "name": "addressToBetToPlayer",
      "outputs": [
        {
          "internalType": "address",
          "name": "player",
          "type": "address"
        },
        {
          "internalType": "uint256",
          "name": "betId",
          "type": "uint256"
        },
        {
          "internalType": "uint256",
          "name": "betAmount",
          "type": "uint256"
        },
        {
          "internalType": "uint256",
          "name": "betFor",
          "type": "uint256"
        },
        {
          "internalType": "uint256",
          "name": "nftId",
          "type": "uint256"
        }
      ],
      "stateMutability": "view",
      "type": "function"
    },
    {
      "inputs": [
        {
          "internalType": "uint256",
          "name": "betAmount",
          "type": "uint256"
        },
        {
          "internalType": "uint256",
          "name": "betFor",
          "type": "uint256"
        },
        {
          "internalType": "uint256",
          "name": "betId",
          "type": "uint256"
        }
      ],
      "name": "bet",
      "outputs": [],
      "stateMutability": "nonpayable",
      "type": "function"
    },
    {
      "inputs": [
        {
          "internalType": "uint256",
          "name": "",
          "type": "uint256"
        }
      ],
      "name": "bets",
      "outputs": [
        {
          "internalType": "uint256",
          "name": "oddsfor0",
          "type": "uint256"
        },
        {
          "internalType": "uint256",
          "name": "oddsfor1",
          "type": "uint256"
        },
        {
          "internalType": "uint256",
          "name": "oddsfor2",
          "type": "uint256"
        },
        {
          "internalType": "bool",
          "name": "betsOpen",
          "type": "bool"
        },
        {
          "internalType": "bool",
          "name": "betsExist",
          "type": "bool"
        },
        {
          "internalType": "uint256",
          "name": "totalBetAmountFor0",
          "type": "uint256"
        },
        {
          "internalType": "uint256",
          "name": "totalBetAmountFor1",
          "type": "uint256"
        },
        {
          "internalType": "uint256",
          "name": "totalBetAmountFor2",
          "type": "uint256"
        },
        {
          "internalType": "uint256",
          "name": "totalBetAmount",
          "type": "uint256"
        },
        {
          "internalType": "uint256",
          "name": "winner",
          "type": "uint256"
        },
        {
          "internalType": "bool",
          "name": "winnerCalled",
          "type": "bool"
        }
      ],
      "stateMutability": "view",
      "type": "function"
    },
    {
      "inputs": [],
      "name": "bocNFT",
      "outputs": [
        {
          "internalType": "contract BocNFT",
          "name": "",
          "type": "address"
        }
      ],
      "stateMutability": "view",
      "type": "function"
    },
    {
      "inputs": [],
      "name": "bocToken",
      "outputs": [
        {
          "internalType": "contract BocToken",
          "name": "",
          "type": "address"
        }
      ],
      "stateMutability": "view",
      "type": "function"
    },
    {
      "inputs": [
        {
          "internalType": "address",
          "name": "oracle",
          "type": "address"
        },
        {
          "internalType": "string",
          "name": "jobId",
          "type": "string"
        },
        {
          "internalType": "uint256",
          "name": "betId",
          "type": "uint256"
        }
      ],
      "name": "callResults",
      "outputs": [],
      "stateMutability": "nonpayable",
      "type": "function"
    },
    {
      "inputs": [
        {
          "internalType": "uint256",
          "name": "betId",
          "type": "uint256"
        }
      ],
      "name": "closeBet",
      "outputs": [],
      "stateMutability": "nonpayable",
      "type": "function"
    },
    {
      "inputs": [],
      "name": "consumerContract",
      "outputs": [
        {
          "internalType": "contract ConsumerContract",
          "name": "",
          "type": "address"
        }
      ],
      "stateMutability": "view",
      "type": "function"
    },
    {
      "inputs": [
        {
          "internalType": "uint256",
          "name": "betId",
          "type": "uint256"
        },
        {
          "internalType": "uint256",
          "name": "oddsfor0",
          "type": "uint256"
        },
        {
          "internalType": "uint256",
          "name": "oddsfor1",
          "type": "uint256"
        },
        {
          "internalType": "uint256",
          "name": "oddsfor2",
          "type": "uint256"
        }
      ],
      "name": "createBet",
      "outputs": [],
      "stateMutability": "nonpayable",
      "type": "function"
    },
    {
      "inputs": [],
      "name": "getAchievementRequirement",
      "outputs": [
        {
          "components": [
            {
              "internalType": "uint256",
              "name": "beginnerNumberOfBets",
              "type": "uint256"
            },
            {
              "internalType": "uint256",
              "name": "warriorNumberOfBets",
              "type": "uint256"
            },
            {
              "internalType": "uint256",
              "name": "expertNumberOfBets",
              "type": "uint256"
            }
          ],
          "internalType": "struct BetOnChain.AchievementRequirement",
          "name": "",
          "type": "tuple"
        }
      ],
      "stateMutability": "view",
      "type": "function"
    },
    {
      "inputs": [],
      "name": "getAchievementURI",
      "outputs": [
        {
          "components": [
            {
              "internalType": "string",
              "name": "beginner",
              "type": "string"
            },
            {
              "internalType": "string",
              "name": "warrior",
              "type": "string"
            },
            {
              "internalType": "string",
              "name": "expert",
              "type": "string"
            }
          ],
          "internalType": "struct BetOnChain.AchievementURI",
          "name": "",
          "type": "tuple"
        }
      ],
      "stateMutability": "view",
      "type": "function"
    },
    {
      "inputs": [],
      "name": "getBetPositionURI",
      "outputs": [
        {
          "internalType": "string",
          "name": "",
          "type": "string"
        }
      ],
      "stateMutability": "view",
      "type": "function"
    },
    {
      "inputs": [
        {
          "internalType": "uint256",
          "name": "betId",
          "type": "uint256"
        }
      ],
      "name": "getOddsForDraw",
      "outputs": [
        {
          "internalType": "uint256",
          "name": "",
          "type": "uint256"
        }
      ],
      "stateMutability": "view",
      "type": "function"
    },
    {
      "inputs": [
        {
          "internalType": "uint256",
          "name": "betId",
          "type": "uint256"
        }
      ],
      "name": "getOddsForTeam1",
      "outputs": [
        {
          "internalType": "uint256",
          "name": "",
          "type": "uint256"
        }
      ],
      "stateMutability": "view",
      "type": "function"
    },
    {
      "inputs": [
        {
          "internalType": "uint256",
          "name": "betId",
          "type": "uint256"
        }
      ],
      "name": "getOddsForTeam2",
      "outputs": [
        {
          "internalType": "uint256",
          "name": "",
          "type": "uint256"
        }
      ],
      "stateMutability": "view",
      "type": "function"
    },
    {
      "inputs": [
        {
          "internalType": "uint256",
          "name": "betId",
          "type": "uint256"
        }
      ],
      "name": "getWinner",
      "outputs": [],
      "stateMutability": "nonpayable",
      "type": "function"
    },
    {
      "inputs": [
        {
          "internalType": "uint256",
          "name": "achievementLevelToMint",
          "type": "uint256"
        }
      ],
      "name": "mintAchievementNft",
      "outputs": [],
      "stateMutability": "nonpayable",
      "type": "function"
    },
    {
      "inputs": [
        {
          "internalType": "address",
          "name": "",
          "type": "address"
        }
      ],
      "name": "numberOfBets",
      "outputs": [
        {
          "internalType": "uint256",
          "name": "",
          "type": "uint256"
        }
      ],
      "stateMutability": "view",
      "type": "function"
    },
    {
      "inputs": [
        {
          "internalType": "uint256",
          "name": "betId",
          "type": "uint256"
        }
      ],
      "name": "openBet",
      "outputs": [],
      "stateMutability": "nonpayable",
      "type": "function"
    },
    {
      "inputs": [],
      "name": "owner",
      "outputs": [
        {
          "internalType": "address",
          "name": "",
          "type": "address"
        }
      ],
      "stateMutability": "view",
      "type": "function"
    },
    {
      "inputs": [],
      "name": "renounceOwnership",
      "outputs": [],
      "stateMutability": "nonpayable",
      "type": "function"
    },
    {
      "inputs": [
        {
          "internalType": "uint256",
          "name": "beginnerNumberOfBets",
          "type": "uint256"
        },
        {
          "internalType": "uint256",
          "name": "warriorNumberOfBets",
          "type": "uint256"
        },
        {
          "internalType": "uint256",
          "name": "expertNumberOfBets",
          "type": "uint256"
        }
      ],
      "name": "setAchievementRequirement",
      "outputs": [],
      "stateMutability": "nonpayable",
      "type": "function"
    },
    {
      "inputs": [
        {
          "internalType": "string",
          "name": "beginnerURI",
          "type": "string"
        },
        {
          "internalType": "string",
          "name": "warriorURI",
          "type": "string"
        },
        {
          "internalType": "string",
          "name": "expertURI",
          "type": "string"
        }
      ],
      "name": "setAchievementURI",
      "outputs": [],
      "stateMutability": "nonpayable",
      "type": "function"
    },
    {
      "inputs": [
        {
          "internalType": "string",
          "name": "_betPositionURI",
          "type": "string"
        }
      ],
      "name": "setBetPositionURI",
      "outputs": [],
      "stateMutability": "nonpayable",
      "type": "function"
    },
    {
      "inputs": [
        {
          "internalType": "address",
          "name": "newOwner",
          "type": "address"
        }
      ],
      "name": "transferOwnership",
      "outputs": [],
      "stateMutability": "nonpayable",
      "type": "function"
    },
    {
      "inputs": [
        {
          "internalType": "uint256",
          "name": "betId",
          "type": "uint256"
        }
      ],
      "name": "withdrawPrize",
      "outputs": [],
      "stateMutability": "nonpayable",
      "type": "function"
    }
  ],
  "bytecode": "0x60806040523480156200001157600080fd5b5060405162009ece38038062009ece8339818101604052810190620000379190620002c9565b620000576200004b6200017760201b60201c565b6200017f60201b60201c565b604051620000659062000243565b604051809103906000f08015801562000082573d6000803e3d6000fd5b50600860006101000a81548173ffffffffffffffffffffffffffffffffffffffff021916908373ffffffffffffffffffffffffffffffffffffffff160217905550604051620000d19062000251565b604051809103906000f080158015620000ee573d6000803e3d6000fd5b50600a60006101000a81548173ffffffffffffffffffffffffffffffffffffffff021916908373ffffffffffffffffffffffffffffffffffffffff16021790555080600960006101000a81548173ffffffffffffffffffffffffffffffffffffffff021916908373ffffffffffffffffffffffffffffffffffffffff16021790555050620002fb565b600033905090565b60008060009054906101000a900473ffffffffffffffffffffffffffffffffffffffff169050816000806101000a81548173ffffffffffffffffffffffffffffffffffffffff021916908373ffffffffffffffffffffffffffffffffffffffff1602179055508173ffffffffffffffffffffffffffffffffffffffff168173ffffffffffffffffffffffffffffffffffffffff167f8be0079c531659141344cd1fd0a4f28419497f9722a3daafe3b4186f6b6457e060405160405180910390a35050565b613f3380620033a683390190565b612bf580620072d983390190565b600080fd5b600073ffffffffffffffffffffffffffffffffffffffff82169050919050565b6000620002918262000264565b9050919050565b620002a38162000284565b8114620002af57600080fd5b50565b600081519050620002c38162000298565b92915050565b600060208284031215620002e257620002e16200025f565b5b6000620002f284828501620002b2565b91505092915050565b61309b806200030b6000396000f3fe608060405234801561001057600080fd5b50600436106101a95760003560e01c80638da5cb5b116100f9578063c20eec7b11610097578063c84b585411610071578063c84b585414610474578063ea62596c146104a4578063f074281f146104c2578063f2fde38b146104f6576101a9565b8063c20eec7b1461041c578063c2c90f1d14610438578063c7387ad214610456576101a9565b8063a24beff7116100d3578063a24beff714610398578063a253c3c9146103b4578063b2178afc146103e4578063bfc5482214610400576101a9565b80638da5cb5b146103425780639d8ac2cd146103605780639edf3c921461037c576101a9565b806333b5c99f116101665780635bfd03b8116101405780635bfd03b8146102f65780636c2ebeef146103005780636de0b3751461031c578063715018a614610338576101a9565b806333b5c99f146102a05780634129b2c9146102be578063517bca55146102da576101a9565b806301456d2c146101ae57806301728664146101de57806310dc74c91461020e57806322af00fa1461022c57806322dbddb1146102665780632a28695814610284575b600080fd5b6101c860048036038101906101c39190611fc6565b610512565b6040516101d59190612002565b60405180910390f35b6101f860048036038101906101f39190611fc6565b610532565b6040516102059190612002565b60405180910390f35b610216610552565b60405161022391906120ad565b60405180910390f35b61024660048036038101906102419190611fc6565b6105e4565b60405161025d9b9a999897969594939291906120ea565b60405180910390f35b61026e610665565b60405161027b9190612214565b60405180910390f35b61029e60048036038101906102999190612364565b61068b565b005b6102a86106d0565b6040516102b591906124b3565b60405180910390f35b6102d860048036038101906102d39190611fc6565b6108a0565b005b6102f460048036038101906102ef91906124d5565b61095f565b005b6102fe61097a565b005b61031a60048036038101906103159190611fc6565b6109a0565b005b61033660048036038101906103319190611fc6565b610d2b565b005b610340610dcb565b005b61034a610ddf565b604051610357919061253f565b60405180910390f35b61037a6004803603810190610375919061255a565b610e08565b005b610396600480360381019061039191906125d9565b610e33565b005b6103b260048036038101906103ad9190611fc6565b610f5e565b005b6103ce60048036038101906103c99190612648565b610ffd565b6040516103db9190612002565b60405180910390f35b6103fe60048036038101906103f99190612675565b611015565b005b61041a6004803603810190610415919061255a565b6111bc565b005b61043660048036038101906104319190611fc6565b611344565b005b61044061150e565b60405161044d919061272d565b60405180910390f35b61045e611546565b60405161046b9190612769565b60405180910390f35b61048e60048036038101906104899190611fc6565b61156c565b60405161049b9190612002565b60405180910390f35b6104ac61158c565b6040516104b991906127a5565b60405180910390f35b6104dc60048036038101906104d791906127c0565b6115b2565b6040516104ed959493929190612800565b60405180910390f35b610510600480360381019061050b9190612648565b611615565b005b6000600c6000838152602001908152602001600020600001549050919050565b6000600c6000838152602001908152602001600020600101549050919050565b60606001805461056190612882565b80601f016020809104026020016040519081016040528092919081815260200182805461058d90612882565b80156105da5780601f106105af576101008083540402835291602001916105da565b820191906000526020600020905b8154815290600101906020018083116105bd57829003601f168201915b5050505050905090565b600c6020528060005260406000206000915090508060000154908060010154908060020154908060030160009054906101000a900460ff16908060030160019054906101000a900460ff16908060040154908060050154908060060154908060070154908060080154908060090160009054906101000a900460ff1690508b565b600a60009054906101000a900473ffffffffffffffffffffffffffffffffffffffff1681565b610693611698565b82600260000190816106a59190612a55565b5081600260010190816106b89190612a55565b50806002800190816106ca9190612a55565b50505050565b6106d8611f3a565b60026040518060600160405290816000820180546106f590612882565b80601f016020809104026020016040519081016040528092919081815260200182805461072190612882565b801561076e5780601f106107435761010080835404028352916020019161076e565b820191906000526020600020905b81548152906001019060200180831161075157829003601f168201915b5050505050815260200160018201805461078790612882565b80601f01602080910402602001604051908101604052809291908181526020018280546107b390612882565b80156108005780601f106107d557610100808354040283529160200191610800565b820191906000526020600020905b8154815290600101906020018083116107e357829003601f168201915b5050505050815260200160028201805461081990612882565b80601f016020809104026020016040519081016040528092919081815260200182805461084590612882565b80156108925780601f1061086757610100808354040283529160200191610892565b820191906000526020600020905b81548152906001019060200180831161087557829003601f168201915b505050505081525050905090565b6000600a60009054906101000a900473ffffffffffffffffffffffffffffffffffffffff1673ffffffffffffffffffffffffffffffffffffffff166389ca38c3836040518263ffffffff1660e01b81526004016108fd9190612002565b602060405180830381865afa15801561091a573d6000803e3d6000fd5b505050506040513d601f19601f8201168201806040525081019061093e9190612b3c565b905080600c6000848152602001908152602001600020600801819055505050565b610967611698565b80600190816109769190612a55565b5050565b610982611698565b6001600c600080815260200190815260200160002060080181905550565b60008103610aba57600560010154600b60003373ffffffffffffffffffffffffffffffffffffffff1673ffffffffffffffffffffffffffffffffffffffff168152602001908152602001600020541015610a26576040517f0c2f58c200000000000000000000000000000000000000000000000000000000815260040160405180910390fd5b600860009054906101000a900473ffffffffffffffffffffffffffffffffffffffff1673ffffffffffffffffffffffffffffffffffffffff1663d204c45e3360026000016040518363ffffffff1660e01b8152600401610a87929190612bed565b600060405180830381600087803b158015610aa157600080fd5b505af1158015610ab5573d6000803e3d6000fd5b505050505b60018103610bd457600560010154600b60003373ffffffffffffffffffffffffffffffffffffffff1673ffffffffffffffffffffffffffffffffffffffff168152602001908152602001600020541015610b40576040517f0c2f58c200000000000000000000000000000000000000000000000000000000815260040160405180910390fd5b600860009054906101000a900473ffffffffffffffffffffffffffffffffffffffff1673ffffffffffffffffffffffffffffffffffffffff1663d204c45e3360026001016040518363ffffffff1660e01b8152600401610ba1929190612bed565b600060405180830381600087803b158015610bbb57600080fd5b505af1158015610bcf573d6000803e3d6000fd5b505050505b60028103610ced57600560020154600b60003373ffffffffffffffffffffffffffffffffffffffff1673ffffffffffffffffffffffffffffffffffffffff168152602001908152602001600020541015610c5a576040517f0c2f58c200000000000000000000000000000000000000000000000000000000815260040160405180910390fd5b600860009054906101000a900473ffffffffffffffffffffffffffffffffffffffff1673ffffffffffffffffffffffffffffffffffffffff1663d204c45e33600280016040518363ffffffff1660e01b8152600401610cba929190612bed565b600060405180830381600087803b158015610cd457600080fd5b505af1158015610ce8573d6000803e3d6000fd5b505050505b6002811115610d28576040517f1139eba300000000000000000000000000000000000000000000000000000000815260040160405180910390fd5b50565b610d33611698565b80600c600082815260200190815260200160002060030160009054906101000a900460ff1615610d98576040517f08c379a0000000000000000000000000000000000000000000000000000000008152600401610d8f90612c69565b60405180910390fd5b6001600c600084815260200190815260200160002060030160006101000a81548160ff0219169083151502179055505050565b610dd3611698565b610ddd6000611716565b565b60008060009054906101000a900473ffffffffffffffffffffffffffffffffffffffff16905090565b610e10611698565b826005600001819055508160056001018190555080600560020181905550505050565b80600c600082815260200190815260200160002060030160009054906101000a900460ff1615610e98576040517f08c379a0000000000000000000000000000000000000000000000000000000008152600401610e8f90612c69565b60405180910390fd5b600a60009054906101000a900473ffffffffffffffffffffffffffffffffffffffff1673ffffffffffffffffffffffffffffffffffffffff1663c4fe9f488585856040518463ffffffff1660e01b8152600401610ef793929190612c89565b600060405180830381600087803b158015610f1157600080fd5b505af1158015610f25573d6000803e3d6000fd5b505050506001600c600084815260200190815260200160002060090160006101000a81548160ff02191690831515021790555050505050565b610f66611698565b80600c600082815260200190815260200160002060030160009054906101000a900460ff16610fca576040517f08c379a0000000000000000000000000000000000000000000000000000000008152600401610fc190612d13565b60405180910390fd5b6000600c600084815260200190815260200160002060030160006101000a81548160ff0219169083151502179055505050565b600b6020528060005260406000206000915090505481565b61101d611698565b600c600085815260200190815260200160002060030160019054906101000a900460ff1615611078576040517faa44239700000000000000000000000000000000000000000000000000000000815260040160405180910390fd5b6000604051806101600160405280858152602001848152602001838152602001600015158152602001600115158152602001670de0b6b3a76400008152602001670de0b6b3a76400008152602001670de0b6b3a76400008152602001600081526020016000815260200160001515815250905080600c600087815260200190815260200160002060008201518160000155602082015181600101556040820151816002015560608201518160030160006101000a81548160ff02191690831515021790555060808201518160030160016101000a81548160ff02191690831515021790555060a0820151816004015560c0820151816005015560e08201518160060155610100820151816007015561012082015181600801556101408201518160090160006101000a81548160ff0219169083151502179055509050505050505050565b80600c600082815260200190815260200160002060030160009054906101000a900460ff16611220576040517f08c379a000000000000000000000000000000000000000000000000000000000815260040161121790612d13565b60405180910390fd5b60018314158015611232575060028314155b801561123f575060008314155b15611276576040517f2fcd326400000000000000000000000000000000000000000000000000000000815260040160405180910390fd5b600960009054906101000a900473ffffffffffffffffffffffffffffffffffffffff1673ffffffffffffffffffffffffffffffffffffffff166323b872dd3330876040518463ffffffff1660e01b81526004016112d593929190612d33565b6020604051808303816000875af11580156112f4573d6000803e3d6000fd5b505050506040513d601f19601f820116820180604052508101906113189190612d96565b5060006113236117da565b90506113323384878785611907565b61133d858486611a6a565b5050505050565b80600c600082815260200190815260200160002060030160009054906101000a900460ff16156113a9576040517f08c379a00000000000000000000000000000000000000000000000000000000081526004016113a090612c69565b60405180910390fd5b6000600c600084815260200190815260200160002060080154905080600d60003373ffffffffffffffffffffffffffffffffffffffff1673ffffffffffffffffffffffffffffffffffffffff16815260200190815260200160002060008581526020019081526020016000206003015414611450576040517f6ab2556a00000000000000000000000000000000000000000000000000000000815260040160405180910390fd5b61145983611c4b565b60006114658483611e34565b9050600960009054906101000a900473ffffffffffffffffffffffffffffffffffffffff1673ffffffffffffffffffffffffffffffffffffffff1663a9059cbb33836040518363ffffffff1660e01b81526004016114c4929190612dc3565b6020604051808303816000875af11580156114e3573d6000803e3d6000fd5b505050506040513d601f19601f820116820180604052508101906115079190612d96565b5050505050565b611516611f5b565b60056040518060600160405290816000820154815260200160018201548152602001600282015481525050905090565b600960009054906101000a900473ffffffffffffffffffffffffffffffffffffffff1681565b6000600c6000838152602001908152602001600020600201549050919050565b600860009054906101000a900473ffffffffffffffffffffffffffffffffffffffff1681565b600d602052816000526040600020602052806000526040600020600091509150508060000160009054906101000a900473ffffffffffffffffffffffffffffffffffffffff16908060010154908060020154908060030154908060040154905085565b61161d611698565b600073ffffffffffffffffffffffffffffffffffffffff168173ffffffffffffffffffffffffffffffffffffffff160361168c576040517f08c379a000000000000000000000000000000000000000000000000000000000815260040161168390612e5e565b60405180910390fd5b61169581611716565b50565b6116a0611f32565b73ffffffffffffffffffffffffffffffffffffffff166116be610ddf565b73ffffffffffffffffffffffffffffffffffffffff1614611714576040517f08c379a000000000000000000000000000000000000000000000000000000000815260040161170b90612eca565b60405180910390fd5b565b60008060009054906101000a900473ffffffffffffffffffffffffffffffffffffffff169050816000806101000a81548173ffffffffffffffffffffffffffffffffffffffff021916908373ffffffffffffffffffffffffffffffffffffffff1602179055508173ffffffffffffffffffffffffffffffffffffffff168173ffffffffffffffffffffffffffffffffffffffff167f8be0079c531659141344cd1fd0a4f28419497f9722a3daafe3b4186f6b6457e060405160405180910390a35050565b600080600860009054906101000a900473ffffffffffffffffffffffffffffffffffffffff1673ffffffffffffffffffffffffffffffffffffffff16636c1438626040518163ffffffff1660e01b8152600401602060405180830381865afa15801561184a573d6000803e3d6000fd5b505050506040513d601f19601f8201168201806040525081019061186e9190612b3c565b9050600860009054906101000a900473ffffffffffffffffffffffffffffffffffffffff1673ffffffffffffffffffffffffffffffffffffffff1663d204c45e3360016040518363ffffffff1660e01b81526004016118ce929190612bed565b600060405180830381600087803b1580156118e857600080fd5b505af11580156118fc573d6000803e3d6000fd5b505050508091505090565b60006040518060a001604052808773ffffffffffffffffffffffffffffffffffffffff16815260200186815260200185815260200184815260200183815250905080600d60003373ffffffffffffffffffffffffffffffffffffffff1673ffffffffffffffffffffffffffffffffffffffff168152602001908152602001600020600087815260200190815260200160002060008201518160000160006101000a81548173ffffffffffffffffffffffffffffffffffffffff021916908373ffffffffffffffffffffffffffffffffffffffff160217905550602082015181600101556040820151816002015560608201518160030155608082015181600401559050506001600b60003373ffffffffffffffffffffffffffffffffffffffff1673ffffffffffffffffffffffffffffffffffffffff1681526020019081526020016000206000828254611a5b9190612f19565b92505081905550505050505050565b60018103611aa45782600c60008481526020019081526020016000206005016000828254611a989190612f19565b92505081905550611ad2565b82600c60008481526020019081526020016000206006016000828254611aca9190612f19565b925050819055505b82600c60008481526020019081526020016000206007016000828254611af89190612f19565b925050819055506000600c60008481526020019081526020016000206005015490506000600c60008581526020019081526020016000206006015490506000600c60008681526020019081526020016000206004015490506000612710836127108487611b659190612f19565b611b6f9190612f4d565b611b799190612fbe565b611b839190612f19565b905080600c6000888152602001908152602001600020600201819055506000612710856127108587611bb59190612f19565b611bbf9190612f4d565b611bc99190612fbe565b611bd39190612f19565b905080600c6000898152602001908152602001600020600101819055506000612710846127108888611c059190612f19565b611c0f9190612f4d565b611c199190612fbe565b611c239190612f19565b905080600c60008a815260200190815260200160002060000181905550505050505050505050565b6000600d60003373ffffffffffffffffffffffffffffffffffffffff1673ffffffffffffffffffffffffffffffffffffffff16815260200190815260200160002060008381526020019081526020016000206004015490503373ffffffffffffffffffffffffffffffffffffffff16600860009054906101000a900473ffffffffffffffffffffffffffffffffffffffff1673ffffffffffffffffffffffffffffffffffffffff16636352211e836040518263ffffffff1660e01b8152600401611d159190612002565b602060405180830381865afa158015611d32573d6000803e3d6000fd5b505050506040513d601f19601f82011682018060405250810190611d569190613004565b73ffffffffffffffffffffffffffffffffffffffff1614611da3576040517f99fbf1fd00000000000000000000000000000000000000000000000000000000815260040160405180910390fd5b600860009054906101000a900473ffffffffffffffffffffffffffffffffffffffff1673ffffffffffffffffffffffffffffffffffffffff166342966c68826040518263ffffffff1660e01b8152600401611dfe9190612002565b600060405180830381600087803b158015611e1857600080fd5b505af1158015611e2c573d6000803e3d6000fd5b505050505050565b600080600d60003373ffffffffffffffffffffffffffffffffffffffff1673ffffffffffffffffffffffffffffffffffffffff1681526020019081526020016000206000858152602001908152602001600020600201549050600060018403611eb557600c6000868152602001908152602001600020600101549050611ef6565b60028403611edb57600c6000868152602001908152602001600020600201549050611ef5565b600c60008681526020019081526020016000206000015490505b5b6000671bc16d674ec800006127108385611f109190612f4d565b611f1a9190612fbe565b611f249190613031565b905080935050505092915050565b600033905090565b60405180606001604052806060815260200160608152602001606081525090565b60405180606001604052806000815260200160008152602001600081525090565b6000604051905090565b600080fd5b600080fd5b6000819050919050565b611fa381611f90565b8114611fae57600080fd5b50565b600081359050611fc081611f9a565b92915050565b600060208284031215611fdc57611fdb611f86565b5b6000611fea84828501611fb1565b91505092915050565b611ffc81611f90565b82525050565b60006020820190506120176000830184611ff3565b92915050565b600081519050919050565b600082825260208201905092915050565b60005b8381101561205757808201518184015260208101905061203c565b60008484015250505050565b6000601f19601f8301169050919050565b600061207f8261201d565b6120898185612028565b9350612099818560208601612039565b6120a281612063565b840191505092915050565b600060208201905081810360008301526120c78184612074565b905092915050565b60008115159050919050565b6120e4816120cf565b82525050565b600061016082019050612100600083018e611ff3565b61210d602083018d611ff3565b61211a604083018c611ff3565b612127606083018b6120db565b612134608083018a6120db565b61214160a0830189611ff3565b61214e60c0830188611ff3565b61215b60e0830187611ff3565b612169610100830186611ff3565b612177610120830185611ff3565b6121856101408301846120db565b9c9b505050505050505050505050565b600073ffffffffffffffffffffffffffffffffffffffff82169050919050565b6000819050919050565b60006121da6121d56121d084612195565b6121b5565b612195565b9050919050565b60006121ec826121bf565b9050919050565b60006121fe826121e1565b9050919050565b61220e816121f3565b82525050565b60006020820190506122296000830184612205565b92915050565b600080fd5b600080fd5b7f4e487b7100000000000000000000000000000000000000000000000000000000600052604160045260246000fd5b61227182612063565b810181811067ffffffffffffffff821117156122905761228f612239565b5b80604052505050565b60006122a3611f7c565b90506122af8282612268565b919050565b600067ffffffffffffffff8211156122cf576122ce612239565b5b6122d882612063565b9050602081019050919050565b82818337600083830152505050565b6000612307612302846122b4565b612299565b90508281526020810184848401111561232357612322612234565b5b61232e8482856122e5565b509392505050565b600082601f83011261234b5761234a61222f565b5b813561235b8482602086016122f4565b91505092915050565b60008060006060848603121561237d5761237c611f86565b5b600084013567ffffffffffffffff81111561239b5761239a611f8b565b5b6123a786828701612336565b935050602084013567ffffffffffffffff8111156123c8576123c7611f8b565b5b6123d486828701612336565b925050604084013567ffffffffffffffff8111156123f5576123f4611f8b565b5b61240186828701612336565b9150509250925092565b600082825260208201905092915050565b60006124278261201d565b612431818561240b565b9350612441818560208601612039565b61244a81612063565b840191505092915050565b60006060830160008301518482036000860152612472828261241c565b9150506020830151848203602086015261248c828261241c565b915050604083015184820360408601526124a6828261241c565b9150508091505092915050565b600060208201905081810360008301526124cd8184612455565b905092915050565b6000602082840312156124eb576124ea611f86565b5b600082013567ffffffffffffffff81111561250957612508611f8b565b5b61251584828501612336565b91505092915050565b600061252982612195565b9050919050565b6125398161251e565b82525050565b60006020820190506125546000830184612530565b92915050565b60008060006060848603121561257357612572611f86565b5b600061258186828701611fb1565b935050602061259286828701611fb1565b92505060406125a386828701611fb1565b9150509250925092565b6125b68161251e565b81146125c157600080fd5b50565b6000813590506125d3816125ad565b92915050565b6000806000606084860312156125f2576125f1611f86565b5b6000612600868287016125c4565b935050602084013567ffffffffffffffff81111561262157612620611f8b565b5b61262d86828701612336565b925050604061263e86828701611fb1565b9150509250925092565b60006020828403121561265e5761265d611f86565b5b600061266c848285016125c4565b91505092915050565b6000806000806080858703121561268f5761268e611f86565b5b600061269d87828801611fb1565b94505060206126ae87828801611fb1565b93505060406126bf87828801611fb1565b92505060606126d087828801611fb1565b91505092959194509250565b6126e581611f90565b82525050565b60608201600082015161270160008501826126dc565b50602082015161271460208501826126dc565b50604082015161272760408501826126dc565b50505050565b600060608201905061274260008301846126eb565b92915050565b6000612753826121e1565b9050919050565b61276381612748565b82525050565b600060208201905061277e600083018461275a565b92915050565b600061278f826121e1565b9050919050565b61279f81612784565b82525050565b60006020820190506127ba6000830184612796565b92915050565b600080604083850312156127d7576127d6611f86565b5b60006127e5858286016125c4565b92505060206127f685828601611fb1565b9150509250929050565b600060a0820190506128156000830188612530565b6128226020830187611ff3565b61282f6040830186611ff3565b61283c6060830185611ff3565b6128496080830184611ff3565b9695505050505050565b7f4e487b7100000000000000000000000000000000000000000000000000000000600052602260045260246000fd5b6000600282049050600182168061289a57607f821691505b6020821081036128ad576128ac612853565b5b50919050565b60008190508160005260206000209050919050565b60006020601f8301049050919050565b600082821b905092915050565b6000600883026129157fffffffffffffffffffffffffffffffffffffffffffffffffffffffffffffffff826128d8565b61291f86836128d8565b95508019841693508086168417925050509392505050565b600061295261294d61294884611f90565b6121b5565b611f90565b9050919050565b6000819050919050565b61296c83612937565b61298061297882612959565b8484546128e5565b825550505050565b600090565b612995612988565b6129a0818484612963565b505050565b5b818110156129c4576129b960008261298d565b6001810190506129a6565b5050565b601f821115612a09576129da816128b3565b6129e3846128c8565b810160208510156129f2578190505b612a066129fe856128c8565b8301826129a5565b50505b505050565b600082821c905092915050565b6000612a2c60001984600802612a0e565b1980831691505092915050565b6000612a458383612a1b565b9150826002028217905092915050565b612a5e8261201d565b67ffffffffffffffff811115612a7757612a76612239565b5b612a818254612882565b612a8c8282856129c8565b600060209050601f831160018114612abf5760008415612aad578287015190505b612ab78582612a39565b865550612b1f565b601f198416612acd866128b3565b60005b82811015612af557848901518255600182019150602085019450602081019050612ad0565b86831015612b125784890151612b0e601f891682612a1b565b8355505b6001600288020188555050505b505050505050565b600081519050612b3681611f9a565b92915050565b600060208284031215612b5257612b51611f86565b5b6000612b6084828501612b27565b91505092915050565b60008154612b7681612882565b612b808186612028565b94506001821660008114612b9b5760018114612bb157612be4565b60ff198316865281151560200286019350612be4565b612bba856128b3565b60005b83811015612bdc57815481890152600182019150602081019050612bbd565b808801955050505b50505092915050565b6000604082019050612c026000830185612530565b8181036020830152612c148184612b69565b90509392505050565b7f426574206973206f70656e000000000000000000000000000000000000000000600082015250565b6000612c53600b83612028565b9150612c5e82612c1d565b602082019050919050565b60006020820190508181036000830152612c8281612c46565b9050919050565b6000606082019050612c9e6000830186612530565b8181036020830152612cb08185612074565b9050612cbf6040830184611ff3565b949350505050565b7f42657420697320636c6f73656400000000000000000000000000000000000000600082015250565b6000612cfd600d83612028565b9150612d0882612cc7565b602082019050919050565b60006020820190508181036000830152612d2c81612cf0565b9050919050565b6000606082019050612d486000830186612530565b612d556020830185612530565b612d626040830184611ff3565b949350505050565b612d73816120cf565b8114612d7e57600080fd5b50565b600081519050612d9081612d6a565b92915050565b600060208284031215612dac57612dab611f86565b5b6000612dba84828501612d81565b91505092915050565b6000604082019050612dd86000830185612530565b612de56020830184611ff3565b9392505050565b7f4f776e61626c653a206e6577206f776e657220697320746865207a65726f206160008201527f6464726573730000000000000000000000000000000000000000000000000000602082015250565b6000612e48602683612028565b9150612e5382612dec565b604082019050919050565b60006020820190508181036000830152612e7781612e3b565b9050919050565b7f4f776e61626c653a2063616c6c6572206973206e6f7420746865206f776e6572600082015250565b6000612eb4602083612028565b9150612ebf82612e7e565b602082019050919050565b60006020820190508181036000830152612ee381612ea7565b9050919050565b7f4e487b7100000000000000000000000000000000000000000000000000000000600052601160045260246000fd5b6000612f2482611f90565b9150612f2f83611f90565b9250828201905080821115612f4757612f46612eea565b5b92915050565b6000612f5882611f90565b9150612f6383611f90565b9250828202612f7181611f90565b91508282048414831517612f8857612f87612eea565b5b5092915050565b7f4e487b7100000000000000000000000000000000000000000000000000000000600052601260045260246000fd5b6000612fc982611f90565b9150612fd483611f90565b925082612fe457612fe3612f8f565b5b828204905092915050565b600081519050612ffe816125ad565b92915050565b60006020828403121561301a57613019611f86565b5b600061302884828501612fef565b91505092915050565b600061303c82611f90565b915061304783611f90565b925082820390508181111561305f5761305e612eea565b5b9291505056fea264697066735822122099e27fd5b5340a8420304a949f8d0855bf49364103170dce76b04c9c918c2fc964736f6c6343000812003360806040523480156200001157600080fd5b506040518060400160405280600e81526020017f4265744f6e436861696e204e46540000000000000000000000000000000000008152506040518060400160405280600781526020017f424f43204e46540000000000000000000000000000000000000000000000000081525081600090816200008f919062000412565b508060019081620000a1919062000412565b505050620000c4620000b8620000ca60201b60201c565b620000d260201b60201c565b620004f9565b600033905090565b6000600b60009054906101000a900473ffffffffffffffffffffffffffffffffffffffff16905081600b60006101000a81548173ffffffffffffffffffffffffffffffffffffffff021916908373ffffffffffffffffffffffffffffffffffffffff1602179055508173ffffffffffffffffffffffffffffffffffffffff168173ffffffffffffffffffffffffffffffffffffffff167f8be0079c531659141344cd1fd0a4f28419497f9722a3daafe3b4186f6b6457e060405160405180910390a35050565b600081519050919050565b7f4e487b7100000000000000000000000000000000000000000000000000000000600052604160045260246000fd5b7f4e487b7100000000000000000000000000000000000000000000000000000000600052602260045260246000fd5b600060028204905060018216806200021a57607f821691505b60208210810362000230576200022f620001d2565b5b50919050565b60008190508160005260206000209050919050565b60006020601f8301049050919050565b600082821b905092915050565b6000600883026200029a7fffffffffffffffffffffffffffffffffffffffffffffffffffffffffffffffff826200025b565b620002a686836200025b565b95508019841693508086168417925050509392505050565b6000819050919050565b6000819050919050565b6000620002f3620002ed620002e784620002be565b620002c8565b620002be565b9050919050565b6000819050919050565b6200030f83620002d2565b620003276200031e82620002fa565b84845462000268565b825550505050565b600090565b6200033e6200032f565b6200034b81848462000304565b505050565b5b8181101562000373576200036760008262000334565b60018101905062000351565b5050565b601f821115620003c2576200038c8162000236565b62000397846200024b565b81016020851015620003a7578190505b620003bf620003b6856200024b565b83018262000350565b50505b505050565b600082821c905092915050565b6000620003e760001984600802620003c7565b1980831691505092915050565b6000620004028383620003d4565b9150826002028217905092915050565b6200041d8262000198565b67ffffffffffffffff811115620004395762000438620001a3565b5b62000445825462000201565b6200045282828562000377565b600060209050601f8311600181146200048a576000841562000475578287015190505b620004818582620003f4565b865550620004f1565b601f1984166200049a8662000236565b60005b82811015620004c4578489015182556001820191506020850194506020810190506200049d565b86831015620004e45784890151620004e0601f891682620003d4565b8355505b6001600288020188555050505b505050505050565b613a2a80620005096000396000f3fe608060405234801561001057600080fd5b50600436106101425760003560e01c80636c143862116100b8578063a22cb4651161007c578063a22cb46514610377578063b88d4fde14610393578063c87b56dd146103af578063d204c45e146103df578063e985e9c5146103fb578063f2fde38b1461042b57610142565b80636c143862146102e357806370a0823114610301578063715018a6146103315780638da5cb5b1461033b57806395d89b411461035957610142565b806323b872dd1161010a57806323b872dd146101ff5780632f745c591461021b57806342842e0e1461024b57806342966c68146102675780634f6ccce7146102835780636352211e146102b357610142565b806301ffc9a71461014757806306fdde0314610177578063081812fc14610195578063095ea7b3146101c557806318160ddd146101e1575b600080fd5b610161600480360381019061015c91906125a4565b610447565b60405161016e91906125ec565b60405180910390f35b61017f610459565b60405161018c9190612697565b60405180910390f35b6101af60048036038101906101aa91906126ef565b6104eb565b6040516101bc919061275d565b60405180910390f35b6101df60048036038101906101da91906127a4565b610531565b005b6101e9610648565b6040516101f691906127f3565b60405180910390f35b6102196004803603810190610214919061280e565b610655565b005b610235600480360381019061023091906127a4565b6106b5565b60405161024291906127f3565b60405180910390f35b6102656004803603810190610260919061280e565b61075a565b005b610281600480360381019061027c91906126ef565b61077a565b005b61029d600480360381019061029891906126ef565b6107d6565b6040516102aa91906127f3565b60405180910390f35b6102cd60048036038101906102c891906126ef565b610847565b6040516102da919061275d565b60405180910390f35b6102eb6108cd565b6040516102f891906127f3565b60405180910390f35b61031b60048036038101906103169190612861565b6108de565b60405161032891906127f3565b60405180910390f35b610339610995565b005b6103436109a9565b604051610350919061275d565b60405180910390f35b6103616109d3565b60405161036e9190612697565b60405180910390f35b610391600480360381019061038c91906128ba565b610a65565b005b6103ad60048036038101906103a89190612a2f565b610a7b565b005b6103c960048036038101906103c491906126ef565b610add565b6040516103d69190612697565b60405180910390f35b6103f960048036038101906103f49190612b53565b610aef565b005b61041560048036038101906104109190612baf565b610b28565b60405161042291906125ec565b60405180910390f35b61044560048036038101906104409190612861565b610bbc565b005b600061045282610c3f565b9050919050565b60606000805461046890612c1e565b80601f016020809104026020016040519081016040528092919081815260200182805461049490612c1e565b80156104e15780601f106104b6576101008083540402835291602001916104e1565b820191906000526020600020905b8154815290600101906020018083116104c457829003601f168201915b5050505050905090565b60006104f682610cb9565b6004600083815260200190815260200160002060009054906101000a900473ffffffffffffffffffffffffffffffffffffffff169050919050565b600061053c82610847565b90508073ffffffffffffffffffffffffffffffffffffffff168373ffffffffffffffffffffffffffffffffffffffff16036105ac576040517f08c379a00000000000000000000000000000000000000000000000000000000081526004016105a390612cc1565b60405180910390fd5b8073ffffffffffffffffffffffffffffffffffffffff166105cb610d04565b73ffffffffffffffffffffffffffffffffffffffff1614806105fa57506105f9816105f4610d04565b610b28565b5b610639576040517f08c379a000000000000000000000000000000000000000000000000000000000815260040161063090612d53565b60405180910390fd5b6106438383610d0c565b505050565b6000600880549050905090565b610666610660610d04565b82610dc5565b6106a5576040517f08c379a000000000000000000000000000000000000000000000000000000000815260040161069c90612de5565b60405180910390fd5b6106b0838383610e5a565b505050565b60006106c0836108de565b8210610701576040517f08c379a00000000000000000000000000000000000000000000000000000000081526004016106f890612e77565b60405180910390fd5b600660008473ffffffffffffffffffffffffffffffffffffffff1673ffffffffffffffffffffffffffffffffffffffff168152602001908152602001600020600083815260200190815260200160002054905092915050565b61077583838360405180602001604052806000815250610a7b565b505050565b61078b610785610d04565b82610dc5565b6107ca576040517f08c379a00000000000000000000000000000000000000000000000000000000081526004016107c190612de5565b60405180910390fd5b6107d381611153565b50565b60006107e0610648565b8210610821576040517f08c379a000000000000000000000000000000000000000000000000000000000815260040161081890612f09565b60405180910390fd5b6008828154811061083557610834612f29565b5b90600052602060002001549050919050565b6000806108538361115f565b9050600073ffffffffffffffffffffffffffffffffffffffff168173ffffffffffffffffffffffffffffffffffffffff16036108c4576040517f08c379a00000000000000000000000000000000000000000000000000000000081526004016108bb90612fa4565b60405180910390fd5b80915050919050565b60006108d9600c61119c565b905090565b60008073ffffffffffffffffffffffffffffffffffffffff168273ffffffffffffffffffffffffffffffffffffffff160361094e576040517f08c379a000000000000000000000000000000000000000000000000000000000815260040161094590613036565b60405180910390fd5b600360008373ffffffffffffffffffffffffffffffffffffffff1673ffffffffffffffffffffffffffffffffffffffff168152602001908152602001600020549050919050565b61099d6111aa565b6109a76000611228565b565b6000600b60009054906101000a900473ffffffffffffffffffffffffffffffffffffffff16905090565b6060600180546109e290612c1e565b80601f0160208091040260200160405190810160405280929190818152602001828054610a0e90612c1e565b8015610a5b5780601f10610a3057610100808354040283529160200191610a5b565b820191906000526020600020905b815481529060010190602001808311610a3e57829003601f168201915b5050505050905090565b610a77610a70610d04565b83836112ee565b5050565b610a8c610a86610d04565b83610dc5565b610acb576040517f08c379a0000000000000000000000000000000000000000000000000000000008152600401610ac290612de5565b60405180910390fd5b610ad78484848461145a565b50505050565b6060610ae8826114b6565b9050919050565b610af76111aa565b6000610b03600c61119c565b9050610b0f600c6115c8565b610b1983826115de565b610b2381836115fc565b505050565b6000600560008473ffffffffffffffffffffffffffffffffffffffff1673ffffffffffffffffffffffffffffffffffffffff16815260200190815260200160002060008373ffffffffffffffffffffffffffffffffffffffff1673ffffffffffffffffffffffffffffffffffffffff16815260200190815260200160002060009054906101000a900460ff16905092915050565b610bc46111aa565b600073ffffffffffffffffffffffffffffffffffffffff168173ffffffffffffffffffffffffffffffffffffffff1603610c33576040517f08c379a0000000000000000000000000000000000000000000000000000000008152600401610c2a906130c8565b60405180910390fd5b610c3c81611228565b50565b60007f780e9d63000000000000000000000000000000000000000000000000000000007bffffffffffffffffffffffffffffffffffffffffffffffffffffffff1916827bffffffffffffffffffffffffffffffffffffffffffffffffffffffff19161480610cb25750610cb182611669565b5b9050919050565b610cc28161174b565b610d01576040517f08c379a0000000000000000000000000000000000000000000000000000000008152600401610cf890612fa4565b60405180910390fd5b50565b600033905090565b816004600083815260200190815260200160002060006101000a81548173ffffffffffffffffffffffffffffffffffffffff021916908373ffffffffffffffffffffffffffffffffffffffff160217905550808273ffffffffffffffffffffffffffffffffffffffff16610d7f83610847565b73ffffffffffffffffffffffffffffffffffffffff167f8c5be1e5ebec7d5bd14f71427d1e84f3dd0314c0f7b2291e5b200ac8c7c3b92560405160405180910390a45050565b600080610dd183610847565b90508073ffffffffffffffffffffffffffffffffffffffff168473ffffffffffffffffffffffffffffffffffffffff161480610e135750610e128185610b28565b5b80610e5157508373ffffffffffffffffffffffffffffffffffffffff16610e39846104eb565b73ffffffffffffffffffffffffffffffffffffffff16145b91505092915050565b8273ffffffffffffffffffffffffffffffffffffffff16610e7a82610847565b73ffffffffffffffffffffffffffffffffffffffff1614610ed0576040517f08c379a0000000000000000000000000000000000000000000000000000000008152600401610ec79061315a565b60405180910390fd5b600073ffffffffffffffffffffffffffffffffffffffff168273ffffffffffffffffffffffffffffffffffffffff1603610f3f576040517f08c379a0000000000000000000000000000000000000000000000000000000008152600401610f36906131ec565b60405180910390fd5b610f4c838383600161178c565b8273ffffffffffffffffffffffffffffffffffffffff16610f6c82610847565b73ffffffffffffffffffffffffffffffffffffffff1614610fc2576040517f08c379a0000000000000000000000000000000000000000000000000000000008152600401610fb99061315a565b60405180910390fd5b6004600082815260200190815260200160002060006101000a81549073ffffffffffffffffffffffffffffffffffffffff02191690556001600360008573ffffffffffffffffffffffffffffffffffffffff1673ffffffffffffffffffffffffffffffffffffffff168152602001908152602001600020600082825403925050819055506001600360008473ffffffffffffffffffffffffffffffffffffffff1673ffffffffffffffffffffffffffffffffffffffff16815260200190815260200160002060008282540192505081905550816002600083815260200190815260200160002060006101000a81548173ffffffffffffffffffffffffffffffffffffffff021916908373ffffffffffffffffffffffffffffffffffffffff160217905550808273ffffffffffffffffffffffffffffffffffffffff168473ffffffffffffffffffffffffffffffffffffffff167fddf252ad1be2c89b69c2b068fc378daa952ba7f163c4a11628f55a4df523b3ef60405160405180910390a461114e838383600161179e565b505050565b61115c816117a4565b50565b60006002600083815260200190815260200160002060009054906101000a900473ffffffffffffffffffffffffffffffffffffffff169050919050565b600081600001549050919050565b6111b2610d04565b73ffffffffffffffffffffffffffffffffffffffff166111d06109a9565b73ffffffffffffffffffffffffffffffffffffffff1614611226576040517f08c379a000000000000000000000000000000000000000000000000000000000815260040161121d90613258565b60405180910390fd5b565b6000600b60009054906101000a900473ffffffffffffffffffffffffffffffffffffffff16905081600b60006101000a81548173ffffffffffffffffffffffffffffffffffffffff021916908373ffffffffffffffffffffffffffffffffffffffff1602179055508173ffffffffffffffffffffffffffffffffffffffff168173ffffffffffffffffffffffffffffffffffffffff167f8be0079c531659141344cd1fd0a4f28419497f9722a3daafe3b4186f6b6457e060405160405180910390a35050565b8173ffffffffffffffffffffffffffffffffffffffff168373ffffffffffffffffffffffffffffffffffffffff160361135c576040517f08c379a0000000000000000000000000000000000000000000000000000000008152600401611353906132c4565b60405180910390fd5b80600560008573ffffffffffffffffffffffffffffffffffffffff1673ffffffffffffffffffffffffffffffffffffffff16815260200190815260200160002060008473ffffffffffffffffffffffffffffffffffffffff1673ffffffffffffffffffffffffffffffffffffffff16815260200190815260200160002060006101000a81548160ff0219169083151502179055508173ffffffffffffffffffffffffffffffffffffffff168373ffffffffffffffffffffffffffffffffffffffff167f17307eab39ab6107e8899845ad3d59bd9653f200f220920489ca2b5937696c318360405161144d91906125ec565b60405180910390a3505050565b611465848484610e5a565b611471848484846117f7565b6114b0576040517f08c379a00000000000000000000000000000000000000000000000000000000081526004016114a790613356565b60405180910390fd5b50505050565b60606114c182610cb9565b6000600a600084815260200190815260200160002080546114e190612c1e565b80601f016020809104026020016040519081016040528092919081815260200182805461150d90612c1e565b801561155a5780601f1061152f5761010080835404028352916020019161155a565b820191906000526020600020905b81548152906001019060200180831161153d57829003601f168201915b50505050509050600061156b61197e565b905060008151036115805781925050506115c3565b6000825111156115b557808260405160200161159d9291906133b2565b604051602081830303815290604052925050506115c3565b6115be84611995565b925050505b919050565b6001816000016000828254019250508190555050565b6115f88282604051806020016040528060008152506119fd565b5050565b6116058261174b565b611644576040517f08c379a000000000000000000000000000000000000000000000000000000000815260040161163b90613448565b60405180910390fd5b80600a600084815260200190815260200160002090816116649190613614565b505050565b60007f80ac58cd000000000000000000000000000000000000000000000000000000007bffffffffffffffffffffffffffffffffffffffffffffffffffffffff1916827bffffffffffffffffffffffffffffffffffffffffffffffffffffffff1916148061173457507f5b5e139f000000000000000000000000000000000000000000000000000000007bffffffffffffffffffffffffffffffffffffffffffffffffffffffff1916827bffffffffffffffffffffffffffffffffffffffffffffffffffffffff1916145b80611744575061174382611a58565b5b9050919050565b60008073ffffffffffffffffffffffffffffffffffffffff1661176d8361115f565b73ffffffffffffffffffffffffffffffffffffffff1614159050919050565b61179884848484611ac2565b50505050565b50505050565b6117ad81611c20565b6000600a600083815260200190815260200160002080546117cd90612c1e565b9050146117f457600a600082815260200190815260200160002060006117f391906124db565b5b50565b60006118188473ffffffffffffffffffffffffffffffffffffffff16611d6e565b15611971578373ffffffffffffffffffffffffffffffffffffffff1663150b7a02611841610d04565b8786866040518563ffffffff1660e01b8152600401611863949392919061373b565b6020604051808303816000875af192505050801561189f57506040513d601f19601f8201168201806040525081019061189c919061379c565b60015b611921573d80600081146118cf576040519150601f19603f3d011682016040523d82523d6000602084013e6118d4565b606091505b506000815103611919576040517f08c379a000000000000000000000000000000000000000000000000000000000815260040161191090613356565b60405180910390fd5b805181602001fd5b63150b7a0260e01b7bffffffffffffffffffffffffffffffffffffffffffffffffffffffff1916817bffffffffffffffffffffffffffffffffffffffffffffffffffffffff191614915050611976565b600190505b949350505050565b606060405180602001604052806000815250905090565b60606119a082610cb9565b60006119aa61197e565b905060008151116119ca57604051806020016040528060008152506119f5565b806119d484611d91565b6040516020016119e59291906133b2565b6040516020818303038152906040525b915050919050565b611a078383611e5f565b611a1460008484846117f7565b611a53576040517f08c379a0000000000000000000000000000000000000000000000000000000008152600401611a4a90613356565b60405180910390fd5b505050565b60007f01ffc9a7000000000000000000000000000000000000000000000000000000007bffffffffffffffffffffffffffffffffffffffffffffffffffffffff1916827bffffffffffffffffffffffffffffffffffffffffffffffffffffffff1916149050919050565b611ace8484848461207c565b6001811115611b12576040517f08c379a0000000000000000000000000000000000000000000000000000000008152600401611b099061383b565b60405180910390fd5b6000829050600073ffffffffffffffffffffffffffffffffffffffff168573ffffffffffffffffffffffffffffffffffffffff1603611b5957611b5481612082565b611b98565b8373ffffffffffffffffffffffffffffffffffffffff168573ffffffffffffffffffffffffffffffffffffffff1614611b9757611b9685826120cb565b5b5b600073ffffffffffffffffffffffffffffffffffffffff168473ffffffffffffffffffffffffffffffffffffffff1603611bda57611bd581612238565b611c19565b8473ffffffffffffffffffffffffffffffffffffffff168473ffffffffffffffffffffffffffffffffffffffff1614611c1857611c178482612309565b5b5b5050505050565b6000611c2b82610847565b9050611c3b81600084600161178c565b611c4482610847565b90506004600083815260200190815260200160002060006101000a81549073ffffffffffffffffffffffffffffffffffffffff02191690556001600360008373ffffffffffffffffffffffffffffffffffffffff1673ffffffffffffffffffffffffffffffffffffffff168152602001908152602001600020600082825403925050819055506002600083815260200190815260200160002060006101000a81549073ffffffffffffffffffffffffffffffffffffffff021916905581600073ffffffffffffffffffffffffffffffffffffffff168273ffffffffffffffffffffffffffffffffffffffff167fddf252ad1be2c89b69c2b068fc378daa952ba7f163c4a11628f55a4df523b3ef60405160405180910390a4611d6a81600084600161179e565b5050565b6000808273ffffffffffffffffffffffffffffffffffffffff163b119050919050565b606060006001611da084612388565b01905060008167ffffffffffffffff811115611dbf57611dbe612904565b5b6040519080825280601f01601f191660200182016040528015611df15781602001600182028036833780820191505090505b509050600082602001820190505b600115611e54578080600190039150507f3031323334353637383961626364656600000000000000000000000000000000600a86061a8153600a8581611e4857611e4761385b565b5b04945060008503611dff575b819350505050919050565b600073ffffffffffffffffffffffffffffffffffffffff168273ffffffffffffffffffffffffffffffffffffffff1603611ece576040517f08c379a0000000000000000000000000000000000000000000000000000000008152600401611ec5906138d6565b60405180910390fd5b611ed78161174b565b15611f17576040517f08c379a0000000000000000000000000000000000000000000000000000000008152600401611f0e90613942565b60405180910390fd5b611f2560008383600161178c565b611f2e8161174b565b15611f6e576040517f08c379a0000000000000000000000000000000000000000000000000000000008152600401611f6590613942565b60405180910390fd5b6001600360008473ffffffffffffffffffffffffffffffffffffffff1673ffffffffffffffffffffffffffffffffffffffff16815260200190815260200160002060008282540192505081905550816002600083815260200190815260200160002060006101000a81548173ffffffffffffffffffffffffffffffffffffffff021916908373ffffffffffffffffffffffffffffffffffffffff160217905550808273ffffffffffffffffffffffffffffffffffffffff16600073ffffffffffffffffffffffffffffffffffffffff167fddf252ad1be2c89b69c2b068fc378daa952ba7f163c4a11628f55a4df523b3ef60405160405180910390a461207860008383600161179e565b5050565b50505050565b6008805490506009600083815260200190815260200160002081905550600881908060018154018082558091505060019003906000526020600020016000909190919091505550565b600060016120d8846108de565b6120e29190613991565b90506000600760008481526020019081526020016000205490508181146121c7576000600660008673ffffffffffffffffffffffffffffffffffffffff1673ffffffffffffffffffffffffffffffffffffffff168152602001908152602001600020600084815260200190815260200160002054905080600660008773ffffffffffffffffffffffffffffffffffffffff1673ffffffffffffffffffffffffffffffffffffffff168152602001908152602001600020600084815260200190815260200160002081905550816007600083815260200190815260200160002081905550505b6007600084815260200190815260200160002060009055600660008573ffffffffffffffffffffffffffffffffffffffff1673ffffffffffffffffffffffffffffffffffffffff16815260200190815260200160002060008381526020019081526020016000206000905550505050565b6000600160088054905061224c9190613991565b905060006009600084815260200190815260200160002054905060006008838154811061227c5761227b612f29565b5b90600052602060002001549050806008838154811061229e5761229d612f29565b5b9060005260206000200181905550816009600083815260200190815260200160002081905550600960008581526020019081526020016000206000905560088054806122ed576122ec6139c5565b5b6001900381819060005260206000200160009055905550505050565b6000612314836108de565b905081600660008573ffffffffffffffffffffffffffffffffffffffff1673ffffffffffffffffffffffffffffffffffffffff168152602001908152602001600020600083815260200190815260200160002081905550806007600084815260200190815260200160002081905550505050565b600080600090507a184f03e93ff9f4daa797ed6e38ed64bf6a1f01000000000000000083106123e6577a184f03e93ff9f4daa797ed6e38ed64bf6a1f01000000000000000083816123dc576123db61385b565b5b0492506040810190505b6d04ee2d6d415b85acef81000000008310612423576d04ee2d6d415b85acef810000000083816124195761241861385b565b5b0492506020810190505b662386f26fc10000831061245257662386f26fc1000083816124485761244761385b565b5b0492506010810190505b6305f5e100831061247b576305f5e10083816124715761247061385b565b5b0492506008810190505b61271083106124a05761271083816124965761249561385b565b5b0492506004810190505b606483106124c357606483816124b9576124b861385b565b5b0492506002810190505b600a83106124d2576001810190505b80915050919050565b5080546124e790612c1e565b6000825580601f106124f95750612518565b601f016020900490600052602060002090810190612517919061251b565b5b50565b5b8082111561253457600081600090555060010161251c565b5090565b6000604051905090565b600080fd5b600080fd5b60007fffffffff0000000000000000000000000000000000000000000000000000000082169050919050565b6125818161254c565b811461258c57600080fd5b50565b60008135905061259e81612578565b92915050565b6000602082840312156125ba576125b9612542565b5b60006125c88482850161258f565b91505092915050565b60008115159050919050565b6125e6816125d1565b82525050565b600060208201905061260160008301846125dd565b92915050565b600081519050919050565b600082825260208201905092915050565b60005b83811015612641578082015181840152602081019050612626565b60008484015250505050565b6000601f19601f8301169050919050565b600061266982612607565b6126738185612612565b9350612683818560208601612623565b61268c8161264d565b840191505092915050565b600060208201905081810360008301526126b1818461265e565b905092915050565b6000819050919050565b6126cc816126b9565b81146126d757600080fd5b50565b6000813590506126e9816126c3565b92915050565b60006020828403121561270557612704612542565b5b6000612713848285016126da565b91505092915050565b600073ffffffffffffffffffffffffffffffffffffffff82169050919050565b60006127478261271c565b9050919050565b6127578161273c565b82525050565b6000602082019050612772600083018461274e565b92915050565b6127818161273c565b811461278c57600080fd5b50565b60008135905061279e81612778565b92915050565b600080604083850312156127bb576127ba612542565b5b60006127c98582860161278f565b92505060206127da858286016126da565b9150509250929050565b6127ed816126b9565b82525050565b600060208201905061280860008301846127e4565b92915050565b60008060006060848603121561282757612826612542565b5b60006128358682870161278f565b93505060206128468682870161278f565b9250506040612857868287016126da565b9150509250925092565b60006020828403121561287757612876612542565b5b60006128858482850161278f565b91505092915050565b612897816125d1565b81146128a257600080fd5b50565b6000813590506128b48161288e565b92915050565b600080604083850312156128d1576128d0612542565b5b60006128df8582860161278f565b92505060206128f0858286016128a5565b9150509250929050565b600080fd5b600080fd5b7f4e487b7100000000000000000000000000000000000000000000000000000000600052604160045260246000fd5b61293c8261264d565b810181811067ffffffffffffffff8211171561295b5761295a612904565b5b80604052505050565b600061296e612538565b905061297a8282612933565b919050565b600067ffffffffffffffff82111561299a57612999612904565b5b6129a38261264d565b9050602081019050919050565b82818337600083830152505050565b60006129d26129cd8461297f565b612964565b9050828152602081018484840111156129ee576129ed6128ff565b5b6129f98482856129b0565b509392505050565b600082601f830112612a1657612a156128fa565b5b8135612a268482602086016129bf565b91505092915050565b60008060008060808587031215612a4957612a48612542565b5b6000612a578782880161278f565b9450506020612a688782880161278f565b9350506040612a79878288016126da565b925050606085013567ffffffffffffffff811115612a9a57612a99612547565b5b612aa687828801612a01565b91505092959194509250565b600067ffffffffffffffff821115612acd57612acc612904565b5b612ad68261264d565b9050602081019050919050565b6000612af6612af184612ab2565b612964565b905082815260208101848484011115612b1257612b116128ff565b5b612b1d8482856129b0565b509392505050565b600082601f830112612b3a57612b396128fa565b5b8135612b4a848260208601612ae3565b91505092915050565b60008060408385031215612b6a57612b69612542565b5b6000612b788582860161278f565b925050602083013567ffffffffffffffff811115612b9957612b98612547565b5b612ba585828601612b25565b9150509250929050565b60008060408385031215612bc657612bc5612542565b5b6000612bd48582860161278f565b9250506020612be58582860161278f565b9150509250929050565b7f4e487b7100000000000000000000000000000000000000000000000000000000600052602260045260246000fd5b60006002820490506001821680612c3657607f821691505b602082108103612c4957612c48612bef565b5b50919050565b7f4552433732313a20617070726f76616c20746f2063757272656e74206f776e6560008201527f7200000000000000000000000000000000000000000000000000000000000000602082015250565b6000612cab602183612612565b9150612cb682612c4f565b604082019050919050565b60006020820190508181036000830152612cda81612c9e565b9050919050565b7f4552433732313a20617070726f76652063616c6c6572206973206e6f7420746f60008201527f6b656e206f776e6572206f7220617070726f76656420666f7220616c6c000000602082015250565b6000612d3d603d83612612565b9150612d4882612ce1565b604082019050919050565b60006020820190508181036000830152612d6c81612d30565b9050919050565b7f4552433732313a2063616c6c6572206973206e6f7420746f6b656e206f776e6560008201527f72206f7220617070726f76656400000000000000000000000000000000000000602082015250565b6000612dcf602d83612612565b9150612dda82612d73565b604082019050919050565b60006020820190508181036000830152612dfe81612dc2565b9050919050565b7f455243373231456e756d657261626c653a206f776e657220696e646578206f7560008201527f74206f6620626f756e6473000000000000000000000000000000000000000000602082015250565b6000612e61602b83612612565b9150612e6c82612e05565b604082019050919050565b60006020820190508181036000830152612e9081612e54565b9050919050565b7f455243373231456e756d657261626c653a20676c6f62616c20696e646578206f60008201527f7574206f6620626f756e64730000000000000000000000000000000000000000602082015250565b6000612ef3602c83612612565b9150612efe82612e97565b604082019050919050565b60006020820190508181036000830152612f2281612ee6565b9050919050565b7f4e487b7100000000000000000000000000000000000000000000000000000000600052603260045260246000fd5b7f4552433732313a20696e76616c696420746f6b656e2049440000000000000000600082015250565b6000612f8e601883612612565b9150612f9982612f58565b602082019050919050565b60006020820190508181036000830152612fbd81612f81565b9050919050565b7f4552433732313a2061646472657373207a65726f206973206e6f74206120766160008201527f6c6964206f776e65720000000000000000000000000000000000000000000000602082015250565b6000613020602983612612565b915061302b82612fc4565b604082019050919050565b6000602082019050818103600083015261304f81613013565b9050919050565b7f4f776e61626c653a206e6577206f776e657220697320746865207a65726f206160008201527f6464726573730000000000000000000000000000000000000000000000000000602082015250565b60006130b2602683612612565b91506130bd82613056565b604082019050919050565b600060208201905081810360008301526130e1816130a5565b9050919050565b7f4552433732313a207472616e736665722066726f6d20696e636f72726563742060008201527f6f776e6572000000000000000000000000000000000000000000000000000000602082015250565b6000613144602583612612565b915061314f826130e8565b604082019050919050565b6000602082019050818103600083015261317381613137565b9050919050565b7f4552433732313a207472616e7366657220746f20746865207a65726f2061646460008201527f7265737300000000000000000000000000000000000000000000000000000000602082015250565b60006131d6602483612612565b91506131e18261317a565b604082019050919050565b60006020820190508181036000830152613205816131c9565b9050919050565b7f4f776e61626c653a2063616c6c6572206973206e6f7420746865206f776e6572600082015250565b6000613242602083612612565b915061324d8261320c565b602082019050919050565b6000602082019050818103600083015261327181613235565b9050919050565b7f4552433732313a20617070726f766520746f2063616c6c657200000000000000600082015250565b60006132ae601983612612565b91506132b982613278565b602082019050919050565b600060208201905081810360008301526132dd816132a1565b9050919050565b7f4552433732313a207472616e7366657220746f206e6f6e20455243373231526560008201527f63656976657220696d706c656d656e7465720000000000000000000000000000602082015250565b6000613340603283612612565b915061334b826132e4565b604082019050919050565b6000602082019050818103600083015261336f81613333565b9050919050565b600081905092915050565b600061338c82612607565b6133968185613376565b93506133a6818560208601612623565b80840191505092915050565b60006133be8285613381565b91506133ca8284613381565b91508190509392505050565b7f45524337323155524953746f726167653a2055524920736574206f66206e6f6e60008201527f6578697374656e7420746f6b656e000000000000000000000000000000000000602082015250565b6000613432602e83612612565b915061343d826133d6565b604082019050919050565b6000602082019050818103600083015261346181613425565b9050919050565b60008190508160005260206000209050919050565b60006020601f8301049050919050565b600082821b905092915050565b6000600883026134ca7fffffffffffffffffffffffffffffffffffffffffffffffffffffffffffffffff8261348d565b6134d4868361348d565b95508019841693508086168417925050509392505050565b6000819050919050565b600061351161350c613507846126b9565b6134ec565b6126b9565b9050919050565b6000819050919050565b61352b836134f6565b61353f61353782613518565b84845461349a565b825550505050565b600090565b613554613547565b61355f818484613522565b505050565b5b818110156135835761357860008261354c565b600181019050613565565b5050565b601f8211156135c85761359981613468565b6135a28461347d565b810160208510156135b1578190505b6135c56135bd8561347d565b830182613564565b50505b505050565b600082821c905092915050565b60006135eb600019846008026135cd565b1980831691505092915050565b600061360483836135da565b9150826002028217905092915050565b61361d82612607565b67ffffffffffffffff81111561363657613635612904565b5b6136408254612c1e565b61364b828285613587565b600060209050601f83116001811461367e576000841561366c578287015190505b61367685826135f8565b8655506136de565b601f19841661368c86613468565b60005b828110156136b45784890151825560018201915060208501945060208101905061368f565b868310156136d157848901516136cd601f8916826135da565b8355505b6001600288020188555050505b505050505050565b600081519050919050565b600082825260208201905092915050565b600061370d826136e6565b61371781856136f1565b9350613727818560208601612623565b6137308161264d565b840191505092915050565b6000608082019050613750600083018761274e565b61375d602083018661274e565b61376a60408301856127e4565b818103606083015261377c8184613702565b905095945050505050565b60008151905061379681612578565b92915050565b6000602082840312156137b2576137b1612542565b5b60006137c084828501613787565b91505092915050565b7f455243373231456e756d657261626c653a20636f6e736563757469766520747260008201527f616e7366657273206e6f7420737570706f727465640000000000000000000000602082015250565b6000613825603583612612565b9150613830826137c9565b604082019050919050565b6000602082019050818103600083015261385481613818565b9050919050565b7f4e487b7100000000000000000000000000000000000000000000000000000000600052601260045260246000fd5b7f4552433732313a206d696e7420746f20746865207a65726f2061646472657373600082015250565b60006138c0602083612612565b91506138cb8261388a565b602082019050919050565b600060208201905081810360008301526138ef816138b3565b9050919050565b7f4552433732313a20746f6b656e20616c7265616479206d696e74656400000000600082015250565b600061392c601c83612612565b9150613937826138f6565b602082019050919050565b6000602082019050818103600083015261395b8161391f565b9050919050565b7f4e487b7100000000000000000000000000000000000000000000000000000000600052601160045260246000fd5b600061399c826126b9565b91506139a7836126b9565b92508282039050818111156139bf576139be613962565b5b92915050565b7f4e487b7100000000000000000000000000000000000000000000000000000000600052603160045260246000fdfea2646970667358221220776220c1d301fe5a18a3563911bd1708874861a2f937e6b8c56478c5ab3ff9a664736f6c63430008120033608060405260016004553480156200001657600080fd5b50338060008073ffffffffffffffffffffffffffffffffffffffff168273ffffffffffffffffffffffffffffffffffffffff16036200008c576040517f08c379a0000000000000000000000000000000000000000000000000000000008152600401620000839062000318565b60405180910390fd5b81600660006101000a81548173ffffffffffffffffffffffffffffffffffffffff021916908373ffffffffffffffffffffffffffffffffffffffff160217905550600073ffffffffffffffffffffffffffffffffffffffff168173ffffffffffffffffffffffffffffffffffffffff1614620001145762000113816200014260201b60201c565b5b5050506200013c73779877a7b0d9e8603169ddbd7836e478b46247896200027360201b60201c565b620003ac565b3373ffffffffffffffffffffffffffffffffffffffff168173ffffffffffffffffffffffffffffffffffffffff1603620001b3576040517f08c379a0000000000000000000000000000000000000000000000000000000008152600401620001aa906200038a565b60405180910390fd5b80600760006101000a81548173ffffffffffffffffffffffffffffffffffffffff021916908373ffffffffffffffffffffffffffffffffffffffff1602179055508073ffffffffffffffffffffffffffffffffffffffff16600660009054906101000a900473ffffffffffffffffffffffffffffffffffffffff1673ffffffffffffffffffffffffffffffffffffffff167fed8889f560326eb138920d842192f0eb3dd22b4f139c87a2c57538e05bae127860405160405180910390a350565b80600260006101000a81548173ffffffffffffffffffffffffffffffffffffffff021916908373ffffffffffffffffffffffffffffffffffffffff16021790555050565b600082825260208201905092915050565b7f43616e6e6f7420736574206f776e657220746f207a65726f0000000000000000600082015250565b600062000300601883620002b7565b91506200030d82620002c8565b602082019050919050565b600060208201905081810360008301526200033381620002f1565b9050919050565b7f43616e6e6f74207472616e7366657220746f2073656c66000000000000000000600082015250565b600062000372601783620002b7565b91506200037f826200033a565b602082019050919050565b60006020820190508181036000830152620003a58162000363565b9050919050565b61283980620003bc6000396000f3fe608060405234801561001057600080fd5b50600436106100f55760003560e01c806389ca38c311610097578063ae989d3611610066578063ae989d3614610219578063c4fe9f4814610237578063ec65d0f814610253578063f2fde38b1461026f576100f5565b806389ca38c3146101a55780638da5cb5b146101d55780638dc654a2146101f3578063a1e7e464146101fd576100f5565b80633347e969116100d35780633347e969146101555780635fd8c7101461017357806379ba50971461017d5780637d79c19214610187576100f5565b806304c58c32146100fa578063165d35e1146101185780632163885a14610136575b600080fd5b61010261028b565b60405161010f9190611690565b60405180910390f35b610120610291565b60405161012d91906116ec565b60405180910390f35b61013e6102a0565b60405161014c929190611707565b60405180910390f35b61015d610333565b60405161016a9190611690565b60405180910390f35b61017b610339565b005b61018561038a565b005b61018f610521565b60405161019c91906117c0565b60405180910390f35b6101bf60048036038101906101ba9190611822565b6105af565b6040516101cc9190611690565b60405180910390f35b6101dd6105c7565b6040516101ea91906116ec565b60405180910390f35b6101fb6105f1565b005b610217600480360381019061021291906119ba565b61073e565b005b6102216108cf565b60405161022e91906117c0565b60405180910390f35b610251600480360381019061024c9190611ac0565b61095d565b005b61026d60048036038101906102689190611b87565b6109fe565b005b61028960048036038101906102849190611bee565b610a18565b005b60085481565b600061029b610a2c565b905090565b60008047915060006102b0610a2c565b90508073ffffffffffffffffffffffffffffffffffffffff166370a08231306040518263ffffffff1660e01b81526004016102eb91906116ec565b602060405180830381865afa158015610308573d6000803e3d6000fd5b505050506040513d601f19601f8201168201806040525081019061032c9190611c30565b9150509091565b60095481565b610341610a56565b3373ffffffffffffffffffffffffffffffffffffffff166108fc479081150290604051600060405180830381858888f19350505050158015610387573d6000803e3d6000fd5b50565b600760009054906101000a900473ffffffffffffffffffffffffffffffffffffffff1673ffffffffffffffffffffffffffffffffffffffff163373ffffffffffffffffffffffffffffffffffffffff161461041a576040517f08c379a000000000000000000000000000000000000000000000000000000000815260040161041190611ca9565b60405180910390fd5b6000600660009054906101000a900473ffffffffffffffffffffffffffffffffffffffff16905033600660006101000a81548173ffffffffffffffffffffffffffffffffffffffff021916908373ffffffffffffffffffffffffffffffffffffffff1602179055506000600760006101000a81548173ffffffffffffffffffffffffffffffffffffffff021916908373ffffffffffffffffffffffffffffffffffffffff1602179055503373ffffffffffffffffffffffffffffffffffffffff168173ffffffffffffffffffffffffffffffffffffffff167f8be0079c531659141344cd1fd0a4f28419497f9722a3daafe3b4186f6b6457e060405160405180910390a350565b600b805461052e90611cf8565b80601f016020809104026020016040519081016040528092919081815260200182805461055a90611cf8565b80156105a75780601f1061057c576101008083540402835291602001916105a7565b820191906000526020600020905b81548152906001019060200180831161058a57829003601f168201915b505050505081565b600c6020528060005260406000206000915090505481565b6000600660009054906101000a900473ffffffffffffffffffffffffffffffffffffffff16905090565b6105f9610a56565b6000610603610a2c565b90508073ffffffffffffffffffffffffffffffffffffffff1663a9059cbb338373ffffffffffffffffffffffffffffffffffffffff166370a08231306040518263ffffffff1660e01b815260040161065b91906116ec565b602060405180830381865afa158015610678573d6000803e3d6000fd5b505050506040513d601f19601f8201168201806040525081019061069c9190611c30565b6040518363ffffffff1660e01b81526004016106b9929190611d29565b6020604051808303816000875af11580156106d8573d6000803e3d6000fd5b505050506040513d601f19601f820116820180604052508101906106fc9190611d8a565b61073b576040517f08c379a000000000000000000000000000000000000000000000000000000000815260040161073290611e03565b60405180910390fd5b50565b866005600082815260200190815260200160002060009054906101000a900473ffffffffffffffffffffffffffffffffffffffff1673ffffffffffffffffffffffffffffffffffffffff163373ffffffffffffffffffffffffffffffffffffffff16146107e0576040517f08c379a00000000000000000000000000000000000000000000000000000000081526004016107d790611e95565b60405180910390fd5b6005600082815260200190815260200160002060006101000a81549073ffffffffffffffffffffffffffffffffffffffff0219169055807f7cc135e0cebb02c3480ae5d74d377283180a2601f8f644edf7987b009316c63a60405160405180910390a28587897fe615341063bf724b1860196436a966415bdbb085b5d268f639b6ac3c47b04c418888604051610877929190611eb5565b60405180910390a484600a908161088e9190612098565b5083600b908161089e9190612098565b50866008819055508560098190555081600c6000858152602001908152602001600020819055505050505050505050565b600a80546108dc90611cf8565b80601f016020809104026020016040519081016040528092919081815260200182805461090890611cf8565b80156109555780601f1061092a57610100808354040283529160200191610955565b820191906000526020600020905b81548152906001019060200180831161093857829003601f168201915b505050505081565b610965610a56565b600061098061097384610ae8565b63a1e7e46460e01b610b11565b90506109cc6040518060400160405280600981526020017f66697874757265496400000000000000000000000000000000000000000000008152508383610b419092919063ffffffff16565b6109f78482600a670de0b6b3a764000060016109e89190612199565b6109f2919061220a565b610b74565b5050505050565b610a06610a56565b610a1284848484610c3e565b50505050565b610a20610a56565b610a2981610d51565b50565b6000600260009054906101000a900473ffffffffffffffffffffffffffffffffffffffff16905090565b600660009054906101000a900473ffffffffffffffffffffffffffffffffffffffff1673ffffffffffffffffffffffffffffffffffffffff163373ffffffffffffffffffffffffffffffffffffffff1614610ae6576040517f08c379a0000000000000000000000000000000000000000000000000000000008152600401610add90612287565b60405180910390fd5b565b6000808290506000815103610b03576000801b915050610b0c565b60208301519150505b919050565b610b196115f0565b610b216115f0565b610b3884308584610e7f909392919063ffffffff16565b91505092915050565b610b58828460800151610f2f90919063ffffffff16565b610b6f818460800151610f5490919063ffffffff16565b505050565b6000806004549050600181610b8991906122a7565b6004819055506000633c6d41b960e01b600080876000015188604001518660028b6080015160000151604051602401610bc8979695949392919061234e565b604051602081830303815290604052907bffffffffffffffffffffffffffffffffffffffffffffffffffffffff19166020820180517bffffffffffffffffffffffffffffffffffffffffffffffffffffffff83818316178352505050509050610c3386838684610f84565b925050509392505050565b60006005600086815260200190815260200160002060009054906101000a900473ffffffffffffffffffffffffffffffffffffffff1690506005600086815260200190815260200160002060006101000a81549073ffffffffffffffffffffffffffffffffffffffff0219169055847fe1fe3afa0f7f761ff0a8b89086790efd5140d2907ebd5b7ff6bfcb5e075fd4c560405160405180910390a28073ffffffffffffffffffffffffffffffffffffffff16636ee4d553868686866040518563ffffffff1660e01b8152600401610d1894939291906123c4565b600060405180830381600087803b158015610d3257600080fd5b505af1158015610d46573d6000803e3d6000fd5b505050505050505050565b3373ffffffffffffffffffffffffffffffffffffffff168173ffffffffffffffffffffffffffffffffffffffff1603610dbf576040517f08c379a0000000000000000000000000000000000000000000000000000000008152600401610db690612455565b60405180910390fd5b80600760006101000a81548173ffffffffffffffffffffffffffffffffffffffff021916908373ffffffffffffffffffffffffffffffffffffffff1602179055508073ffffffffffffffffffffffffffffffffffffffff16600660009054906101000a900473ffffffffffffffffffffffffffffffffffffffff1673ffffffffffffffffffffffffffffffffffffffff167fed8889f560326eb138920d842192f0eb3dd22b4f139c87a2c57538e05bae127860405160405180910390a350565b610e876115f0565b610e978560800151610100611119565b508385600001818152505082856020019073ffffffffffffffffffffffffffffffffffffffff16908173ffffffffffffffffffffffffffffffffffffffff16815250508185604001907bffffffffffffffffffffffffffffffffffffffffffffffffffffffff191690817bffffffffffffffffffffffffffffffffffffffffffffffffffffffff191681525050849050949350505050565b610f3c8260038351611183565b610f4f818361130890919063ffffffff16565b505050565b67ffffffffffffffff811115610f7357610f6e828261132a565b610f80565b610f7f82600083611183565b5b5050565b60003084604051602001610f99929190612524565b604051602081830303815290604052805190602001209050846005600083815260200190815260200160002060006101000a81548173ffffffffffffffffffffffffffffffffffffffff021916908373ffffffffffffffffffffffffffffffffffffffff160217905550807fb5e6e01e79f91267dc17b4e6314d5d4d03593d2ceee0fbb452b750bd70ea5af960405160405180910390a2600260009054906101000a900473ffffffffffffffffffffffffffffffffffffffff1673ffffffffffffffffffffffffffffffffffffffff16634000aea08685856040518463ffffffff1660e01b815260040161108f93929190612550565b6020604051808303816000875af11580156110ae573d6000803e3d6000fd5b505050506040513d601f19601f820116820180604052508101906110d29190611d8a565b611111576040517f08c379a000000000000000000000000000000000000000000000000000000000815260040161110890612600565b60405180910390fd5b949350505050565b61112161165d565b60006020836111309190612620565b1461115c576020826111429190612620565b602061114e9190612651565b8261115991906122a7565b91505b81836020018181525050604051808452600081528281016020016040525082905092915050565b60178167ffffffffffffffff16116111ba576111b48160058460ff16901b60ff16178461137690919063ffffffff16565b50611303565b60ff8167ffffffffffffffff1611611210576111e9601860058460ff16901b178461137690919063ffffffff16565b5061120a8167ffffffffffffffff166001856113969092919063ffffffff16565b50611302565b61ffff8167ffffffffffffffff161161126757611240601960058460ff16901b178461137690919063ffffffff16565b506112618167ffffffffffffffff166002856113969092919063ffffffff16565b50611301565b63ffffffff8167ffffffffffffffff16116112c057611299601a60058460ff16901b178461137690919063ffffffff16565b506112ba8167ffffffffffffffff166004856113969092919063ffffffff16565b50611300565b6112dd601b60058460ff16901b178461137690919063ffffffff16565b506112fe8167ffffffffffffffff166008856113969092919063ffffffff16565b505b5b5b5b505050565b61131061165d565b611322838460000151518485516113b8565b905092915050565b61134860026005600660ff16901b178361137690919063ffffffff16565b50611372828260405160200161135e9190611690565b6040516020818303038152906040526114a7565b5050565b61137e61165d565b61138e83846000015151846114cc565b905092915050565b61139e61165d565b6113af848560000151518585611522565b90509392505050565b6113c061165d565b82518211156113ce57600080fd5b846020015182856113df91906122a7565b111561141457611413856002611404886020015188876113ff91906122a7565b6115b0565b61140e9190612199565b6115cc565b5b6000808651805187602083010193508088870111156114335787860182525b60208701925050505b6020841061147a578051825260208261145591906122a7565b915060208161146491906122a7565b90506020846114739190612651565b935061143c565b60006001856020036101000a03905080198251168184511681811785525050508692505050949350505050565b6114b48260028351611183565b6114c7818361130890919063ffffffff16565b505050565b6114d461165d565b836020015183106114fa576114f984600286602001516114f49190612199565b6115cc565b5b83518051602085830101848153818603611515576001820183525b5050508390509392505050565b61152a61165d565b8460200151848361153b91906122a7565b111561156357611562856002868561155391906122a7565b61155d9190612199565b6115cc565b5b600060018361010061157591906127b8565b61157f9190612651565b905085518386820101858319825116178152815185880111156115a25784870182525b505085915050949350505050565b6000818311156115c2578290506115c6565b8190505b92915050565b6000826000015190506115df8383611119565b506115ea8382611308565b50505050565b6040518060a0016040528060008019168152602001600073ffffffffffffffffffffffffffffffffffffffff16815260200160007bffffffffffffffffffffffffffffffffffffffffffffffffffffffff191681526020016000815260200161165761165d565b81525090565b604051806040016040528060608152602001600081525090565b6000819050919050565b61168a81611677565b82525050565b60006020820190506116a56000830184611681565b92915050565b600073ffffffffffffffffffffffffffffffffffffffff82169050919050565b60006116d6826116ab565b9050919050565b6116e6816116cb565b82525050565b600060208201905061170160008301846116dd565b92915050565b600060408201905061171c6000830185611681565b6117296020830184611681565b9392505050565b600081519050919050565b600082825260208201905092915050565b60005b8381101561176a57808201518184015260208101905061174f565b60008484015250505050565b6000601f19601f8301169050919050565b600061179282611730565b61179c818561173b565b93506117ac81856020860161174c565b6117b581611776565b840191505092915050565b600060208201905081810360008301526117da8184611787565b905092915050565b6000604051905090565b600080fd5b600080fd5b6117ff81611677565b811461180a57600080fd5b50565b60008135905061181c816117f6565b92915050565b600060208284031215611838576118376117ec565b5b60006118468482850161180d565b91505092915050565b6000819050919050565b6118628161184f565b811461186d57600080fd5b50565b60008135905061187f81611859565b92915050565b600080fd5b600080fd5b7f4e487b7100000000000000000000000000000000000000000000000000000000600052604160045260246000fd5b6118c782611776565b810181811067ffffffffffffffff821117156118e6576118e561188f565b5b80604052505050565b60006118f96117e2565b905061190582826118be565b919050565b600067ffffffffffffffff8211156119255761192461188f565b5b61192e82611776565b9050602081019050919050565b82818337600083830152505050565b600061195d6119588461190a565b6118ef565b9050828152602081018484840111156119795761197861188a565b5b61198484828561193b565b509392505050565b600082601f8301126119a1576119a0611885565b5b81356119b184826020860161194a565b91505092915050565b600080600080600080600060e0888a0312156119d9576119d86117ec565b5b60006119e78a828b01611870565b97505060206119f88a828b0161180d565b9650506040611a098a828b0161180d565b955050606088013567ffffffffffffffff811115611a2a57611a296117f1565b5b611a368a828b0161198c565b945050608088013567ffffffffffffffff811115611a5757611a566117f1565b5b611a638a828b0161198c565b93505060a0611a748a828b0161180d565b92505060c0611a858a828b0161180d565b91505092959891949750929550565b611a9d816116cb565b8114611aa857600080fd5b50565b600081359050611aba81611a94565b92915050565b600080600060608486031215611ad957611ad86117ec565b5b6000611ae786828701611aab565b935050602084013567ffffffffffffffff811115611b0857611b076117f1565b5b611b148682870161198c565b9250506040611b258682870161180d565b9150509250925092565b60007fffffffff0000000000000000000000000000000000000000000000000000000082169050919050565b611b6481611b2f565b8114611b6f57600080fd5b50565b600081359050611b8181611b5b565b92915050565b60008060008060808587031215611ba157611ba06117ec565b5b6000611baf87828801611870565b9450506020611bc08782880161180d565b9350506040611bd187828801611b72565b9250506060611be28782880161180d565b91505092959194509250565b600060208284031215611c0457611c036117ec565b5b6000611c1284828501611aab565b91505092915050565b600081519050611c2a816117f6565b92915050565b600060208284031215611c4657611c456117ec565b5b6000611c5484828501611c1b565b91505092915050565b7f4d7573742062652070726f706f736564206f776e657200000000000000000000600082015250565b6000611c9360168361173b565b9150611c9e82611c5d565b602082019050919050565b60006020820190508181036000830152611cc281611c86565b9050919050565b7f4e487b7100000000000000000000000000000000000000000000000000000000600052602260045260246000fd5b60006002820490506001821680611d1057607f821691505b602082108103611d2357611d22611cc9565b5b50919050565b6000604082019050611d3e60008301856116dd565b611d4b6020830184611681565b9392505050565b60008115159050919050565b611d6781611d52565b8114611d7257600080fd5b50565b600081519050611d8481611d5e565b92915050565b600060208284031215611da057611d9f6117ec565b5b6000611dae84828501611d75565b91505092915050565b7f556e61626c6520746f207472616e73666572204c696e6b000000000000000000600082015250565b6000611ded60178361173b565b9150611df882611db7565b602082019050919050565b60006020820190508181036000830152611e1c81611de0565b9050919050565b7f536f75726365206d75737420626520746865206f7261636c65206f662074686560008201527f2072657175657374000000000000000000000000000000000000000000000000602082015250565b6000611e7f60288361173b565b9150611e8a82611e23565b604082019050919050565b60006020820190508181036000830152611eae81611e72565b9050919050565b60006040820190508181036000830152611ecf8185611787565b90508181036020830152611ee38184611787565b90509392505050565b60008190508160005260206000209050919050565b60006020601f8301049050919050565b600082821b905092915050565b600060088302611f4e7fffffffffffffffffffffffffffffffffffffffffffffffffffffffffffffffff82611f11565b611f588683611f11565b95508019841693508086168417925050509392505050565b6000819050919050565b6000611f95611f90611f8b84611677565b611f70565b611677565b9050919050565b6000819050919050565b611faf83611f7a565b611fc3611fbb82611f9c565b848454611f1e565b825550505050565b600090565b611fd8611fcb565b611fe3818484611fa6565b505050565b5b8181101561200757611ffc600082611fd0565b600181019050611fe9565b5050565b601f82111561204c5761201d81611eec565b61202684611f01565b81016020851015612035578190505b61204961204185611f01565b830182611fe8565b50505b505050565b600082821c905092915050565b600061206f60001984600802612051565b1980831691505092915050565b6000612088838361205e565b9150826002028217905092915050565b6120a182611730565b67ffffffffffffffff8111156120ba576120b961188f565b5b6120c48254611cf8565b6120cf82828561200b565b600060209050601f83116001811461210257600084156120f0578287015190505b6120fa858261207c565b865550612162565b601f19841661211086611eec565b60005b8281101561213857848901518255600182019150602085019450602081019050612113565b868310156121555784890151612151601f89168261205e565b8355505b6001600288020188555050505b505050505050565b7f4e487b7100000000000000000000000000000000000000000000000000000000600052601160045260246000fd5b60006121a482611677565b91506121af83611677565b92508282026121bd81611677565b915082820484148315176121d4576121d361216a565b5b5092915050565b7f4e487b7100000000000000000000000000000000000000000000000000000000600052601260045260246000fd5b600061221582611677565b915061222083611677565b9250826122305761222f6121db565b5b828204905092915050565b7f4f6e6c792063616c6c61626c65206279206f776e657200000000000000000000600082015250565b600061227160168361173b565b915061227c8261223b565b602082019050919050565b600060208201905081810360008301526122a081612264565b9050919050565b60006122b282611677565b91506122bd83611677565b92508282019050808211156122d5576122d461216a565b5b92915050565b6122e48161184f565b82525050565b6122f381611b2f565b82525050565b600081519050919050565b600082825260208201905092915050565b6000612320826122f9565b61232a8185612304565b935061233a81856020860161174c565b61234381611776565b840191505092915050565b600060e082019050612363600083018a6116dd565b6123706020830189611681565b61237d60408301886122db565b61238a60608301876122ea565b6123976080830186611681565b6123a460a0830185611681565b81810360c08301526123b68184612315565b905098975050505050505050565b60006080820190506123d960008301876122db565b6123e66020830186611681565b6123f360408301856122ea565b6124006060830184611681565b95945050505050565b7f43616e6e6f74207472616e7366657220746f2073656c66000000000000000000600082015250565b600061243f60178361173b565b915061244a82612409565b602082019050919050565b6000602082019050818103600083015261246e81612432565b9050919050565b600061249061248b612486846116ab565b611f70565b6116ab565b9050919050565b60006124a282612475565b9050919050565b60006124b482612497565b9050919050565b60008160601b9050919050565b60006124d3826124bb565b9050919050565b60006124e5826124c8565b9050919050565b6124fd6124f8826124a9565b6124da565b82525050565b6000819050919050565b61251e61251982611677565b612503565b82525050565b600061253082856124ec565b601482019150612540828461250d565b6020820191508190509392505050565b600060608201905061256560008301866116dd565b6125726020830185611681565b81810360408301526125848184612315565b9050949350505050565b7f756e61626c6520746f207472616e73666572416e6443616c6c20746f206f726160008201527f636c650000000000000000000000000000000000000000000000000000000000602082015250565b60006125ea60238361173b565b91506125f58261258e565b604082019050919050565b60006020820190508181036000830152612619816125dd565b9050919050565b600061262b82611677565b915061263683611677565b925082612646576126456121db565b5b828206905092915050565b600061265c82611677565b915061266783611677565b925082820390508181111561267f5761267e61216a565b5b92915050565b60008160011c9050919050565b6000808291508390505b60018511156126dc578086048111156126b8576126b761216a565b5b60018516156126c75780820291505b80810290506126d585612685565b945061269c565b94509492505050565b6000826126f557600190506127b1565b8161270357600090506127b1565b8160018114612719576002811461272357612752565b60019150506127b1565b60ff8411156127355761273461216a565b5b8360020a91508482111561274c5761274b61216a565b5b506127b1565b5060208310610133831016604e8410600b84101617156127875782820a9050838111156127825761278161216a565b5b6127b1565b6127948484846001612692565b925090508184048111156127ab576127aa61216a565b5b81810290505b9392505050565b60006127c382611677565b91506127ce83611677565b92506127fb7fffffffffffffffffffffffffffffffffffffffffffffffffffffffffffffffff84846126e5565b90509291505056fea2646970667358221220c4ff915aff8eb12a6bb53a14c9aa4cbc0170fdbb0cf9d5a56b625761f55dab2364736f6c63430008120033",
  "linkReferences": {},
  "deployedLinkReferences": {}
}