{
  "_format": "hh-sol-artifact-1",
  "contractName": "ConsumerContract",
  "sourceName": "contracts/ConsumerContract.sol",
  "abi": [
    {
      "inputs": [],
      "stateMutability": "nonpayable",
      "type": "constructor"
    },
    {
      "anonymous": false,
      "inputs": [
        {
          "indexed": true,
          "internalType": "bytes32",
          "name": "id",
          "type": "bytes32"
        }
      ],
      "name": "ChainlinkCancelled",
      "type": "event"
    },
    {
      "anonymous": false,
      "inputs": [
        {
          "indexed": true,
          "internalType": "bytes32",
          "name": "id",
          "type": "bytes32"
        }
      ],
      "name": "ChainlinkFulfilled",
      "type": "event"
    },
    {
      "anonymous": false,
      "inputs": [
        {
          "indexed": true,
          "internalType": "bytes32",
          "name": "id",
          "type": "bytes32"
        }
      ],
      "name": "ChainlinkRequested",
      "type": "event"
    },
    {
      "anonymous": false,
      "inputs": [
        {
          "indexed": true,
          "internalType": "address",
          "name": "from",
          "type": "address"
        },
        {
          "indexed": true,
          "internalType": "address",
          "name": "to",
          "type": "address"
        }
      ],
      "name": "OwnershipTransferRequested",
      "type": "event"
    },
    {
      "anonymous": false,
      "inputs": [
        {
          "indexed": true,
          "internalType": "address",
          "name": "from",
          "type": "address"
        },
        {
          "indexed": true,
          "internalType": "address",
          "name": "to",
          "type": "address"
        }
      ],
      "name": "OwnershipTransferred",
      "type": "event"
    },
    {
      "anonymous": false,
      "inputs": [
        {
          "indexed": true,
          "internalType": "bytes32",
          "name": "requestId",
          "type": "bytes32"
        },
        {
          "indexed": true,
          "internalType": "uint256",
          "name": "homeGoal",
          "type": "uint256"
        },
        {
          "indexed": true,
          "internalType": "uint256",
          "name": "awayGoal",
          "type": "uint256"
        },
        {
          "indexed": false,
          "internalType": "string",
          "name": "homeTeam",
          "type": "string"
        },
        {
          "indexed": false,
          "internalType": "string",
          "name": "awayTeam",
          "type": "string"
        }
      ],
      "name": "RequestForInfoFulfilled",
      "type": "event"
    },
    {
      "inputs": [],
      "name": "acceptOwnership",
      "outputs": [],
      "stateMutability": "nonpayable",
      "type": "function"
    },
    {
      "inputs": [],
      "name": "awayGoal",
      "outputs": [
        {
          "internalType": "uint256",
          "name": "",
          "type": "uint256"
        }
      ],
      "stateMutability": "view",
      "type": "function"
    },
    {
      "inputs": [],
      "name": "awayTeam",
      "outputs": [
        {
          "internalType": "string",
          "name": "",
          "type": "string"
        }
      ],
      "stateMutability": "view",
      "type": "function"
    },
    {
      "inputs": [
        {
          "internalType": "bytes32",
          "name": "_requestId",
          "type": "bytes32"
        },
        {
          "internalType": "uint256",
          "name": "_payment",
          "type": "uint256"
        },
        {
          "internalType": "bytes4",
          "name": "_callbackFunctionId",
          "type": "bytes4"
        },
        {
          "internalType": "uint256",
          "name": "_expiration",
          "type": "uint256"
        }
      ],
      "name": "cancelRequest",
      "outputs": [],
      "stateMutability": "nonpayable",
      "type": "function"
    },
    {
      "inputs": [],
      "name": "contractBalances",
      "outputs": [
        {
          "internalType": "uint256",
          "name": "eth",
          "type": "uint256"
        },
        {
          "internalType": "uint256",
          "name": "link",
          "type": "uint256"
        }
      ],
      "stateMutability": "view",
      "type": "function"
    },
    {
      "inputs": [
        {
          "internalType": "bytes32",
          "name": "_requestId",
          "type": "bytes32"
        },
        {
          "internalType": "uint256",
          "name": "_homeGoal",
          "type": "uint256"
        },
        {
          "internalType": "uint256",
          "name": "_awayGoal",
          "type": "uint256"
        },
        {
          "internalType": "string",
          "name": "_homeTeam",
          "type": "string"
        },
        {
          "internalType": "string",
          "name": "_awayTeam",
          "type": "string"
        },
        {
          "internalType": "uint256",
          "name": "_fixtureId",
          "type": "uint256"
        },
        {
          "internalType": "uint256",
          "name": "_winner",
          "type": "uint256"
        }
      ],
      "name": "fulfillRequestInfo",
      "outputs": [],
      "stateMutability": "nonpayable",
      "type": "function"
    },
    {
      "inputs": [],
      "name": "getChainlinkToken",
      "outputs": [
        {
          "internalType": "address",
          "name": "",
          "type": "address"
        }
      ],
      "stateMutability": "view",
      "type": "function"
    },
    {
      "inputs": [],
      "name": "homeGoal",
      "outputs": [
        {
          "internalType": "uint256",
          "name": "",
          "type": "uint256"
        }
      ],
      "stateMutability": "view",
      "type": "function"
    },
    {
      "inputs": [],
      "name": "homeTeam",
      "outputs": [
        {
          "internalType": "string",
          "name": "",
          "type": "string"
        }
      ],
      "stateMutability": "view",
      "type": "function"
    },
    {
      "inputs": [
        {
          "internalType": "uint256",
          "name": "",
          "type": "uint256"
        }
      ],
      "name": "matchWinner",
      "outputs": [
        {
          "internalType": "uint256",
          "name": "",
          "type": "uint256"
        }
      ],
      "stateMutability": "view",
      "type": "function"
    },
    {
      "inputs": [],
      "name": "owner",
      "outputs": [
        {
          "internalType": "address",
          "name": "",
          "type": "address"
        }
      ],
      "stateMutability": "view",
      "type": "function"
    },
    {
      "inputs": [
        {
          "internalType": "address",
          "name": "_oracle",
          "type": "address"
        },
        {
          "internalType": "string",
          "name": "_jobId",
          "type": "string"
        },
        {
          "internalType": "uint256",
          "name": "fixtureId",
          "type": "uint256"
        }
      ],
      "name": "requestMatchResult",
      "outputs": [],
      "stateMutability": "nonpayable",
      "type": "function"
    },
    {
      "inputs": [
        {
          "internalType": "address",
          "name": "to",
          "type": "address"
        }
      ],
      "name": "transferOwnership",
      "outputs": [],
      "stateMutability": "nonpayable",
      "type": "function"
    },
    {
      "inputs": [],
      "name": "withdrawBalance",
      "outputs": [],
      "stateMutability": "nonpayable",
      "type": "function"
    },
    {
      "inputs": [],
      "name": "withdrawLink",
      "outputs": [],
      "stateMutability": "nonpayable",
      "type": "function"
    }
  ],
  "bytecode": "0x608060405260016004553480156200001657600080fd5b50338060008073ffffffffffffffffffffffffffffffffffffffff168273ffffffffffffffffffffffffffffffffffffffff16036200008c576040517f08c379a0000000000000000000000000000000000000000000000000000000008152600401620000839062000318565b60405180910390fd5b81600660006101000a81548173ffffffffffffffffffffffffffffffffffffffff021916908373ffffffffffffffffffffffffffffffffffffffff160217905550600073ffffffffffffffffffffffffffffffffffffffff168173ffffffffffffffffffffffffffffffffffffffff1614620001145762000113816200014260201b60201c565b5b5050506200013c73779877a7b0d9e8603169ddbd7836e478b46247896200027360201b60201c565b620003ac565b3373ffffffffffffffffffffffffffffffffffffffff168173ffffffffffffffffffffffffffffffffffffffff1603620001b3576040517f08c379a0000000000000000000000000000000000000000000000000000000008152600401620001aa906200038a565b60405180910390fd5b80600760006101000a81548173ffffffffffffffffffffffffffffffffffffffff021916908373ffffffffffffffffffffffffffffffffffffffff1602179055508073ffffffffffffffffffffffffffffffffffffffff16600660009054906101000a900473ffffffffffffffffffffffffffffffffffffffff1673ffffffffffffffffffffffffffffffffffffffff167fed8889f560326eb138920d842192f0eb3dd22b4f139c87a2c57538e05bae127860405160405180910390a350565b80600260006101000a81548173ffffffffffffffffffffffffffffffffffffffff021916908373ffffffffffffffffffffffffffffffffffffffff16021790555050565b600082825260208201905092915050565b7f43616e6e6f7420736574206f776e657220746f207a65726f0000000000000000600082015250565b600062000300601883620002b7565b91506200030d82620002c8565b602082019050919050565b600060208201905081810360008301526200033381620002f1565b9050919050565b7f43616e6e6f74207472616e7366657220746f2073656c66000000000000000000600082015250565b600062000372601783620002b7565b91506200037f826200033a565b602082019050919050565b60006020820190508181036000830152620003a58162000363565b9050919050565b61283980620003bc6000396000f3fe608060405234801561001057600080fd5b50600436106100f55760003560e01c806389ca38c311610097578063ae989d3611610066578063ae989d3614610219578063c4fe9f4814610237578063ec65d0f814610253578063f2fde38b1461026f576100f5565b806389ca38c3146101a55780638da5cb5b146101d55780638dc654a2146101f3578063a1e7e464146101fd576100f5565b80633347e969116100d35780633347e969146101555780635fd8c7101461017357806379ba50971461017d5780637d79c19214610187576100f5565b806304c58c32146100fa578063165d35e1146101185780632163885a14610136575b600080fd5b61010261028b565b60405161010f9190611690565b60405180910390f35b610120610291565b60405161012d91906116ec565b60405180910390f35b61013e6102a0565b60405161014c929190611707565b60405180910390f35b61015d610333565b60405161016a9190611690565b60405180910390f35b61017b610339565b005b61018561038a565b005b61018f610521565b60405161019c91906117c0565b60405180910390f35b6101bf60048036038101906101ba9190611822565b6105af565b6040516101cc9190611690565b60405180910390f35b6101dd6105c7565b6040516101ea91906116ec565b60405180910390f35b6101fb6105f1565b005b610217600480360381019061021291906119ba565b61073e565b005b6102216108cf565b60405161022e91906117c0565b60405180910390f35b610251600480360381019061024c9190611ac0565b61095d565b005b61026d60048036038101906102689190611b87565b6109fe565b005b61028960048036038101906102849190611bee565b610a18565b005b60085481565b600061029b610a2c565b905090565b60008047915060006102b0610a2c565b90508073ffffffffffffffffffffffffffffffffffffffff166370a08231306040518263ffffffff1660e01b81526004016102eb91906116ec565b602060405180830381865afa158015610308573d6000803e3d6000fd5b505050506040513d601f19601f8201168201806040525081019061032c9190611c30565b9150509091565b60095481565b610341610a56565b3373ffffffffffffffffffffffffffffffffffffffff166108fc479081150290604051600060405180830381858888f19350505050158015610387573d6000803e3d6000fd5b50565b600760009054906101000a900473ffffffffffffffffffffffffffffffffffffffff1673ffffffffffffffffffffffffffffffffffffffff163373ffffffffffffffffffffffffffffffffffffffff161461041a576040517f08c379a000000000000000000000000000000000000000000000000000000000815260040161041190611ca9565b60405180910390fd5b6000600660009054906101000a900473ffffffffffffffffffffffffffffffffffffffff16905033600660006101000a81548173ffffffffffffffffffffffffffffffffffffffff021916908373ffffffffffffffffffffffffffffffffffffffff1602179055506000600760006101000a81548173ffffffffffffffffffffffffffffffffffffffff021916908373ffffffffffffffffffffffffffffffffffffffff1602179055503373ffffffffffffffffffffffffffffffffffffffff168173ffffffffffffffffffffffffffffffffffffffff167f8be0079c531659141344cd1fd0a4f28419497f9722a3daafe3b4186f6b6457e060405160405180910390a350565b600b805461052e90611cf8565b80601f016020809104026020016040519081016040528092919081815260200182805461055a90611cf8565b80156105a75780601f1061057c576101008083540402835291602001916105a7565b820191906000526020600020905b81548152906001019060200180831161058a57829003601f168201915b505050505081565b600c6020528060005260406000206000915090505481565b6000600660009054906101000a900473ffffffffffffffffffffffffffffffffffffffff16905090565b6105f9610a56565b6000610603610a2c565b90508073ffffffffffffffffffffffffffffffffffffffff1663a9059cbb338373ffffffffffffffffffffffffffffffffffffffff166370a08231306040518263ffffffff1660e01b815260040161065b91906116ec565b602060405180830381865afa158015610678573d6000803e3d6000fd5b505050506040513d601f19601f8201168201806040525081019061069c9190611c30565b6040518363ffffffff1660e01b81526004016106b9929190611d29565b6020604051808303816000875af11580156106d8573d6000803e3d6000fd5b505050506040513d601f19601f820116820180604052508101906106fc9190611d8a565b61073b576040517f08c379a000000000000000000000000000000000000000000000000000000000815260040161073290611e03565b60405180910390fd5b50565b866005600082815260200190815260200160002060009054906101000a900473ffffffffffffffffffffffffffffffffffffffff1673ffffffffffffffffffffffffffffffffffffffff163373ffffffffffffffffffffffffffffffffffffffff16146107e0576040517f08c379a00000000000000000000000000000000000000000000000000000000081526004016107d790611e95565b60405180910390fd5b6005600082815260200190815260200160002060006101000a81549073ffffffffffffffffffffffffffffffffffffffff0219169055807f7cc135e0cebb02c3480ae5d74d377283180a2601f8f644edf7987b009316c63a60405160405180910390a28587897fe615341063bf724b1860196436a966415bdbb085b5d268f639b6ac3c47b04c418888604051610877929190611eb5565b60405180910390a484600a908161088e9190612098565b5083600b908161089e9190612098565b50866008819055508560098190555081600c6000858152602001908152602001600020819055505050505050505050565b600a80546108dc90611cf8565b80601f016020809104026020016040519081016040528092919081815260200182805461090890611cf8565b80156109555780601f1061092a57610100808354040283529160200191610955565b820191906000526020600020905b81548152906001019060200180831161093857829003601f168201915b505050505081565b610965610a56565b600061098061097384610ae8565b63a1e7e46460e01b610b11565b90506109cc6040518060400160405280600981526020017f66697874757265496400000000000000000000000000000000000000000000008152508383610b419092919063ffffffff16565b6109f78482600a670de0b6b3a764000060016109e89190612199565b6109f2919061220a565b610b74565b5050505050565b610a06610a56565b610a1284848484610c3e565b50505050565b610a20610a56565b610a2981610d51565b50565b6000600260009054906101000a900473ffffffffffffffffffffffffffffffffffffffff16905090565b600660009054906101000a900473ffffffffffffffffffffffffffffffffffffffff1673ffffffffffffffffffffffffffffffffffffffff163373ffffffffffffffffffffffffffffffffffffffff1614610ae6576040517f08c379a0000000000000000000000000000000000000000000000000000000008152600401610add90612287565b60405180910390fd5b565b6000808290506000815103610b03576000801b915050610b0c565b60208301519150505b919050565b610b196115f0565b610b216115f0565b610b3884308584610e7f909392919063ffffffff16565b91505092915050565b610b58828460800151610f2f90919063ffffffff16565b610b6f818460800151610f5490919063ffffffff16565b505050565b6000806004549050600181610b8991906122a7565b6004819055506000633c6d41b960e01b600080876000015188604001518660028b6080015160000151604051602401610bc8979695949392919061234e565b604051602081830303815290604052907bffffffffffffffffffffffffffffffffffffffffffffffffffffffff19166020820180517bffffffffffffffffffffffffffffffffffffffffffffffffffffffff83818316178352505050509050610c3386838684610f84565b925050509392505050565b60006005600086815260200190815260200160002060009054906101000a900473ffffffffffffffffffffffffffffffffffffffff1690506005600086815260200190815260200160002060006101000a81549073ffffffffffffffffffffffffffffffffffffffff0219169055847fe1fe3afa0f7f761ff0a8b89086790efd5140d2907ebd5b7ff6bfcb5e075fd4c560405160405180910390a28073ffffffffffffffffffffffffffffffffffffffff16636ee4d553868686866040518563ffffffff1660e01b8152600401610d1894939291906123c4565b600060405180830381600087803b158015610d3257600080fd5b505af1158015610d46573d6000803e3d6000fd5b505050505050505050565b3373ffffffffffffffffffffffffffffffffffffffff168173ffffffffffffffffffffffffffffffffffffffff1603610dbf576040517f08c379a0000000000000000000000000000000000000000000000000000000008152600401610db690612455565b60405180910390fd5b80600760006101000a81548173ffffffffffffffffffffffffffffffffffffffff021916908373ffffffffffffffffffffffffffffffffffffffff1602179055508073ffffffffffffffffffffffffffffffffffffffff16600660009054906101000a900473ffffffffffffffffffffffffffffffffffffffff1673ffffffffffffffffffffffffffffffffffffffff167fed8889f560326eb138920d842192f0eb3dd22b4f139c87a2c57538e05bae127860405160405180910390a350565b610e876115f0565b610e978560800151610100611119565b508385600001818152505082856020019073ffffffffffffffffffffffffffffffffffffffff16908173ffffffffffffffffffffffffffffffffffffffff16815250508185604001907bffffffffffffffffffffffffffffffffffffffffffffffffffffffff191690817bffffffffffffffffffffffffffffffffffffffffffffffffffffffff191681525050849050949350505050565b610f3c8260038351611183565b610f4f818361130890919063ffffffff16565b505050565b67ffffffffffffffff811115610f7357610f6e828261132a565b610f80565b610f7f82600083611183565b5b5050565b60003084604051602001610f99929190612524565b604051602081830303815290604052805190602001209050846005600083815260200190815260200160002060006101000a81548173ffffffffffffffffffffffffffffffffffffffff021916908373ffffffffffffffffffffffffffffffffffffffff160217905550807fb5e6e01e79f91267dc17b4e6314d5d4d03593d2ceee0fbb452b750bd70ea5af960405160405180910390a2600260009054906101000a900473ffffffffffffffffffffffffffffffffffffffff1673ffffffffffffffffffffffffffffffffffffffff16634000aea08685856040518463ffffffff1660e01b815260040161108f93929190612550565b6020604051808303816000875af11580156110ae573d6000803e3d6000fd5b505050506040513d601f19601f820116820180604052508101906110d29190611d8a565b611111576040517f08c379a000000000000000000000000000000000000000000000000000000000815260040161110890612600565b60405180910390fd5b949350505050565b61112161165d565b60006020836111309190612620565b1461115c576020826111429190612620565b602061114e9190612651565b8261115991906122a7565b91505b81836020018181525050604051808452600081528281016020016040525082905092915050565b60178167ffffffffffffffff16116111ba576111b48160058460ff16901b60ff16178461137690919063ffffffff16565b50611303565b60ff8167ffffffffffffffff1611611210576111e9601860058460ff16901b178461137690919063ffffffff16565b5061120a8167ffffffffffffffff166001856113969092919063ffffffff16565b50611302565b61ffff8167ffffffffffffffff161161126757611240601960058460ff16901b178461137690919063ffffffff16565b506112618167ffffffffffffffff166002856113969092919063ffffffff16565b50611301565b63ffffffff8167ffffffffffffffff16116112c057611299601a60058460ff16901b178461137690919063ffffffff16565b506112ba8167ffffffffffffffff166004856113969092919063ffffffff16565b50611300565b6112dd601b60058460ff16901b178461137690919063ffffffff16565b506112fe8167ffffffffffffffff166008856113969092919063ffffffff16565b505b5b5b5b505050565b61131061165d565b611322838460000151518485516113b8565b905092915050565b61134860026005600660ff16901b178361137690919063ffffffff16565b50611372828260405160200161135e9190611690565b6040516020818303038152906040526114a7565b5050565b61137e61165d565b61138e83846000015151846114cc565b905092915050565b61139e61165d565b6113af848560000151518585611522565b90509392505050565b6113c061165d565b82518211156113ce57600080fd5b846020015182856113df91906122a7565b111561141457611413856002611404886020015188876113ff91906122a7565b6115b0565b61140e9190612199565b6115cc565b5b6000808651805187602083010193508088870111156114335787860182525b60208701925050505b6020841061147a578051825260208261145591906122a7565b915060208161146491906122a7565b90506020846114739190612651565b935061143c565b60006001856020036101000a03905080198251168184511681811785525050508692505050949350505050565b6114b48260028351611183565b6114c7818361130890919063ffffffff16565b505050565b6114d461165d565b836020015183106114fa576114f984600286602001516114f49190612199565b6115cc565b5b83518051602085830101848153818603611515576001820183525b5050508390509392505050565b61152a61165d565b8460200151848361153b91906122a7565b111561156357611562856002868561155391906122a7565b61155d9190612199565b6115cc565b5b600060018361010061157591906127b8565b61157f9190612651565b905085518386820101858319825116178152815185880111156115a25784870182525b505085915050949350505050565b6000818311156115c2578290506115c6565b8190505b92915050565b6000826000015190506115df8383611119565b506115ea8382611308565b50505050565b6040518060a0016040528060008019168152602001600073ffffffffffffffffffffffffffffffffffffffff16815260200160007bffffffffffffffffffffffffffffffffffffffffffffffffffffffff191681526020016000815260200161165761165d565b81525090565b604051806040016040528060608152602001600081525090565b6000819050919050565b61168a81611677565b82525050565b60006020820190506116a56000830184611681565b92915050565b600073ffffffffffffffffffffffffffffffffffffffff82169050919050565b60006116d6826116ab565b9050919050565b6116e6816116cb565b82525050565b600060208201905061170160008301846116dd565b92915050565b600060408201905061171c6000830185611681565b6117296020830184611681565b9392505050565b600081519050919050565b600082825260208201905092915050565b60005b8381101561176a57808201518184015260208101905061174f565b60008484015250505050565b6000601f19601f8301169050919050565b600061179282611730565b61179c818561173b565b93506117ac81856020860161174c565b6117b581611776565b840191505092915050565b600060208201905081810360008301526117da8184611787565b905092915050565b6000604051905090565b600080fd5b600080fd5b6117ff81611677565b811461180a57600080fd5b50565b60008135905061181c816117f6565b92915050565b600060208284031215611838576118376117ec565b5b60006118468482850161180d565b91505092915050565b6000819050919050565b6118628161184f565b811461186d57600080fd5b50565b60008135905061187f81611859565b92915050565b600080fd5b600080fd5b7f4e487b7100000000000000000000000000000000000000000000000000000000600052604160045260246000fd5b6118c782611776565b810181811067ffffffffffffffff821117156118e6576118e561188f565b5b80604052505050565b60006118f96117e2565b905061190582826118be565b919050565b600067ffffffffffffffff8211156119255761192461188f565b5b61192e82611776565b9050602081019050919050565b82818337600083830152505050565b600061195d6119588461190a565b6118ef565b9050828152602081018484840111156119795761197861188a565b5b61198484828561193b565b509392505050565b600082601f8301126119a1576119a0611885565b5b81356119b184826020860161194a565b91505092915050565b600080600080600080600060e0888a0312156119d9576119d86117ec565b5b60006119e78a828b01611870565b97505060206119f88a828b0161180d565b9650506040611a098a828b0161180d565b955050606088013567ffffffffffffffff811115611a2a57611a296117f1565b5b611a368a828b0161198c565b945050608088013567ffffffffffffffff811115611a5757611a566117f1565b5b611a638a828b0161198c565b93505060a0611a748a828b0161180d565b92505060c0611a858a828b0161180d565b91505092959891949750929550565b611a9d816116cb565b8114611aa857600080fd5b50565b600081359050611aba81611a94565b92915050565b600080600060608486031215611ad957611ad86117ec565b5b6000611ae786828701611aab565b935050602084013567ffffffffffffffff811115611b0857611b076117f1565b5b611b148682870161198c565b9250506040611b258682870161180d565b9150509250925092565b60007fffffffff0000000000000000000000000000000000000000000000000000000082169050919050565b611b6481611b2f565b8114611b6f57600080fd5b50565b600081359050611b8181611b5b565b92915050565b60008060008060808587031215611ba157611ba06117ec565b5b6000611baf87828801611870565b9450506020611bc08782880161180d565b9350506040611bd187828801611b72565b9250506060611be28782880161180d565b91505092959194509250565b600060208284031215611c0457611c036117ec565b5b6000611c1284828501611aab565b91505092915050565b600081519050611c2a816117f6565b92915050565b600060208284031215611c4657611c456117ec565b5b6000611c5484828501611c1b565b91505092915050565b7f4d7573742062652070726f706f736564206f776e657200000000000000000000600082015250565b6000611c9360168361173b565b9150611c9e82611c5d565b602082019050919050565b60006020820190508181036000830152611cc281611c86565b9050919050565b7f4e487b7100000000000000000000000000000000000000000000000000000000600052602260045260246000fd5b60006002820490506001821680611d1057607f821691505b602082108103611d2357611d22611cc9565b5b50919050565b6000604082019050611d3e60008301856116dd565b611d4b6020830184611681565b9392505050565b60008115159050919050565b611d6781611d52565b8114611d7257600080fd5b50565b600081519050611d8481611d5e565b92915050565b600060208284031215611da057611d9f6117ec565b5b6000611dae84828501611d75565b91505092915050565b7f556e61626c6520746f207472616e73666572204c696e6b000000000000000000600082015250565b6000611ded60178361173b565b9150611df882611db7565b602082019050919050565b60006020820190508181036000830152611e1c81611de0565b9050919050565b7f536f75726365206d75737420626520746865206f7261636c65206f662074686560008201527f2072657175657374000000000000000000000000000000000000000000000000602082015250565b6000611e7f60288361173b565b9150611e8a82611e23565b604082019050919050565b60006020820190508181036000830152611eae81611e72565b9050919050565b60006040820190508181036000830152611ecf8185611787565b90508181036020830152611ee38184611787565b90509392505050565b60008190508160005260206000209050919050565b60006020601f8301049050919050565b600082821b905092915050565b600060088302611f4e7fffffffffffffffffffffffffffffffffffffffffffffffffffffffffffffffff82611f11565b611f588683611f11565b95508019841693508086168417925050509392505050565b6000819050919050565b6000611f95611f90611f8b84611677565b611f70565b611677565b9050919050565b6000819050919050565b611faf83611f7a565b611fc3611fbb82611f9c565b848454611f1e565b825550505050565b600090565b611fd8611fcb565b611fe3818484611fa6565b505050565b5b8181101561200757611ffc600082611fd0565b600181019050611fe9565b5050565b601f82111561204c5761201d81611eec565b61202684611f01565b81016020851015612035578190505b61204961204185611f01565b830182611fe8565b50505b505050565b600082821c905092915050565b600061206f60001984600802612051565b1980831691505092915050565b6000612088838361205e565b9150826002028217905092915050565b6120a182611730565b67ffffffffffffffff8111156120ba576120b961188f565b5b6120c48254611cf8565b6120cf82828561200b565b600060209050601f83116001811461210257600084156120f0578287015190505b6120fa858261207c565b865550612162565b601f19841661211086611eec565b60005b8281101561213857848901518255600182019150602085019450602081019050612113565b868310156121555784890151612151601f89168261205e565b8355505b6001600288020188555050505b505050505050565b7f4e487b7100000000000000000000000000000000000000000000000000000000600052601160045260246000fd5b60006121a482611677565b91506121af83611677565b92508282026121bd81611677565b915082820484148315176121d4576121d361216a565b5b5092915050565b7f4e487b7100000000000000000000000000000000000000000000000000000000600052601260045260246000fd5b600061221582611677565b915061222083611677565b9250826122305761222f6121db565b5b828204905092915050565b7f4f6e6c792063616c6c61626c65206279206f776e657200000000000000000000600082015250565b600061227160168361173b565b915061227c8261223b565b602082019050919050565b600060208201905081810360008301526122a081612264565b9050919050565b60006122b282611677565b91506122bd83611677565b92508282019050808211156122d5576122d461216a565b5b92915050565b6122e48161184f565b82525050565b6122f381611b2f565b82525050565b600081519050919050565b600082825260208201905092915050565b6000612320826122f9565b61232a8185612304565b935061233a81856020860161174c565b61234381611776565b840191505092915050565b600060e082019050612363600083018a6116dd565b6123706020830189611681565b61237d60408301886122db565b61238a60608301876122ea565b6123976080830186611681565b6123a460a0830185611681565b81810360c08301526123b68184612315565b905098975050505050505050565b60006080820190506123d960008301876122db565b6123e66020830186611681565b6123f360408301856122ea565b6124006060830184611681565b95945050505050565b7f43616e6e6f74207472616e7366657220746f2073656c66000000000000000000600082015250565b600061243f60178361173b565b915061244a82612409565b602082019050919050565b6000602082019050818103600083015261246e81612432565b9050919050565b600061249061248b612486846116ab565b611f70565b6116ab565b9050919050565b60006124a282612475565b9050919050565b60006124b482612497565b9050919050565b60008160601b9050919050565b60006124d3826124bb565b9050919050565b60006124e5826124c8565b9050919050565b6124fd6124f8826124a9565b6124da565b82525050565b6000819050919050565b61251e61251982611677565b612503565b82525050565b600061253082856124ec565b601482019150612540828461250d565b6020820191508190509392505050565b600060608201905061256560008301866116dd565b6125726020830185611681565b81810360408301526125848184612315565b9050949350505050565b7f756e61626c6520746f207472616e73666572416e6443616c6c20746f206f726160008201527f636c650000000000000000000000000000000000000000000000000000000000602082015250565b60006125ea60238361173b565b91506125f58261258e565b604082019050919050565b60006020820190508181036000830152612619816125dd565b9050919050565b600061262b82611677565b915061263683611677565b925082612646576126456121db565b5b828206905092915050565b600061265c82611677565b915061266783611677565b925082820390508181111561267f5761267e61216a565b5b92915050565b60008160011c9050919050565b6000808291508390505b60018511156126dc578086048111156126b8576126b761216a565b5b60018516156126c75780820291505b80810290506126d585612685565b945061269c565b94509492505050565b6000826126f557600190506127b1565b8161270357600090506127b1565b8160018114612719576002811461272357612752565b60019150506127b1565b60ff8411156127355761273461216a565b5b8360020a91508482111561274c5761274b61216a565b5b506127b1565b5060208310610133831016604e8410600b84101617156127875782820a9050838111156127825761278161216a565b5b6127b1565b6127948484846001612692565b925090508184048111156127ab576127aa61216a565b5b81810290505b9392505050565b60006127c382611677565b91506127ce83611677565b92506127fb7fffffffffffffffffffffffffffffffffffffffffffffffffffffffffffffffff84846126e5565b90509291505056fea2646970667358221220c4ff915aff8eb12a6bb53a14c9aa4cbc0170fdbb0cf9d5a56b625761f55dab2364736f6c63430008120033",
  "linkReferences": {},
  "deployedLinkReferences": {}
}