{
  "_format": "hh-sol-artifact-1",
  "contractName": "BetOnChain",
  "sourceName": "contracts/BetOnChain.sol",
  "abi": [
    {
      "inputs": [
        {
          "internalType": "address",
          "name": "bocTokenAddress",
          "type": "address"
        }
      ],
      "stateMutability": "nonpayable",
      "type": "constructor"
    },
    {
      "inputs": [],
      "name": "BetOnChain__RequirementsNotMet",
      "type": "error"
    },
    {
      "inputs": [],
      "name": "BetOnChain__ThereIsNoWinnerOrWinnerNotSet",
      "type": "error"
    },
    {
      "inputs": [],
      "name": "BetOnChain__ThisAchievementDoesNotExist",
      "type": "error"
    },
    {
      "inputs": [],
      "name": "BetOnChain__ThisIdIsAlreadyUsed",
      "type": "error"
    },
    {
      "inputs": [],
      "name": "BetOnChain__ThisTeamDoesNotExist",
      "type": "error"
    },
    {
      "inputs": [],
      "name": "BetOnChain__YouBetIsNotAWinningBet",
      "type": "error"
    },
    {
      "inputs": [],
      "name": "BetOnChain__YouNeedTheNftToWithdrawPrize",
      "type": "error"
    },
    {
      "anonymous": false,
      "inputs": [
        {
          "indexed": true,
          "internalType": "address",
          "name": "previousOwner",
          "type": "address"
        },
        {
          "indexed": true,
          "internalType": "address",
          "name": "newOwner",
          "type": "address"
        }
      ],
      "name": "OwnershipTransferred",
      "type": "event"
    },
    {
      "inputs": [],
      "name": "_setWinnerBetId0",
      "outputs": [],
      "stateMutability": "nonpayable",
      "type": "function"
    },
    {
      "inputs": [
        {
          "internalType": "address",
          "name": "",
          "type": "address"
        },
        {
          "internalType": "uint256",
          "name": "",
          "type": "uint256"
        }
      ],
      "name": "addressToBetToPlayer",
      "outputs": [
        {
          "internalType": "address",
          "name": "player",
          "type": "address"
        },
        {
          "internalType": "uint256",
          "name": "betId",
          "type": "uint256"
        },
        {
          "internalType": "uint256",
          "name": "betAmount",
          "type": "uint256"
        },
        {
          "internalType": "uint256",
          "name": "betFor",
          "type": "uint256"
        },
        {
          "internalType": "uint256",
          "name": "nftId",
          "type": "uint256"
        }
      ],
      "stateMutability": "view",
      "type": "function"
    },
    {
      "inputs": [
        {
          "internalType": "uint256",
          "name": "betAmount",
          "type": "uint256"
        },
        {
          "internalType": "uint256",
          "name": "betFor",
          "type": "uint256"
        },
        {
          "internalType": "uint256",
          "name": "betId",
          "type": "uint256"
        }
      ],
      "name": "bet",
      "outputs": [],
      "stateMutability": "nonpayable",
      "type": "function"
    },
    {
      "inputs": [
        {
          "internalType": "uint256",
          "name": "",
          "type": "uint256"
        }
      ],
      "name": "bets",
      "outputs": [
        {
          "internalType": "uint256",
          "name": "oddsfor1",
          "type": "uint256"
        },
        {
          "internalType": "uint256",
          "name": "oddsfor2",
          "type": "uint256"
        },
        {
          "internalType": "uint256",
          "name": "oddsforDraw",
          "type": "uint256"
        },
        {
          "internalType": "bool",
          "name": "betsOpen",
          "type": "bool"
        },
        {
          "internalType": "bool",
          "name": "betsExist",
          "type": "bool"
        },
        {
          "internalType": "uint256",
          "name": "totalBetAmountFor1",
          "type": "uint256"
        },
        {
          "internalType": "uint256",
          "name": "totalBetAmountFor2",
          "type": "uint256"
        },
        {
          "internalType": "uint256",
          "name": "totalBetAmount",
          "type": "uint256"
        },
        {
          "internalType": "uint256",
          "name": "winner",
          "type": "uint256"
        }
      ],
      "stateMutability": "view",
      "type": "function"
    },
    {
      "inputs": [],
      "name": "bocNFT",
      "outputs": [
        {
          "internalType": "contract BocNFT",
          "name": "",
          "type": "address"
        }
      ],
      "stateMutability": "view",
      "type": "function"
    },
    {
      "inputs": [],
      "name": "bocToken",
      "outputs": [
        {
          "internalType": "contract BocToken",
          "name": "",
          "type": "address"
        }
      ],
      "stateMutability": "view",
      "type": "function"
    },
    {
      "inputs": [
        {
          "internalType": "address",
          "name": "oracle",
          "type": "address"
        },
        {
          "internalType": "string",
          "name": "jobId",
          "type": "string"
        },
        {
          "internalType": "uint256",
          "name": "betId",
          "type": "uint256"
        }
      ],
      "name": "callResults",
      "outputs": [],
      "stateMutability": "nonpayable",
      "type": "function"
    },
    {
      "inputs": [
        {
          "internalType": "uint256",
          "name": "betId",
          "type": "uint256"
        }
      ],
      "name": "closeBet",
      "outputs": [],
      "stateMutability": "nonpayable",
      "type": "function"
    },
    {
      "inputs": [],
      "name": "consumerContract",
      "outputs": [
        {
          "internalType": "contract ConsumerContract",
          "name": "",
          "type": "address"
        }
      ],
      "stateMutability": "view",
      "type": "function"
    },
    {
      "inputs": [
        {
          "internalType": "uint256[]",
          "name": "betId",
          "type": "uint256[]"
        },
        {
          "internalType": "uint256[]",
          "name": "oddsfor1",
          "type": "uint256[]"
        },
        {
          "internalType": "uint256[]",
          "name": "oddsforDraw",
          "type": "uint256[]"
        },
        {
          "internalType": "uint256[]",
          "name": "oddsfor2",
          "type": "uint256[]"
        }
      ],
      "name": "createBet",
      "outputs": [],
      "stateMutability": "nonpayable",
      "type": "function"
    },
    {
      "inputs": [],
      "name": "getAchievementRequirement",
      "outputs": [
        {
          "components": [
            {
              "internalType": "uint256",
              "name": "beginnerNumberOfBets",
              "type": "uint256"
            },
            {
              "internalType": "uint256",
              "name": "warriorNumberOfBets",
              "type": "uint256"
            },
            {
              "internalType": "uint256",
              "name": "expertNumberOfBets",
              "type": "uint256"
            }
          ],
          "internalType": "struct BetOnChain.AchievementRequirement",
          "name": "",
          "type": "tuple"
        }
      ],
      "stateMutability": "view",
      "type": "function"
    },
    {
      "inputs": [],
      "name": "getAchievementURI",
      "outputs": [
        {
          "components": [
            {
              "internalType": "string",
              "name": "beginner",
              "type": "string"
            },
            {
              "internalType": "string",
              "name": "warrior",
              "type": "string"
            },
            {
              "internalType": "string",
              "name": "expert",
              "type": "string"
            }
          ],
          "internalType": "struct BetOnChain.AchievementURI",
          "name": "",
          "type": "tuple"
        }
      ],
      "stateMutability": "view",
      "type": "function"
    },
    {
      "inputs": [],
      "name": "getBetPositionURI",
      "outputs": [
        {
          "internalType": "string",
          "name": "",
          "type": "string"
        }
      ],
      "stateMutability": "view",
      "type": "function"
    },
    {
      "inputs": [
        {
          "internalType": "uint256",
          "name": "betId",
          "type": "uint256"
        }
      ],
      "name": "getOddsForTeam1",
      "outputs": [
        {
          "internalType": "uint256",
          "name": "",
          "type": "uint256"
        }
      ],
      "stateMutability": "view",
      "type": "function"
    },
    {
      "inputs": [
        {
          "internalType": "uint256",
          "name": "betId",
          "type": "uint256"
        }
      ],
      "name": "getOddsForTeam2",
      "outputs": [
        {
          "internalType": "uint256",
          "name": "",
          "type": "uint256"
        }
      ],
      "stateMutability": "view",
      "type": "function"
    },
    {
      "inputs": [
        {
          "internalType": "uint256",
          "name": "betId",
          "type": "uint256"
        }
      ],
      "name": "getWinner",
      "outputs": [],
      "stateMutability": "nonpayable",
      "type": "function"
    },
    {
      "inputs": [
        {
          "internalType": "uint256",
          "name": "achievementLevelToMint",
          "type": "uint256"
        }
      ],
      "name": "mintAchievementNft",
      "outputs": [],
      "stateMutability": "nonpayable",
      "type": "function"
    },
    {
      "inputs": [
        {
          "internalType": "address",
          "name": "",
          "type": "address"
        }
      ],
      "name": "numberOfBets",
      "outputs": [
        {
          "internalType": "uint256",
          "name": "",
          "type": "uint256"
        }
      ],
      "stateMutability": "view",
      "type": "function"
    },
    {
      "inputs": [
        {
          "internalType": "uint256",
          "name": "betId",
          "type": "uint256"
        }
      ],
      "name": "openBet",
      "outputs": [],
      "stateMutability": "nonpayable",
      "type": "function"
    },
    {
      "inputs": [],
      "name": "owner",
      "outputs": [
        {
          "internalType": "address",
          "name": "",
          "type": "address"
        }
      ],
      "stateMutability": "view",
      "type": "function"
    },
    {
      "inputs": [],
      "name": "renounceOwnership",
      "outputs": [],
      "stateMutability": "nonpayable",
      "type": "function"
    },
    {
      "inputs": [
        {
          "internalType": "uint256",
          "name": "beginnerNumberOfBets",
          "type": "uint256"
        },
        {
          "internalType": "uint256",
          "name": "warriorNumberOfBets",
          "type": "uint256"
        },
        {
          "internalType": "uint256",
          "name": "expertNumberOfBets",
          "type": "uint256"
        }
      ],
      "name": "setAchievementRequirement",
      "outputs": [],
      "stateMutability": "nonpayable",
      "type": "function"
    },
    {
      "inputs": [
        {
          "internalType": "string",
          "name": "beginnerURI",
          "type": "string"
        },
        {
          "internalType": "string",
          "name": "warriorURI",
          "type": "string"
        },
        {
          "internalType": "string",
          "name": "expertURI",
          "type": "string"
        }
      ],
      "name": "setAchievementURI",
      "outputs": [],
      "stateMutability": "nonpayable",
      "type": "function"
    },
    {
      "inputs": [
        {
          "internalType": "string",
          "name": "_betPositionURI",
          "type": "string"
        }
      ],
      "name": "setBetPositionURI",
      "outputs": [],
      "stateMutability": "nonpayable",
      "type": "function"
    },
    {
      "inputs": [
        {
          "internalType": "address",
          "name": "newOwner",
          "type": "address"
        }
      ],
      "name": "transferOwnership",
      "outputs": [],
      "stateMutability": "nonpayable",
      "type": "function"
    },
    {
      "inputs": [
        {
          "internalType": "uint256",
          "name": "betId",
          "type": "uint256"
        }
      ],
      "name": "withdrawPrize",
      "outputs": [],
      "stateMutability": "nonpayable",
      "type": "function"
    }
  ],
  "bytecode": "0x60806040523480156200001157600080fd5b5060405162009ec138038062009ec18339818101604052810190620000379190620002c9565b620000576200004b6200017760201b60201c565b6200017f60201b60201c565b604051620000659062000243565b604051809103906000f08015801562000082573d6000803e3d6000fd5b50600860006101000a81548173ffffffffffffffffffffffffffffffffffffffff021916908373ffffffffffffffffffffffffffffffffffffffff160217905550604051620000d19062000251565b604051809103906000f080158015620000ee573d6000803e3d6000fd5b50600a60006101000a81548173ffffffffffffffffffffffffffffffffffffffff021916908373ffffffffffffffffffffffffffffffffffffffff16021790555080600960006101000a81548173ffffffffffffffffffffffffffffffffffffffff021916908373ffffffffffffffffffffffffffffffffffffffff16021790555050620002fb565b600033905090565b60008060009054906101000a900473ffffffffffffffffffffffffffffffffffffffff169050816000806101000a81548173ffffffffffffffffffffffffffffffffffffffff021916908373ffffffffffffffffffffffffffffffffffffffff1602179055508173ffffffffffffffffffffffffffffffffffffffff168173ffffffffffffffffffffffffffffffffffffffff167f8be0079c531659141344cd1fd0a4f28419497f9722a3daafe3b4186f6b6457e060405160405180910390a35050565b613f3380620034cb83390190565b612ac380620073fe83390190565b600080fd5b600073ffffffffffffffffffffffffffffffffffffffff82169050919050565b6000620002918262000264565b9050919050565b620002a38162000284565b8114620002af57600080fd5b50565b600081519050620002c38162000298565b92915050565b600060208284031215620002e257620002e16200025f565b5b6000620002f284828501620002b2565b91505092915050565b6131c0806200030b6000396000f3fe608060405234801561001057600080fd5b506004361061018e5760003560e01c80639d8ac2cd116100de578063c20eec7b11610097578063c84b585411610071578063c84b585414610427578063ea62596c14610457578063f074281f14610475578063f2fde38b146104a95761018e565b8063c20eec7b146103cf578063c2c90f1d146103eb578063c7387ad2146104095761018e565b80639d8ac2cd146103135780639edf3c921461032f578063a24beff71461034b578063a253c3c914610367578063a485262914610397578063bfc54822146103b35761018e565b80634129b2c91161014b5780636c2ebeef116101255780636c2ebeef146102b35780636de0b375146102cf578063715018a6146102eb5780638da5cb5b146102f55761018e565b80634129b2c914610271578063517bca551461028d5780635bfd03b8146102a95761018e565b8063017286641461019357806310dc74c9146101c357806322af00fa146101e157806322dbddb1146102195780632a2869581461023757806333b5c99f14610253575b600080fd5b6101ad60048036038101906101a89190611f66565b6104c5565b6040516101ba9190611fa2565b60405180910390f35b6101cb6104e5565b6040516101d8919061204d565b60405180910390f35b6101fb60048036038101906101f69190611f66565b610577565b6040516102109998979695949392919061208a565b60405180910390f35b6102216105df565b60405161022e9190612196565b60405180910390f35b610251600480360381019061024c91906122e6565b610605565b005b61025b61064a565b6040516102689190612435565b60405180910390f35b61028b60048036038101906102869190611f66565b61081a565b005b6102a760048036038101906102a29190612457565b6108d9565b005b6102b16108f4565b005b6102cd60048036038101906102c89190611f66565b61091a565b005b6102e960048036038101906102e49190611f66565b610ca5565b005b6102f3610d45565b005b6102fd610d59565b60405161030a91906124c1565b60405180910390f35b61032d600480360381019061032891906124dc565b610d82565b005b6103496004803603810190610344919061255b565b610dad565b005b61036560048036038101906103609190611f66565b610ea9565b005b610381600480360381019061037c91906125ca565b610f48565b60405161038e9190611fa2565b60405180910390f35b6103b160048036038101906103ac9190612657565b610f60565b005b6103cd60048036038101906103c891906124dc565b6111d4565b005b6103e960048036038101906103e49190611f66565b61134f565b005b6103f3611519565b6040516104009190612791565b60405180910390f35b610411611551565b60405161041e91906127cd565b60405180910390f35b610441600480360381019061043c9190611f66565b611577565b60405161044e9190611fa2565b60405180910390f35b61045f611597565b60405161046c9190612809565b60405180910390f35b61048f600480360381019061048a9190612824565b6115bd565b6040516104a0959493929190612864565b60405180910390f35b6104c360048036038101906104be91906125ca565b611620565b005b6000600c6000838152602001908152602001600020600001549050919050565b6060600180546104f4906128e6565b80601f0160208091040260200160405190810160405280929190818152602001828054610520906128e6565b801561056d5780601f106105425761010080835404028352916020019161056d565b820191906000526020600020905b81548152906001019060200180831161055057829003601f168201915b5050505050905090565b600c6020528060005260406000206000915090508060000154908060010154908060020154908060030160009054906101000a900460ff16908060030160019054906101000a900460ff16908060040154908060050154908060060154908060070154905089565b600a60009054906101000a900473ffffffffffffffffffffffffffffffffffffffff1681565b61060d6116a3565b826002600001908161061f9190612ab9565b5081600260010190816106329190612ab9565b50806002800190816106449190612ab9565b50505050565b610652611eda565b600260405180606001604052908160008201805461066f906128e6565b80601f016020809104026020016040519081016040528092919081815260200182805461069b906128e6565b80156106e85780601f106106bd576101008083540402835291602001916106e8565b820191906000526020600020905b8154815290600101906020018083116106cb57829003601f168201915b50505050508152602001600182018054610701906128e6565b80601f016020809104026020016040519081016040528092919081815260200182805461072d906128e6565b801561077a5780601f1061074f5761010080835404028352916020019161077a565b820191906000526020600020905b81548152906001019060200180831161075d57829003601f168201915b50505050508152602001600282018054610793906128e6565b80601f01602080910402602001604051908101604052809291908181526020018280546107bf906128e6565b801561080c5780601f106107e15761010080835404028352916020019161080c565b820191906000526020600020905b8154815290600101906020018083116107ef57829003601f168201915b505050505081525050905090565b6000600a60009054906101000a900473ffffffffffffffffffffffffffffffffffffffff1673ffffffffffffffffffffffffffffffffffffffff166389ca38c3836040518263ffffffff1660e01b81526004016108779190611fa2565b602060405180830381865afa158015610894573d6000803e3d6000fd5b505050506040513d601f19601f820116820180604052508101906108b89190612ba0565b905080600c6000848152602001908152602001600020600701819055505050565b6108e16116a3565b80600190816108f09190612ab9565b5050565b6108fc6116a3565b6001600c600080815260200190815260200160002060070181905550565b60008103610a3457600560010154600b60003373ffffffffffffffffffffffffffffffffffffffff1673ffffffffffffffffffffffffffffffffffffffff1681526020019081526020016000205410156109a0576040517f0c2f58c200000000000000000000000000000000000000000000000000000000815260040160405180910390fd5b600860009054906101000a900473ffffffffffffffffffffffffffffffffffffffff1673ffffffffffffffffffffffffffffffffffffffff1663d204c45e3360026000016040518363ffffffff1660e01b8152600401610a01929190612c51565b600060405180830381600087803b158015610a1b57600080fd5b505af1158015610a2f573d6000803e3d6000fd5b505050505b60018103610b4e57600560010154600b60003373ffffffffffffffffffffffffffffffffffffffff1673ffffffffffffffffffffffffffffffffffffffff168152602001908152602001600020541015610aba576040517f0c2f58c200000000000000000000000000000000000000000000000000000000815260040160405180910390fd5b600860009054906101000a900473ffffffffffffffffffffffffffffffffffffffff1673ffffffffffffffffffffffffffffffffffffffff1663d204c45e3360026001016040518363ffffffff1660e01b8152600401610b1b929190612c51565b600060405180830381600087803b158015610b3557600080fd5b505af1158015610b49573d6000803e3d6000fd5b505050505b60028103610c6757600560020154600b60003373ffffffffffffffffffffffffffffffffffffffff1673ffffffffffffffffffffffffffffffffffffffff168152602001908152602001600020541015610bd4576040517f0c2f58c200000000000000000000000000000000000000000000000000000000815260040160405180910390fd5b600860009054906101000a900473ffffffffffffffffffffffffffffffffffffffff1673ffffffffffffffffffffffffffffffffffffffff1663d204c45e33600280016040518363ffffffff1660e01b8152600401610c34929190612c51565b600060405180830381600087803b158015610c4e57600080fd5b505af1158015610c62573d6000803e3d6000fd5b505050505b6002811115610ca2576040517f1139eba300000000000000000000000000000000000000000000000000000000815260040160405180910390fd5b50565b610cad6116a3565b80600c600082815260200190815260200160002060030160009054906101000a900460ff1615610d12576040517f08c379a0000000000000000000000000000000000000000000000000000000008152600401610d0990612ccd565b60405180910390fd5b6001600c600084815260200190815260200160002060030160006101000a81548160ff0219169083151502179055505050565b610d4d6116a3565b610d576000611721565b565b60008060009054906101000a900473ffffffffffffffffffffffffffffffffffffffff16905090565b610d8a6116a3565b826005600001819055508160056001018190555080600560020181905550505050565b80600c600082815260200190815260200160002060030160009054906101000a900460ff1615610e12576040517f08c379a0000000000000000000000000000000000000000000000000000000008152600401610e0990612ccd565b60405180910390fd5b600a60009054906101000a900473ffffffffffffffffffffffffffffffffffffffff1673ffffffffffffffffffffffffffffffffffffffff1663c4fe9f488585856040518463ffffffff1660e01b8152600401610e7193929190612ced565b600060405180830381600087803b158015610e8b57600080fd5b505af1158015610e9f573d6000803e3d6000fd5b5050505050505050565b610eb16116a3565b80600c600082815260200190815260200160002060030160009054906101000a900460ff16610f15576040517f08c379a0000000000000000000000000000000000000000000000000000000008152600401610f0c90612d77565b60405180910390fd5b6000600c600084815260200190815260200160002060030160006101000a81548160ff0219169083151502179055505050565b600b6020528060005260406000206000915090505481565b610f686116a3565b6000888890509050600081118015610f8257508686905081145b8015610f9057508282905081145b8015610f9e57508484905081145b610fdd576040517f08c379a0000000000000000000000000000000000000000000000000000000008152600401610fd490612e09565b60405180910390fd5b60005b818110156111c857600c60008b8b84818110610fff57610ffe612e29565b5b90506020020135815260200190815260200160002060030160019054906101000a900460ff161561105c576040517faa44239700000000000000000000000000000000000000000000000000000000815260040160405180910390fd5b60006040518061012001604052808a8a8581811061107d5761107c612e29565b5b90506020020135815260200186868581811061109c5761109b612e29565b5b9050602002013581526020018888858181106110bb576110ba612e29565b5b905060200201358152602001600015158152602001600115158152602001670de0b6b3a76400008152602001670de0b6b3a76400008152602001600081526020016000815250905080600c60008d8d8681811061111b5761111a612e29565b5b90506020020135815260200190815260200160002060008201518160000155602082015181600101556040820151816002015560608201518160030160006101000a81548160ff02191690831515021790555060808201518160030160016101000a81548160ff02191690831515021790555060a0820151816004015560c0820151816005015560e082015181600601556101008201518160070155905050818060010192505050610fe0565b50505050505050505050565b80600c600082815260200190815260200160002060030160009054906101000a900460ff16611238576040517f08c379a000000000000000000000000000000000000000000000000000000000815260040161122f90612d77565b60405180910390fd5b6001831415801561124a575060028314155b15611281576040517f2fcd326400000000000000000000000000000000000000000000000000000000815260040160405180910390fd5b600960009054906101000a900473ffffffffffffffffffffffffffffffffffffffff1673ffffffffffffffffffffffffffffffffffffffff166323b872dd3330876040518463ffffffff1660e01b81526004016112e093929190612e58565b6020604051808303816000875af11580156112ff573d6000803e3d6000fd5b505050506040513d601f19601f820116820180604052508101906113239190612ebb565b50600061132e6117e5565b905061133d3384878785611912565b611348858486611a75565b5050505050565b80600c600082815260200190815260200160002060030160009054906101000a900460ff16156113b4576040517f08c379a00000000000000000000000000000000000000000000000000000000081526004016113ab90612ccd565b60405180910390fd5b6000600c600084815260200190815260200160002060070154905080600d60003373ffffffffffffffffffffffffffffffffffffffff1673ffffffffffffffffffffffffffffffffffffffff1681526020019081526020016000206000858152602001908152602001600020600301541461145b576040517f6ab2556a00000000000000000000000000000000000000000000000000000000815260040160405180910390fd5b61146483611bd3565b60006114708483611dbc565b9050600960009054906101000a900473ffffffffffffffffffffffffffffffffffffffff1673ffffffffffffffffffffffffffffffffffffffff1663a9059cbb33836040518363ffffffff1660e01b81526004016114cf929190612ee8565b6020604051808303816000875af11580156114ee573d6000803e3d6000fd5b505050506040513d601f19601f820116820180604052508101906115129190612ebb565b5050505050565b611521611efb565b60056040518060600160405290816000820154815260200160018201548152602001600282015481525050905090565b600960009054906101000a900473ffffffffffffffffffffffffffffffffffffffff1681565b6000600c6000838152602001908152602001600020600101549050919050565b600860009054906101000a900473ffffffffffffffffffffffffffffffffffffffff1681565b600d602052816000526040600020602052806000526040600020600091509150508060000160009054906101000a900473ffffffffffffffffffffffffffffffffffffffff16908060010154908060020154908060030154908060040154905085565b6116286116a3565b600073ffffffffffffffffffffffffffffffffffffffff168173ffffffffffffffffffffffffffffffffffffffff1603611697576040517f08c379a000000000000000000000000000000000000000000000000000000000815260040161168e90612f83565b60405180910390fd5b6116a081611721565b50565b6116ab611ed2565b73ffffffffffffffffffffffffffffffffffffffff166116c9610d59565b73ffffffffffffffffffffffffffffffffffffffff161461171f576040517f08c379a000000000000000000000000000000000000000000000000000000000815260040161171690612fef565b60405180910390fd5b565b60008060009054906101000a900473ffffffffffffffffffffffffffffffffffffffff169050816000806101000a81548173ffffffffffffffffffffffffffffffffffffffff021916908373ffffffffffffffffffffffffffffffffffffffff1602179055508173ffffffffffffffffffffffffffffffffffffffff168173ffffffffffffffffffffffffffffffffffffffff167f8be0079c531659141344cd1fd0a4f28419497f9722a3daafe3b4186f6b6457e060405160405180910390a35050565b600080600860009054906101000a900473ffffffffffffffffffffffffffffffffffffffff1673ffffffffffffffffffffffffffffffffffffffff16636c1438626040518163ffffffff1660e01b8152600401602060405180830381865afa158015611855573d6000803e3d6000fd5b505050506040513d601f19601f820116820180604052508101906118799190612ba0565b9050600860009054906101000a900473ffffffffffffffffffffffffffffffffffffffff1673ffffffffffffffffffffffffffffffffffffffff1663d204c45e3360016040518363ffffffff1660e01b81526004016118d9929190612c51565b600060405180830381600087803b1580156118f357600080fd5b505af1158015611907573d6000803e3d6000fd5b505050508091505090565b60006040518060a001604052808773ffffffffffffffffffffffffffffffffffffffff16815260200186815260200185815260200184815260200183815250905080600d60003373ffffffffffffffffffffffffffffffffffffffff1673ffffffffffffffffffffffffffffffffffffffff168152602001908152602001600020600087815260200190815260200160002060008201518160000160006101000a81548173ffffffffffffffffffffffffffffffffffffffff021916908373ffffffffffffffffffffffffffffffffffffffff160217905550602082015181600101556040820151816002015560608201518160030155608082015181600401559050506001600b60003373ffffffffffffffffffffffffffffffffffffffff1673ffffffffffffffffffffffffffffffffffffffff1681526020019081526020016000206000828254611a66919061303e565b92505081905550505050505050565b60018103611aaf5782600c60008481526020019081526020016000206004016000828254611aa3919061303e565b92505081905550611add565b82600c60008481526020019081526020016000206005016000828254611ad5919061303e565b925050819055505b82600c60008481526020019081526020016000206006016000828254611b03919061303e565b925050819055506000600c60008481526020019081526020016000206004015490506000600c600085815260200190815260200160002060050154905060006127108261271085611b549190613072565b611b5e91906130e3565b611b68919061303e565b905080600c60008781526020019081526020016000206001018190555060006127108461271085611b999190613072565b611ba391906130e3565b611bad919061303e565b905080600c60008881526020019081526020016000206000018190555050505050505050565b6000600d60003373ffffffffffffffffffffffffffffffffffffffff1673ffffffffffffffffffffffffffffffffffffffff16815260200190815260200160002060008381526020019081526020016000206004015490503373ffffffffffffffffffffffffffffffffffffffff16600860009054906101000a900473ffffffffffffffffffffffffffffffffffffffff1673ffffffffffffffffffffffffffffffffffffffff16636352211e836040518263ffffffff1660e01b8152600401611c9d9190611fa2565b602060405180830381865afa158015611cba573d6000803e3d6000fd5b505050506040513d601f19601f82011682018060405250810190611cde9190613129565b73ffffffffffffffffffffffffffffffffffffffff1614611d2b576040517f99fbf1fd00000000000000000000000000000000000000000000000000000000815260040160405180910390fd5b600860009054906101000a900473ffffffffffffffffffffffffffffffffffffffff1673ffffffffffffffffffffffffffffffffffffffff166342966c68826040518263ffffffff1660e01b8152600401611d869190611fa2565b600060405180830381600087803b158015611da057600080fd5b505af1158015611db4573d6000803e3d6000fd5b505050505050565b600080600d60003373ffffffffffffffffffffffffffffffffffffffff1673ffffffffffffffffffffffffffffffffffffffff1681526020019081526020016000206000858152602001908152602001600020600201549050600060018403611e3d57600c6000868152602001908152602001600020600001549050611e96565b60028403611e6357600c6000868152602001908152602001600020600101549050611e95565b6040517f74943b7f00000000000000000000000000000000000000000000000000000000815260040160405180910390fd5b5b6000670de0b6b3a76400006127108385611eb09190613072565b611eba91906130e3565b611ec49190613156565b905080935050505092915050565b600033905090565b60405180606001604052806060815260200160608152602001606081525090565b60405180606001604052806000815260200160008152602001600081525090565b6000604051905090565b600080fd5b600080fd5b6000819050919050565b611f4381611f30565b8114611f4e57600080fd5b50565b600081359050611f6081611f3a565b92915050565b600060208284031215611f7c57611f7b611f26565b5b6000611f8a84828501611f51565b91505092915050565b611f9c81611f30565b82525050565b6000602082019050611fb76000830184611f93565b92915050565b600081519050919050565b600082825260208201905092915050565b60005b83811015611ff7578082015181840152602081019050611fdc565b60008484015250505050565b6000601f19601f8301169050919050565b600061201f82611fbd565b6120298185611fc8565b9350612039818560208601611fd9565b61204281612003565b840191505092915050565b600060208201905081810360008301526120678184612014565b905092915050565b60008115159050919050565b6120848161206f565b82525050565b6000610120820190506120a0600083018c611f93565b6120ad602083018b611f93565b6120ba604083018a611f93565b6120c7606083018961207b565b6120d4608083018861207b565b6120e160a0830187611f93565b6120ee60c0830186611f93565b6120fb60e0830185611f93565b612109610100830184611f93565b9a9950505050505050505050565b600073ffffffffffffffffffffffffffffffffffffffff82169050919050565b6000819050919050565b600061215c61215761215284612117565b612137565b612117565b9050919050565b600061216e82612141565b9050919050565b600061218082612163565b9050919050565b61219081612175565b82525050565b60006020820190506121ab6000830184612187565b92915050565b600080fd5b600080fd5b7f4e487b7100000000000000000000000000000000000000000000000000000000600052604160045260246000fd5b6121f382612003565b810181811067ffffffffffffffff82111715612212576122116121bb565b5b80604052505050565b6000612225611f1c565b905061223182826121ea565b919050565b600067ffffffffffffffff821115612251576122506121bb565b5b61225a82612003565b9050602081019050919050565b82818337600083830152505050565b600061228961228484612236565b61221b565b9050828152602081018484840111156122a5576122a46121b6565b5b6122b0848285612267565b509392505050565b600082601f8301126122cd576122cc6121b1565b5b81356122dd848260208601612276565b91505092915050565b6000806000606084860312156122ff576122fe611f26565b5b600084013567ffffffffffffffff81111561231d5761231c611f2b565b5b612329868287016122b8565b935050602084013567ffffffffffffffff81111561234a57612349611f2b565b5b612356868287016122b8565b925050604084013567ffffffffffffffff81111561237757612376611f2b565b5b612383868287016122b8565b9150509250925092565b600082825260208201905092915050565b60006123a982611fbd565b6123b3818561238d565b93506123c3818560208601611fd9565b6123cc81612003565b840191505092915050565b600060608301600083015184820360008601526123f4828261239e565b9150506020830151848203602086015261240e828261239e565b91505060408301518482036040860152612428828261239e565b9150508091505092915050565b6000602082019050818103600083015261244f81846123d7565b905092915050565b60006020828403121561246d5761246c611f26565b5b600082013567ffffffffffffffff81111561248b5761248a611f2b565b5b612497848285016122b8565b91505092915050565b60006124ab82612117565b9050919050565b6124bb816124a0565b82525050565b60006020820190506124d660008301846124b2565b92915050565b6000806000606084860312156124f5576124f4611f26565b5b600061250386828701611f51565b935050602061251486828701611f51565b925050604061252586828701611f51565b9150509250925092565b612538816124a0565b811461254357600080fd5b50565b6000813590506125558161252f565b92915050565b60008060006060848603121561257457612573611f26565b5b600061258286828701612546565b935050602084013567ffffffffffffffff8111156125a3576125a2611f2b565b5b6125af868287016122b8565b92505060406125c086828701611f51565b9150509250925092565b6000602082840312156125e0576125df611f26565b5b60006125ee84828501612546565b91505092915050565b600080fd5b600080fd5b60008083601f840112612617576126166121b1565b5b8235905067ffffffffffffffff811115612634576126336125f7565b5b6020830191508360208202830111156126505761264f6125fc565b5b9250929050565b6000806000806000806000806080898b03121561267757612676611f26565b5b600089013567ffffffffffffffff81111561269557612694611f2b565b5b6126a18b828c01612601565b9850985050602089013567ffffffffffffffff8111156126c4576126c3611f2b565b5b6126d08b828c01612601565b9650965050604089013567ffffffffffffffff8111156126f3576126f2611f2b565b5b6126ff8b828c01612601565b9450945050606089013567ffffffffffffffff81111561272257612721611f2b565b5b61272e8b828c01612601565b92509250509295985092959890939650565b61274981611f30565b82525050565b6060820160008201516127656000850182612740565b5060208201516127786020850182612740565b50604082015161278b6040850182612740565b50505050565b60006060820190506127a6600083018461274f565b92915050565b60006127b782612163565b9050919050565b6127c7816127ac565b82525050565b60006020820190506127e260008301846127be565b92915050565b60006127f382612163565b9050919050565b612803816127e8565b82525050565b600060208201905061281e60008301846127fa565b92915050565b6000806040838503121561283b5761283a611f26565b5b600061284985828601612546565b925050602061285a85828601611f51565b9150509250929050565b600060a08201905061287960008301886124b2565b6128866020830187611f93565b6128936040830186611f93565b6128a06060830185611f93565b6128ad6080830184611f93565b9695505050505050565b7f4e487b7100000000000000000000000000000000000000000000000000000000600052602260045260246000fd5b600060028204905060018216806128fe57607f821691505b602082108103612911576129106128b7565b5b50919050565b60008190508160005260206000209050919050565b60006020601f8301049050919050565b600082821b905092915050565b6000600883026129797fffffffffffffffffffffffffffffffffffffffffffffffffffffffffffffffff8261293c565b612983868361293c565b95508019841693508086168417925050509392505050565b60006129b66129b16129ac84611f30565b612137565b611f30565b9050919050565b6000819050919050565b6129d08361299b565b6129e46129dc826129bd565b848454612949565b825550505050565b600090565b6129f96129ec565b612a048184846129c7565b505050565b5b81811015612a2857612a1d6000826129f1565b600181019050612a0a565b5050565b601f821115612a6d57612a3e81612917565b612a478461292c565b81016020851015612a56578190505b612a6a612a628561292c565b830182612a09565b50505b505050565b600082821c905092915050565b6000612a9060001984600802612a72565b1980831691505092915050565b6000612aa98383612a7f565b9150826002028217905092915050565b612ac282611fbd565b67ffffffffffffffff811115612adb57612ada6121bb565b5b612ae582546128e6565b612af0828285612a2c565b600060209050601f831160018114612b235760008415612b11578287015190505b612b1b8582612a9d565b865550612b83565b601f198416612b3186612917565b60005b82811015612b5957848901518255600182019150602085019450602081019050612b34565b86831015612b765784890151612b72601f891682612a7f565b8355505b6001600288020188555050505b505050505050565b600081519050612b9a81611f3a565b92915050565b600060208284031215612bb657612bb5611f26565b5b6000612bc484828501612b8b565b91505092915050565b60008154612bda816128e6565b612be48186611fc8565b94506001821660008114612bff5760018114612c1557612c48565b60ff198316865281151560200286019350612c48565b612c1e85612917565b60005b83811015612c4057815481890152600182019150602081019050612c21565b808801955050505b50505092915050565b6000604082019050612c6660008301856124b2565b8181036020830152612c788184612bcd565b90509392505050565b7f426574206973206f70656e000000000000000000000000000000000000000000600082015250565b6000612cb7600b83611fc8565b9150612cc282612c81565b602082019050919050565b60006020820190508181036000830152612ce681612caa565b9050919050565b6000606082019050612d0260008301866124b2565b8181036020830152612d148185612014565b9050612d236040830184611f93565b949350505050565b7f42657420697320636c6f73656400000000000000000000000000000000000000600082015250565b6000612d61600d83611fc8565b9150612d6c82612d2b565b602082019050919050565b60006020820190508181036000830152612d9081612d54565b9050919050565b7f4265744f6e436861696e20696e76616c6964206c656e677468206f6620696e7060008201527f7574206172726179730000000000000000000000000000000000000000000000602082015250565b6000612df3602983611fc8565b9150612dfe82612d97565b604082019050919050565b60006020820190508181036000830152612e2281612de6565b9050919050565b7f4e487b7100000000000000000000000000000000000000000000000000000000600052603260045260246000fd5b6000606082019050612e6d60008301866124b2565b612e7a60208301856124b2565b612e876040830184611f93565b949350505050565b612e988161206f565b8114612ea357600080fd5b50565b600081519050612eb581612e8f565b92915050565b600060208284031215612ed157612ed0611f26565b5b6000612edf84828501612ea6565b91505092915050565b6000604082019050612efd60008301856124b2565b612f0a6020830184611f93565b9392505050565b7f4f776e61626c653a206e6577206f776e657220697320746865207a65726f206160008201527f6464726573730000000000000000000000000000000000000000000000000000602082015250565b6000612f6d602683611fc8565b9150612f7882612f11565b604082019050919050565b60006020820190508181036000830152612f9c81612f60565b9050919050565b7f4f776e61626c653a2063616c6c6572206973206e6f7420746865206f776e6572600082015250565b6000612fd9602083611fc8565b9150612fe482612fa3565b602082019050919050565b6000602082019050818103600083015261300881612fcc565b9050919050565b7f4e487b7100000000000000000000000000000000000000000000000000000000600052601160045260246000fd5b600061304982611f30565b915061305483611f30565b925082820190508082111561306c5761306b61300f565b5b92915050565b600061307d82611f30565b915061308883611f30565b925082820261309681611f30565b915082820484148315176130ad576130ac61300f565b5b5092915050565b7f4e487b7100000000000000000000000000000000000000000000000000000000600052601260045260246000fd5b60006130ee82611f30565b91506130f983611f30565b925082613109576131086130b4565b5b828204905092915050565b6000815190506131238161252f565b92915050565b60006020828403121561313f5761313e611f26565b5b600061314d84828501613114565b91505092915050565b600061316182611f30565b915061316c83611f30565b92508282039050818111156131845761318361300f565b5b9291505056fea264697066735822122003ef2e697ec3ed754f366fbdee1ad83285f85912aeeb43ce7e0a2a929ca82e9764736f6c6343000812003360806040523480156200001157600080fd5b506040518060400160405280600e81526020017f4265744f6e436861696e204e46540000000000000000000000000000000000008152506040518060400160405280600781526020017f424f43204e46540000000000000000000000000000000000000000000000000081525081600090816200008f919062000412565b508060019081620000a1919062000412565b505050620000c4620000b8620000ca60201b60201c565b620000d260201b60201c565b620004f9565b600033905090565b6000600b60009054906101000a900473ffffffffffffffffffffffffffffffffffffffff16905081600b60006101000a81548173ffffffffffffffffffffffffffffffffffffffff021916908373ffffffffffffffffffffffffffffffffffffffff1602179055508173ffffffffffffffffffffffffffffffffffffffff168173ffffffffffffffffffffffffffffffffffffffff167f8be0079c531659141344cd1fd0a4f28419497f9722a3daafe3b4186f6b6457e060405160405180910390a35050565b600081519050919050565b7f4e487b7100000000000000000000000000000000000000000000000000000000600052604160045260246000fd5b7f4e487b7100000000000000000000000000000000000000000000000000000000600052602260045260246000fd5b600060028204905060018216806200021a57607f821691505b60208210810362000230576200022f620001d2565b5b50919050565b60008190508160005260206000209050919050565b60006020601f8301049050919050565b600082821b905092915050565b6000600883026200029a7fffffffffffffffffffffffffffffffffffffffffffffffffffffffffffffffff826200025b565b620002a686836200025b565b95508019841693508086168417925050509392505050565b6000819050919050565b6000819050919050565b6000620002f3620002ed620002e784620002be565b620002c8565b620002be565b9050919050565b6000819050919050565b6200030f83620002d2565b620003276200031e82620002fa565b84845462000268565b825550505050565b600090565b6200033e6200032f565b6200034b81848462000304565b505050565b5b8181101562000373576200036760008262000334565b60018101905062000351565b5050565b601f821115620003c2576200038c8162000236565b62000397846200024b565b81016020851015620003a7578190505b620003bf620003b6856200024b565b83018262000350565b50505b505050565b600082821c905092915050565b6000620003e760001984600802620003c7565b1980831691505092915050565b6000620004028383620003d4565b9150826002028217905092915050565b6200041d8262000198565b67ffffffffffffffff811115620004395762000438620001a3565b5b62000445825462000201565b6200045282828562000377565b600060209050601f8311600181146200048a576000841562000475578287015190505b620004818582620003f4565b865550620004f1565b601f1984166200049a8662000236565b60005b82811015620004c4578489015182556001820191506020850194506020810190506200049d565b86831015620004e45784890151620004e0601f891682620003d4565b8355505b6001600288020188555050505b505050505050565b613a2a80620005096000396000f3fe608060405234801561001057600080fd5b50600436106101425760003560e01c80636c143862116100b8578063a22cb4651161007c578063a22cb46514610377578063b88d4fde14610393578063c87b56dd146103af578063d204c45e146103df578063e985e9c5146103fb578063f2fde38b1461042b57610142565b80636c143862146102e357806370a0823114610301578063715018a6146103315780638da5cb5b1461033b57806395d89b411461035957610142565b806323b872dd1161010a57806323b872dd146101ff5780632f745c591461021b57806342842e0e1461024b57806342966c68146102675780634f6ccce7146102835780636352211e146102b357610142565b806301ffc9a71461014757806306fdde0314610177578063081812fc14610195578063095ea7b3146101c557806318160ddd146101e1575b600080fd5b610161600480360381019061015c91906125a4565b610447565b60405161016e91906125ec565b60405180910390f35b61017f610459565b60405161018c9190612697565b60405180910390f35b6101af60048036038101906101aa91906126ef565b6104eb565b6040516101bc919061275d565b60405180910390f35b6101df60048036038101906101da91906127a4565b610531565b005b6101e9610648565b6040516101f691906127f3565b60405180910390f35b6102196004803603810190610214919061280e565b610655565b005b610235600480360381019061023091906127a4565b6106b5565b60405161024291906127f3565b60405180910390f35b6102656004803603810190610260919061280e565b61075a565b005b610281600480360381019061027c91906126ef565b61077a565b005b61029d600480360381019061029891906126ef565b6107d6565b6040516102aa91906127f3565b60405180910390f35b6102cd60048036038101906102c891906126ef565b610847565b6040516102da919061275d565b60405180910390f35b6102eb6108cd565b6040516102f891906127f3565b60405180910390f35b61031b60048036038101906103169190612861565b6108de565b60405161032891906127f3565b60405180910390f35b610339610995565b005b6103436109a9565b604051610350919061275d565b60405180910390f35b6103616109d3565b60405161036e9190612697565b60405180910390f35b610391600480360381019061038c91906128ba565b610a65565b005b6103ad60048036038101906103a89190612a2f565b610a7b565b005b6103c960048036038101906103c491906126ef565b610add565b6040516103d69190612697565b60405180910390f35b6103f960048036038101906103f49190612b53565b610aef565b005b61041560048036038101906104109190612baf565b610b28565b60405161042291906125ec565b60405180910390f35b61044560048036038101906104409190612861565b610bbc565b005b600061045282610c3f565b9050919050565b60606000805461046890612c1e565b80601f016020809104026020016040519081016040528092919081815260200182805461049490612c1e565b80156104e15780601f106104b6576101008083540402835291602001916104e1565b820191906000526020600020905b8154815290600101906020018083116104c457829003601f168201915b5050505050905090565b60006104f682610cb9565b6004600083815260200190815260200160002060009054906101000a900473ffffffffffffffffffffffffffffffffffffffff169050919050565b600061053c82610847565b90508073ffffffffffffffffffffffffffffffffffffffff168373ffffffffffffffffffffffffffffffffffffffff16036105ac576040517f08c379a00000000000000000000000000000000000000000000000000000000081526004016105a390612cc1565b60405180910390fd5b8073ffffffffffffffffffffffffffffffffffffffff166105cb610d04565b73ffffffffffffffffffffffffffffffffffffffff1614806105fa57506105f9816105f4610d04565b610b28565b5b610639576040517f08c379a000000000000000000000000000000000000000000000000000000000815260040161063090612d53565b60405180910390fd5b6106438383610d0c565b505050565b6000600880549050905090565b610666610660610d04565b82610dc5565b6106a5576040517f08c379a000000000000000000000000000000000000000000000000000000000815260040161069c90612de5565b60405180910390fd5b6106b0838383610e5a565b505050565b60006106c0836108de565b8210610701576040517f08c379a00000000000000000000000000000000000000000000000000000000081526004016106f890612e77565b60405180910390fd5b600660008473ffffffffffffffffffffffffffffffffffffffff1673ffffffffffffffffffffffffffffffffffffffff168152602001908152602001600020600083815260200190815260200160002054905092915050565b61077583838360405180602001604052806000815250610a7b565b505050565b61078b610785610d04565b82610dc5565b6107ca576040517f08c379a00000000000000000000000000000000000000000000000000000000081526004016107c190612de5565b60405180910390fd5b6107d381611153565b50565b60006107e0610648565b8210610821576040517f08c379a000000000000000000000000000000000000000000000000000000000815260040161081890612f09565b60405180910390fd5b6008828154811061083557610834612f29565b5b90600052602060002001549050919050565b6000806108538361115f565b9050600073ffffffffffffffffffffffffffffffffffffffff168173ffffffffffffffffffffffffffffffffffffffff16036108c4576040517f08c379a00000000000000000000000000000000000000000000000000000000081526004016108bb90612fa4565b60405180910390fd5b80915050919050565b60006108d9600c61119c565b905090565b60008073ffffffffffffffffffffffffffffffffffffffff168273ffffffffffffffffffffffffffffffffffffffff160361094e576040517f08c379a000000000000000000000000000000000000000000000000000000000815260040161094590613036565b60405180910390fd5b600360008373ffffffffffffffffffffffffffffffffffffffff1673ffffffffffffffffffffffffffffffffffffffff168152602001908152602001600020549050919050565b61099d6111aa565b6109a76000611228565b565b6000600b60009054906101000a900473ffffffffffffffffffffffffffffffffffffffff16905090565b6060600180546109e290612c1e565b80601f0160208091040260200160405190810160405280929190818152602001828054610a0e90612c1e565b8015610a5b5780601f10610a3057610100808354040283529160200191610a5b565b820191906000526020600020905b815481529060010190602001808311610a3e57829003601f168201915b5050505050905090565b610a77610a70610d04565b83836112ee565b5050565b610a8c610a86610d04565b83610dc5565b610acb576040517f08c379a0000000000000000000000000000000000000000000000000000000008152600401610ac290612de5565b60405180910390fd5b610ad78484848461145a565b50505050565b6060610ae8826114b6565b9050919050565b610af76111aa565b6000610b03600c61119c565b9050610b0f600c6115c8565b610b1983826115de565b610b2381836115fc565b505050565b6000600560008473ffffffffffffffffffffffffffffffffffffffff1673ffffffffffffffffffffffffffffffffffffffff16815260200190815260200160002060008373ffffffffffffffffffffffffffffffffffffffff1673ffffffffffffffffffffffffffffffffffffffff16815260200190815260200160002060009054906101000a900460ff16905092915050565b610bc46111aa565b600073ffffffffffffffffffffffffffffffffffffffff168173ffffffffffffffffffffffffffffffffffffffff1603610c33576040517f08c379a0000000000000000000000000000000000000000000000000000000008152600401610c2a906130c8565b60405180910390fd5b610c3c81611228565b50565b60007f780e9d63000000000000000000000000000000000000000000000000000000007bffffffffffffffffffffffffffffffffffffffffffffffffffffffff1916827bffffffffffffffffffffffffffffffffffffffffffffffffffffffff19161480610cb25750610cb182611669565b5b9050919050565b610cc28161174b565b610d01576040517f08c379a0000000000000000000000000000000000000000000000000000000008152600401610cf890612fa4565b60405180910390fd5b50565b600033905090565b816004600083815260200190815260200160002060006101000a81548173ffffffffffffffffffffffffffffffffffffffff021916908373ffffffffffffffffffffffffffffffffffffffff160217905550808273ffffffffffffffffffffffffffffffffffffffff16610d7f83610847565b73ffffffffffffffffffffffffffffffffffffffff167f8c5be1e5ebec7d5bd14f71427d1e84f3dd0314c0f7b2291e5b200ac8c7c3b92560405160405180910390a45050565b600080610dd183610847565b90508073ffffffffffffffffffffffffffffffffffffffff168473ffffffffffffffffffffffffffffffffffffffff161480610e135750610e128185610b28565b5b80610e5157508373ffffffffffffffffffffffffffffffffffffffff16610e39846104eb565b73ffffffffffffffffffffffffffffffffffffffff16145b91505092915050565b8273ffffffffffffffffffffffffffffffffffffffff16610e7a82610847565b73ffffffffffffffffffffffffffffffffffffffff1614610ed0576040517f08c379a0000000000000000000000000000000000000000000000000000000008152600401610ec79061315a565b60405180910390fd5b600073ffffffffffffffffffffffffffffffffffffffff168273ffffffffffffffffffffffffffffffffffffffff1603610f3f576040517f08c379a0000000000000000000000000000000000000000000000000000000008152600401610f36906131ec565b60405180910390fd5b610f4c838383600161178c565b8273ffffffffffffffffffffffffffffffffffffffff16610f6c82610847565b73ffffffffffffffffffffffffffffffffffffffff1614610fc2576040517f08c379a0000000000000000000000000000000000000000000000000000000008152600401610fb99061315a565b60405180910390fd5b6004600082815260200190815260200160002060006101000a81549073ffffffffffffffffffffffffffffffffffffffff02191690556001600360008573ffffffffffffffffffffffffffffffffffffffff1673ffffffffffffffffffffffffffffffffffffffff168152602001908152602001600020600082825403925050819055506001600360008473ffffffffffffffffffffffffffffffffffffffff1673ffffffffffffffffffffffffffffffffffffffff16815260200190815260200160002060008282540192505081905550816002600083815260200190815260200160002060006101000a81548173ffffffffffffffffffffffffffffffffffffffff021916908373ffffffffffffffffffffffffffffffffffffffff160217905550808273ffffffffffffffffffffffffffffffffffffffff168473ffffffffffffffffffffffffffffffffffffffff167fddf252ad1be2c89b69c2b068fc378daa952ba7f163c4a11628f55a4df523b3ef60405160405180910390a461114e838383600161179e565b505050565b61115c816117a4565b50565b60006002600083815260200190815260200160002060009054906101000a900473ffffffffffffffffffffffffffffffffffffffff169050919050565b600081600001549050919050565b6111b2610d04565b73ffffffffffffffffffffffffffffffffffffffff166111d06109a9565b73ffffffffffffffffffffffffffffffffffffffff1614611226576040517f08c379a000000000000000000000000000000000000000000000000000000000815260040161121d90613258565b60405180910390fd5b565b6000600b60009054906101000a900473ffffffffffffffffffffffffffffffffffffffff16905081600b60006101000a81548173ffffffffffffffffffffffffffffffffffffffff021916908373ffffffffffffffffffffffffffffffffffffffff1602179055508173ffffffffffffffffffffffffffffffffffffffff168173ffffffffffffffffffffffffffffffffffffffff167f8be0079c531659141344cd1fd0a4f28419497f9722a3daafe3b4186f6b6457e060405160405180910390a35050565b8173ffffffffffffffffffffffffffffffffffffffff168373ffffffffffffffffffffffffffffffffffffffff160361135c576040517f08c379a0000000000000000000000000000000000000000000000000000000008152600401611353906132c4565b60405180910390fd5b80600560008573ffffffffffffffffffffffffffffffffffffffff1673ffffffffffffffffffffffffffffffffffffffff16815260200190815260200160002060008473ffffffffffffffffffffffffffffffffffffffff1673ffffffffffffffffffffffffffffffffffffffff16815260200190815260200160002060006101000a81548160ff0219169083151502179055508173ffffffffffffffffffffffffffffffffffffffff168373ffffffffffffffffffffffffffffffffffffffff167f17307eab39ab6107e8899845ad3d59bd9653f200f220920489ca2b5937696c318360405161144d91906125ec565b60405180910390a3505050565b611465848484610e5a565b611471848484846117f7565b6114b0576040517f08c379a00000000000000000000000000000000000000000000000000000000081526004016114a790613356565b60405180910390fd5b50505050565b60606114c182610cb9565b6000600a600084815260200190815260200160002080546114e190612c1e565b80601f016020809104026020016040519081016040528092919081815260200182805461150d90612c1e565b801561155a5780601f1061152f5761010080835404028352916020019161155a565b820191906000526020600020905b81548152906001019060200180831161153d57829003601f168201915b50505050509050600061156b61197e565b905060008151036115805781925050506115c3565b6000825111156115b557808260405160200161159d9291906133b2565b604051602081830303815290604052925050506115c3565b6115be84611995565b925050505b919050565b6001816000016000828254019250508190555050565b6115f88282604051806020016040528060008152506119fd565b5050565b6116058261174b565b611644576040517f08c379a000000000000000000000000000000000000000000000000000000000815260040161163b90613448565b60405180910390fd5b80600a600084815260200190815260200160002090816116649190613614565b505050565b60007f80ac58cd000000000000000000000000000000000000000000000000000000007bffffffffffffffffffffffffffffffffffffffffffffffffffffffff1916827bffffffffffffffffffffffffffffffffffffffffffffffffffffffff1916148061173457507f5b5e139f000000000000000000000000000000000000000000000000000000007bffffffffffffffffffffffffffffffffffffffffffffffffffffffff1916827bffffffffffffffffffffffffffffffffffffffffffffffffffffffff1916145b80611744575061174382611a58565b5b9050919050565b60008073ffffffffffffffffffffffffffffffffffffffff1661176d8361115f565b73ffffffffffffffffffffffffffffffffffffffff1614159050919050565b61179884848484611ac2565b50505050565b50505050565b6117ad81611c20565b6000600a600083815260200190815260200160002080546117cd90612c1e565b9050146117f457600a600082815260200190815260200160002060006117f391906124db565b5b50565b60006118188473ffffffffffffffffffffffffffffffffffffffff16611d6e565b15611971578373ffffffffffffffffffffffffffffffffffffffff1663150b7a02611841610d04565b8786866040518563ffffffff1660e01b8152600401611863949392919061373b565b6020604051808303816000875af192505050801561189f57506040513d601f19601f8201168201806040525081019061189c919061379c565b60015b611921573d80600081146118cf576040519150601f19603f3d011682016040523d82523d6000602084013e6118d4565b606091505b506000815103611919576040517f08c379a000000000000000000000000000000000000000000000000000000000815260040161191090613356565b60405180910390fd5b805181602001fd5b63150b7a0260e01b7bffffffffffffffffffffffffffffffffffffffffffffffffffffffff1916817bffffffffffffffffffffffffffffffffffffffffffffffffffffffff191614915050611976565b600190505b949350505050565b606060405180602001604052806000815250905090565b60606119a082610cb9565b60006119aa61197e565b905060008151116119ca57604051806020016040528060008152506119f5565b806119d484611d91565b6040516020016119e59291906133b2565b6040516020818303038152906040525b915050919050565b611a078383611e5f565b611a1460008484846117f7565b611a53576040517f08c379a0000000000000000000000000000000000000000000000000000000008152600401611a4a90613356565b60405180910390fd5b505050565b60007f01ffc9a7000000000000000000000000000000000000000000000000000000007bffffffffffffffffffffffffffffffffffffffffffffffffffffffff1916827bffffffffffffffffffffffffffffffffffffffffffffffffffffffff1916149050919050565b611ace8484848461207c565b6001811115611b12576040517f08c379a0000000000000000000000000000000000000000000000000000000008152600401611b099061383b565b60405180910390fd5b6000829050600073ffffffffffffffffffffffffffffffffffffffff168573ffffffffffffffffffffffffffffffffffffffff1603611b5957611b5481612082565b611b98565b8373ffffffffffffffffffffffffffffffffffffffff168573ffffffffffffffffffffffffffffffffffffffff1614611b9757611b9685826120cb565b5b5b600073ffffffffffffffffffffffffffffffffffffffff168473ffffffffffffffffffffffffffffffffffffffff1603611bda57611bd581612238565b611c19565b8473ffffffffffffffffffffffffffffffffffffffff168473ffffffffffffffffffffffffffffffffffffffff1614611c1857611c178482612309565b5b5b5050505050565b6000611c2b82610847565b9050611c3b81600084600161178c565b611c4482610847565b90506004600083815260200190815260200160002060006101000a81549073ffffffffffffffffffffffffffffffffffffffff02191690556001600360008373ffffffffffffffffffffffffffffffffffffffff1673ffffffffffffffffffffffffffffffffffffffff168152602001908152602001600020600082825403925050819055506002600083815260200190815260200160002060006101000a81549073ffffffffffffffffffffffffffffffffffffffff021916905581600073ffffffffffffffffffffffffffffffffffffffff168273ffffffffffffffffffffffffffffffffffffffff167fddf252ad1be2c89b69c2b068fc378daa952ba7f163c4a11628f55a4df523b3ef60405160405180910390a4611d6a81600084600161179e565b5050565b6000808273ffffffffffffffffffffffffffffffffffffffff163b119050919050565b606060006001611da084612388565b01905060008167ffffffffffffffff811115611dbf57611dbe612904565b5b6040519080825280601f01601f191660200182016040528015611df15781602001600182028036833780820191505090505b509050600082602001820190505b600115611e54578080600190039150507f3031323334353637383961626364656600000000000000000000000000000000600a86061a8153600a8581611e4857611e4761385b565b5b04945060008503611dff575b819350505050919050565b600073ffffffffffffffffffffffffffffffffffffffff168273ffffffffffffffffffffffffffffffffffffffff1603611ece576040517f08c379a0000000000000000000000000000000000000000000000000000000008152600401611ec5906138d6565b60405180910390fd5b611ed78161174b565b15611f17576040517f08c379a0000000000000000000000000000000000000000000000000000000008152600401611f0e90613942565b60405180910390fd5b611f2560008383600161178c565b611f2e8161174b565b15611f6e576040517f08c379a0000000000000000000000000000000000000000000000000000000008152600401611f6590613942565b60405180910390fd5b6001600360008473ffffffffffffffffffffffffffffffffffffffff1673ffffffffffffffffffffffffffffffffffffffff16815260200190815260200160002060008282540192505081905550816002600083815260200190815260200160002060006101000a81548173ffffffffffffffffffffffffffffffffffffffff021916908373ffffffffffffffffffffffffffffffffffffffff160217905550808273ffffffffffffffffffffffffffffffffffffffff16600073ffffffffffffffffffffffffffffffffffffffff167fddf252ad1be2c89b69c2b068fc378daa952ba7f163c4a11628f55a4df523b3ef60405160405180910390a461207860008383600161179e565b5050565b50505050565b6008805490506009600083815260200190815260200160002081905550600881908060018154018082558091505060019003906000526020600020016000909190919091505550565b600060016120d8846108de565b6120e29190613991565b90506000600760008481526020019081526020016000205490508181146121c7576000600660008673ffffffffffffffffffffffffffffffffffffffff1673ffffffffffffffffffffffffffffffffffffffff168152602001908152602001600020600084815260200190815260200160002054905080600660008773ffffffffffffffffffffffffffffffffffffffff1673ffffffffffffffffffffffffffffffffffffffff168152602001908152602001600020600084815260200190815260200160002081905550816007600083815260200190815260200160002081905550505b6007600084815260200190815260200160002060009055600660008573ffffffffffffffffffffffffffffffffffffffff1673ffffffffffffffffffffffffffffffffffffffff16815260200190815260200160002060008381526020019081526020016000206000905550505050565b6000600160088054905061224c9190613991565b905060006009600084815260200190815260200160002054905060006008838154811061227c5761227b612f29565b5b90600052602060002001549050806008838154811061229e5761229d612f29565b5b9060005260206000200181905550816009600083815260200190815260200160002081905550600960008581526020019081526020016000206000905560088054806122ed576122ec6139c5565b5b6001900381819060005260206000200160009055905550505050565b6000612314836108de565b905081600660008573ffffffffffffffffffffffffffffffffffffffff1673ffffffffffffffffffffffffffffffffffffffff168152602001908152602001600020600083815260200190815260200160002081905550806007600084815260200190815260200160002081905550505050565b600080600090507a184f03e93ff9f4daa797ed6e38ed64bf6a1f01000000000000000083106123e6577a184f03e93ff9f4daa797ed6e38ed64bf6a1f01000000000000000083816123dc576123db61385b565b5b0492506040810190505b6d04ee2d6d415b85acef81000000008310612423576d04ee2d6d415b85acef810000000083816124195761241861385b565b5b0492506020810190505b662386f26fc10000831061245257662386f26fc1000083816124485761244761385b565b5b0492506010810190505b6305f5e100831061247b576305f5e10083816124715761247061385b565b5b0492506008810190505b61271083106124a05761271083816124965761249561385b565b5b0492506004810190505b606483106124c357606483816124b9576124b861385b565b5b0492506002810190505b600a83106124d2576001810190505b80915050919050565b5080546124e790612c1e565b6000825580601f106124f95750612518565b601f016020900490600052602060002090810190612517919061251b565b5b50565b5b8082111561253457600081600090555060010161251c565b5090565b6000604051905090565b600080fd5b600080fd5b60007fffffffff0000000000000000000000000000000000000000000000000000000082169050919050565b6125818161254c565b811461258c57600080fd5b50565b60008135905061259e81612578565b92915050565b6000602082840312156125ba576125b9612542565b5b60006125c88482850161258f565b91505092915050565b60008115159050919050565b6125e6816125d1565b82525050565b600060208201905061260160008301846125dd565b92915050565b600081519050919050565b600082825260208201905092915050565b60005b83811015612641578082015181840152602081019050612626565b60008484015250505050565b6000601f19601f8301169050919050565b600061266982612607565b6126738185612612565b9350612683818560208601612623565b61268c8161264d565b840191505092915050565b600060208201905081810360008301526126b1818461265e565b905092915050565b6000819050919050565b6126cc816126b9565b81146126d757600080fd5b50565b6000813590506126e9816126c3565b92915050565b60006020828403121561270557612704612542565b5b6000612713848285016126da565b91505092915050565b600073ffffffffffffffffffffffffffffffffffffffff82169050919050565b60006127478261271c565b9050919050565b6127578161273c565b82525050565b6000602082019050612772600083018461274e565b92915050565b6127818161273c565b811461278c57600080fd5b50565b60008135905061279e81612778565b92915050565b600080604083850312156127bb576127ba612542565b5b60006127c98582860161278f565b92505060206127da858286016126da565b9150509250929050565b6127ed816126b9565b82525050565b600060208201905061280860008301846127e4565b92915050565b60008060006060848603121561282757612826612542565b5b60006128358682870161278f565b93505060206128468682870161278f565b9250506040612857868287016126da565b9150509250925092565b60006020828403121561287757612876612542565b5b60006128858482850161278f565b91505092915050565b612897816125d1565b81146128a257600080fd5b50565b6000813590506128b48161288e565b92915050565b600080604083850312156128d1576128d0612542565b5b60006128df8582860161278f565b92505060206128f0858286016128a5565b9150509250929050565b600080fd5b600080fd5b7f4e487b7100000000000000000000000000000000000000000000000000000000600052604160045260246000fd5b61293c8261264d565b810181811067ffffffffffffffff8211171561295b5761295a612904565b5b80604052505050565b600061296e612538565b905061297a8282612933565b919050565b600067ffffffffffffffff82111561299a57612999612904565b5b6129a38261264d565b9050602081019050919050565b82818337600083830152505050565b60006129d26129cd8461297f565b612964565b9050828152602081018484840111156129ee576129ed6128ff565b5b6129f98482856129b0565b509392505050565b600082601f830112612a1657612a156128fa565b5b8135612a268482602086016129bf565b91505092915050565b60008060008060808587031215612a4957612a48612542565b5b6000612a578782880161278f565b9450506020612a688782880161278f565b9350506040612a79878288016126da565b925050606085013567ffffffffffffffff811115612a9a57612a99612547565b5b612aa687828801612a01565b91505092959194509250565b600067ffffffffffffffff821115612acd57612acc612904565b5b612ad68261264d565b9050602081019050919050565b6000612af6612af184612ab2565b612964565b905082815260208101848484011115612b1257612b116128ff565b5b612b1d8482856129b0565b509392505050565b600082601f830112612b3a57612b396128fa565b5b8135612b4a848260208601612ae3565b91505092915050565b60008060408385031215612b6a57612b69612542565b5b6000612b788582860161278f565b925050602083013567ffffffffffffffff811115612b9957612b98612547565b5b612ba585828601612b25565b9150509250929050565b60008060408385031215612bc657612bc5612542565b5b6000612bd48582860161278f565b9250506020612be58582860161278f565b9150509250929050565b7f4e487b7100000000000000000000000000000000000000000000000000000000600052602260045260246000fd5b60006002820490506001821680612c3657607f821691505b602082108103612c4957612c48612bef565b5b50919050565b7f4552433732313a20617070726f76616c20746f2063757272656e74206f776e6560008201527f7200000000000000000000000000000000000000000000000000000000000000602082015250565b6000612cab602183612612565b9150612cb682612c4f565b604082019050919050565b60006020820190508181036000830152612cda81612c9e565b9050919050565b7f4552433732313a20617070726f76652063616c6c6572206973206e6f7420746f60008201527f6b656e206f776e6572206f7220617070726f76656420666f7220616c6c000000602082015250565b6000612d3d603d83612612565b9150612d4882612ce1565b604082019050919050565b60006020820190508181036000830152612d6c81612d30565b9050919050565b7f4552433732313a2063616c6c6572206973206e6f7420746f6b656e206f776e6560008201527f72206f7220617070726f76656400000000000000000000000000000000000000602082015250565b6000612dcf602d83612612565b9150612dda82612d73565b604082019050919050565b60006020820190508181036000830152612dfe81612dc2565b9050919050565b7f455243373231456e756d657261626c653a206f776e657220696e646578206f7560008201527f74206f6620626f756e6473000000000000000000000000000000000000000000602082015250565b6000612e61602b83612612565b9150612e6c82612e05565b604082019050919050565b60006020820190508181036000830152612e9081612e54565b9050919050565b7f455243373231456e756d657261626c653a20676c6f62616c20696e646578206f60008201527f7574206f6620626f756e64730000000000000000000000000000000000000000602082015250565b6000612ef3602c83612612565b9150612efe82612e97565b604082019050919050565b60006020820190508181036000830152612f2281612ee6565b9050919050565b7f4e487b7100000000000000000000000000000000000000000000000000000000600052603260045260246000fd5b7f4552433732313a20696e76616c696420746f6b656e2049440000000000000000600082015250565b6000612f8e601883612612565b9150612f9982612f58565b602082019050919050565b60006020820190508181036000830152612fbd81612f81565b9050919050565b7f4552433732313a2061646472657373207a65726f206973206e6f74206120766160008201527f6c6964206f776e65720000000000000000000000000000000000000000000000602082015250565b6000613020602983612612565b915061302b82612fc4565b604082019050919050565b6000602082019050818103600083015261304f81613013565b9050919050565b7f4f776e61626c653a206e6577206f776e657220697320746865207a65726f206160008201527f6464726573730000000000000000000000000000000000000000000000000000602082015250565b60006130b2602683612612565b91506130bd82613056565b604082019050919050565b600060208201905081810360008301526130e1816130a5565b9050919050565b7f4552433732313a207472616e736665722066726f6d20696e636f72726563742060008201527f6f776e6572000000000000000000000000000000000000000000000000000000602082015250565b6000613144602583612612565b915061314f826130e8565b604082019050919050565b6000602082019050818103600083015261317381613137565b9050919050565b7f4552433732313a207472616e7366657220746f20746865207a65726f2061646460008201527f7265737300000000000000000000000000000000000000000000000000000000602082015250565b60006131d6602483612612565b91506131e18261317a565b604082019050919050565b60006020820190508181036000830152613205816131c9565b9050919050565b7f4f776e61626c653a2063616c6c6572206973206e6f7420746865206f776e6572600082015250565b6000613242602083612612565b915061324d8261320c565b602082019050919050565b6000602082019050818103600083015261327181613235565b9050919050565b7f4552433732313a20617070726f766520746f2063616c6c657200000000000000600082015250565b60006132ae601983612612565b91506132b982613278565b602082019050919050565b600060208201905081810360008301526132dd816132a1565b9050919050565b7f4552433732313a207472616e7366657220746f206e6f6e20455243373231526560008201527f63656976657220696d706c656d656e7465720000000000000000000000000000602082015250565b6000613340603283612612565b915061334b826132e4565b604082019050919050565b6000602082019050818103600083015261336f81613333565b9050919050565b600081905092915050565b600061338c82612607565b6133968185613376565b93506133a6818560208601612623565b80840191505092915050565b60006133be8285613381565b91506133ca8284613381565b91508190509392505050565b7f45524337323155524953746f726167653a2055524920736574206f66206e6f6e60008201527f6578697374656e7420746f6b656e000000000000000000000000000000000000602082015250565b6000613432602e83612612565b915061343d826133d6565b604082019050919050565b6000602082019050818103600083015261346181613425565b9050919050565b60008190508160005260206000209050919050565b60006020601f8301049050919050565b600082821b905092915050565b6000600883026134ca7fffffffffffffffffffffffffffffffffffffffffffffffffffffffffffffffff8261348d565b6134d4868361348d565b95508019841693508086168417925050509392505050565b6000819050919050565b600061351161350c613507846126b9565b6134ec565b6126b9565b9050919050565b6000819050919050565b61352b836134f6565b61353f61353782613518565b84845461349a565b825550505050565b600090565b613554613547565b61355f818484613522565b505050565b5b818110156135835761357860008261354c565b600181019050613565565b5050565b601f8211156135c85761359981613468565b6135a28461347d565b810160208510156135b1578190505b6135c56135bd8561347d565b830182613564565b50505b505050565b600082821c905092915050565b60006135eb600019846008026135cd565b1980831691505092915050565b600061360483836135da565b9150826002028217905092915050565b61361d82612607565b67ffffffffffffffff81111561363657613635612904565b5b6136408254612c1e565b61364b828285613587565b600060209050601f83116001811461367e576000841561366c578287015190505b61367685826135f8565b8655506136de565b601f19841661368c86613468565b60005b828110156136b45784890151825560018201915060208501945060208101905061368f565b868310156136d157848901516136cd601f8916826135da565b8355505b6001600288020188555050505b505050505050565b600081519050919050565b600082825260208201905092915050565b600061370d826136e6565b61371781856136f1565b9350613727818560208601612623565b6137308161264d565b840191505092915050565b6000608082019050613750600083018761274e565b61375d602083018661274e565b61376a60408301856127e4565b818103606083015261377c8184613702565b905095945050505050565b60008151905061379681612578565b92915050565b6000602082840312156137b2576137b1612542565b5b60006137c084828501613787565b91505092915050565b7f455243373231456e756d657261626c653a20636f6e736563757469766520747260008201527f616e7366657273206e6f7420737570706f727465640000000000000000000000602082015250565b6000613825603583612612565b9150613830826137c9565b604082019050919050565b6000602082019050818103600083015261385481613818565b9050919050565b7f4e487b7100000000000000000000000000000000000000000000000000000000600052601260045260246000fd5b7f4552433732313a206d696e7420746f20746865207a65726f2061646472657373600082015250565b60006138c0602083612612565b91506138cb8261388a565b602082019050919050565b600060208201905081810360008301526138ef816138b3565b9050919050565b7f4552433732313a20746f6b656e20616c7265616479206d696e74656400000000600082015250565b600061392c601c83612612565b9150613937826138f6565b602082019050919050565b6000602082019050818103600083015261395b8161391f565b9050919050565b7f4e487b7100000000000000000000000000000000000000000000000000000000600052601160045260246000fd5b600061399c826126b9565b91506139a7836126b9565b92508282039050818111156139bf576139be613962565b5b92915050565b7f4e487b7100000000000000000000000000000000000000000000000000000000600052603160045260246000fdfea2646970667358221220776220c1d301fe5a18a3563911bd1708874861a2f937e6b8c56478c5ab3ff9a664736f6c63430008120033608060405260016004553480156200001657600080fd5b50338060008073ffffffffffffffffffffffffffffffffffffffff168273ffffffffffffffffffffffffffffffffffffffff16036200008c576040517f08c379a0000000000000000000000000000000000000000000000000000000008152600401620000839062000318565b60405180910390fd5b81600660006101000a81548173ffffffffffffffffffffffffffffffffffffffff021916908373ffffffffffffffffffffffffffffffffffffffff160217905550600073ffffffffffffffffffffffffffffffffffffffff168173ffffffffffffffffffffffffffffffffffffffff1614620001145762000113816200014260201b60201c565b5b5050506200013c73779877a7b0d9e8603169ddbd7836e478b46247896200027360201b60201c565b620003ac565b3373ffffffffffffffffffffffffffffffffffffffff168173ffffffffffffffffffffffffffffffffffffffff1603620001b3576040517f08c379a0000000000000000000000000000000000000000000000000000000008152600401620001aa906200038a565b60405180910390fd5b80600760006101000a81548173ffffffffffffffffffffffffffffffffffffffff021916908373ffffffffffffffffffffffffffffffffffffffff1602179055508073ffffffffffffffffffffffffffffffffffffffff16600660009054906101000a900473ffffffffffffffffffffffffffffffffffffffff1673ffffffffffffffffffffffffffffffffffffffff167fed8889f560326eb138920d842192f0eb3dd22b4f139c87a2c57538e05bae127860405160405180910390a350565b80600260006101000a81548173ffffffffffffffffffffffffffffffffffffffff021916908373ffffffffffffffffffffffffffffffffffffffff16021790555050565b600082825260208201905092915050565b7f43616e6e6f7420736574206f776e657220746f207a65726f0000000000000000600082015250565b600062000300601883620002b7565b91506200030d82620002c8565b602082019050919050565b600060208201905081810360008301526200033381620002f1565b9050919050565b7f43616e6e6f74207472616e7366657220746f2073656c66000000000000000000600082015250565b600062000372601783620002b7565b91506200037f826200033a565b602082019050919050565b60006020820190508181036000830152620003a58162000363565b9050919050565b61270780620003bc6000396000f3fe608060405234801561001057600080fd5b50600436106100ea5760003560e01c806379ba50971161008c5780638dc654a2116100665780638dc654a214610204578063c4fe9f481461020e578063ec65d0f81461022a578063f2fde38b14610246576100ea565b806379ba5097146101ac57806389ca38c3146101b65780638da5cb5b146101e6576100ea565b80633347e969116100c85780633347e9691461014a57806335e1749c146101685780635fd8c7101461018457806371738f8c1461018e576100ea565b806304c58c32146100ef578063165d35e11461010d5780632163885a1461012b575b600080fd5b6100f7610262565b60405161010491906115c6565b60405180910390f35b610115610268565b6040516101229190611622565b60405180910390f35b610133610277565b60405161014192919061163d565b60405180910390f35b61015261030a565b60405161015f91906115c6565b60405180910390f35b610182600480360381019061017d9190611822565b610310565b005b61018c61048e565b005b6101966104df565b6040516101a3919061194a565b60405180910390f35b6101b461056d565b005b6101d060048036038101906101cb919061196c565b610704565b6040516101dd91906115c6565b60405180910390f35b6101ee61071c565b6040516101fb9190611622565b60405180910390f35b61020c610746565b005b610228600480360381019061022391906119c5565b610893565b005b610244600480360381019061023f9190611a8c565b610934565b005b610260600480360381019061025b9190611af3565b61094e565b005b60085481565b6000610272610962565b905090565b6000804791506000610287610962565b90508073ffffffffffffffffffffffffffffffffffffffff166370a08231306040518263ffffffff1660e01b81526004016102c29190611622565b602060405180830381865afa1580156102df573d6000803e3d6000fd5b505050506040513d601f19601f820116820180604052508101906103039190611b35565b9150509091565b60095481565b856005600082815260200190815260200160002060009054906101000a900473ffffffffffffffffffffffffffffffffffffffff1673ffffffffffffffffffffffffffffffffffffffff163373ffffffffffffffffffffffffffffffffffffffff16146103b2576040517f08c379a00000000000000000000000000000000000000000000000000000000081526004016103a990611bd4565b60405180910390fd5b6005600082815260200190815260200160002060006101000a81549073ffffffffffffffffffffffffffffffffffffffff0219169055807f7cc135e0cebb02c3480ae5d74d377283180a2601f8f644edf7987b009316c63a60405160405180910390a28486887f87d0fbf94f75c6fbfa130612d543b27f164d4627efebb890c79955043df825ed87604051610447919061194a565b60405180910390a483600a908161045e9190611e00565b50856008819055508460098190555081600b60008581526020019081526020016000208190555050505050505050565b61049661098c565b3373ffffffffffffffffffffffffffffffffffffffff166108fc479081150290604051600060405180830381858888f193505050501580156104dc573d6000803e3d6000fd5b50565b600a80546104ec90611c23565b80601f016020809104026020016040519081016040528092919081815260200182805461051890611c23565b80156105655780601f1061053a57610100808354040283529160200191610565565b820191906000526020600020905b81548152906001019060200180831161054857829003601f168201915b505050505081565b600760009054906101000a900473ffffffffffffffffffffffffffffffffffffffff1673ffffffffffffffffffffffffffffffffffffffff163373ffffffffffffffffffffffffffffffffffffffff16146105fd576040517f08c379a00000000000000000000000000000000000000000000000000000000081526004016105f490611f1e565b60405180910390fd5b6000600660009054906101000a900473ffffffffffffffffffffffffffffffffffffffff16905033600660006101000a81548173ffffffffffffffffffffffffffffffffffffffff021916908373ffffffffffffffffffffffffffffffffffffffff1602179055506000600760006101000a81548173ffffffffffffffffffffffffffffffffffffffff021916908373ffffffffffffffffffffffffffffffffffffffff1602179055503373ffffffffffffffffffffffffffffffffffffffff168173ffffffffffffffffffffffffffffffffffffffff167f8be0079c531659141344cd1fd0a4f28419497f9722a3daafe3b4186f6b6457e060405160405180910390a350565b600b6020528060005260406000206000915090505481565b6000600660009054906101000a900473ffffffffffffffffffffffffffffffffffffffff16905090565b61074e61098c565b6000610758610962565b90508073ffffffffffffffffffffffffffffffffffffffff1663a9059cbb338373ffffffffffffffffffffffffffffffffffffffff166370a08231306040518263ffffffff1660e01b81526004016107b09190611622565b602060405180830381865afa1580156107cd573d6000803e3d6000fd5b505050506040513d601f19601f820116820180604052508101906107f19190611b35565b6040518363ffffffff1660e01b815260040161080e929190611f3e565b6020604051808303816000875af115801561082d573d6000803e3d6000fd5b505050506040513d601f19601f820116820180604052508101906108519190611f9f565b610890576040517f08c379a000000000000000000000000000000000000000000000000000000000815260040161088790612018565b60405180910390fd5b50565b61089b61098c565b60006108b66108a984610a1e565b6335e1749c60e01b610a47565b90506109026040518060400160405280600981526020017f66697874757265496400000000000000000000000000000000000000000000008152508383610a779092919063ffffffff16565b61092d8482600a670de0b6b3a7640000600161091e9190612067565b61092891906120d8565b610aaa565b5050505050565b61093c61098c565b61094884848484610b74565b50505050565b61095661098c565b61095f81610c87565b50565b6000600260009054906101000a900473ffffffffffffffffffffffffffffffffffffffff16905090565b600660009054906101000a900473ffffffffffffffffffffffffffffffffffffffff1673ffffffffffffffffffffffffffffffffffffffff163373ffffffffffffffffffffffffffffffffffffffff1614610a1c576040517f08c379a0000000000000000000000000000000000000000000000000000000008152600401610a1390612155565b60405180910390fd5b565b6000808290506000815103610a39576000801b915050610a42565b60208301519150505b919050565b610a4f611526565b610a57611526565b610a6e84308584610db5909392919063ffffffff16565b91505092915050565b610a8e828460800151610e6590919063ffffffff16565b610aa5818460800151610e8a90919063ffffffff16565b505050565b6000806004549050600181610abf9190612175565b6004819055506000633c6d41b960e01b600080876000015188604001518660028b6080015160000151604051602401610afe979695949392919061221c565b604051602081830303815290604052907bffffffffffffffffffffffffffffffffffffffffffffffffffffffff19166020820180517bffffffffffffffffffffffffffffffffffffffffffffffffffffffff83818316178352505050509050610b6986838684610eba565b925050509392505050565b60006005600086815260200190815260200160002060009054906101000a900473ffffffffffffffffffffffffffffffffffffffff1690506005600086815260200190815260200160002060006101000a81549073ffffffffffffffffffffffffffffffffffffffff0219169055847fe1fe3afa0f7f761ff0a8b89086790efd5140d2907ebd5b7ff6bfcb5e075fd4c560405160405180910390a28073ffffffffffffffffffffffffffffffffffffffff16636ee4d553868686866040518563ffffffff1660e01b8152600401610c4e9493929190612292565b600060405180830381600087803b158015610c6857600080fd5b505af1158015610c7c573d6000803e3d6000fd5b505050505050505050565b3373ffffffffffffffffffffffffffffffffffffffff168173ffffffffffffffffffffffffffffffffffffffff1603610cf5576040517f08c379a0000000000000000000000000000000000000000000000000000000008152600401610cec90612323565b60405180910390fd5b80600760006101000a81548173ffffffffffffffffffffffffffffffffffffffff021916908373ffffffffffffffffffffffffffffffffffffffff1602179055508073ffffffffffffffffffffffffffffffffffffffff16600660009054906101000a900473ffffffffffffffffffffffffffffffffffffffff1673ffffffffffffffffffffffffffffffffffffffff167fed8889f560326eb138920d842192f0eb3dd22b4f139c87a2c57538e05bae127860405160405180910390a350565b610dbd611526565b610dcd856080015161010061104f565b508385600001818152505082856020019073ffffffffffffffffffffffffffffffffffffffff16908173ffffffffffffffffffffffffffffffffffffffff16815250508185604001907bffffffffffffffffffffffffffffffffffffffffffffffffffffffff191690817bffffffffffffffffffffffffffffffffffffffffffffffffffffffff191681525050849050949350505050565b610e7282600383516110b9565b610e85818361123e90919063ffffffff16565b505050565b67ffffffffffffffff811115610ea957610ea48282611260565b610eb6565b610eb5826000836110b9565b5b5050565b60003084604051602001610ecf9291906123f2565b604051602081830303815290604052805190602001209050846005600083815260200190815260200160002060006101000a81548173ffffffffffffffffffffffffffffffffffffffff021916908373ffffffffffffffffffffffffffffffffffffffff160217905550807fb5e6e01e79f91267dc17b4e6314d5d4d03593d2ceee0fbb452b750bd70ea5af960405160405180910390a2600260009054906101000a900473ffffffffffffffffffffffffffffffffffffffff1673ffffffffffffffffffffffffffffffffffffffff16634000aea08685856040518463ffffffff1660e01b8152600401610fc59392919061241e565b6020604051808303816000875af1158015610fe4573d6000803e3d6000fd5b505050506040513d601f19601f820116820180604052508101906110089190611f9f565b611047576040517f08c379a000000000000000000000000000000000000000000000000000000000815260040161103e906124ce565b60405180910390fd5b949350505050565b611057611593565b600060208361106691906124ee565b146110925760208261107891906124ee565b6020611084919061251f565b8261108f9190612175565b91505b81836020018181525050604051808452600081528281016020016040525082905092915050565b60178167ffffffffffffffff16116110f0576110ea8160058460ff16901b60ff1617846112ac90919063ffffffff16565b50611239565b60ff8167ffffffffffffffff16116111465761111f601860058460ff16901b17846112ac90919063ffffffff16565b506111408167ffffffffffffffff166001856112cc9092919063ffffffff16565b50611238565b61ffff8167ffffffffffffffff161161119d57611176601960058460ff16901b17846112ac90919063ffffffff16565b506111978167ffffffffffffffff166002856112cc9092919063ffffffff16565b50611237565b63ffffffff8167ffffffffffffffff16116111f6576111cf601a60058460ff16901b17846112ac90919063ffffffff16565b506111f08167ffffffffffffffff166004856112cc9092919063ffffffff16565b50611236565b611213601b60058460ff16901b17846112ac90919063ffffffff16565b506112348167ffffffffffffffff166008856112cc9092919063ffffffff16565b505b5b5b5b505050565b611246611593565b611258838460000151518485516112ee565b905092915050565b61127e60026005600660ff16901b17836112ac90919063ffffffff16565b506112a8828260405160200161129491906115c6565b6040516020818303038152906040526113dd565b5050565b6112b4611593565b6112c48384600001515184611402565b905092915050565b6112d4611593565b6112e5848560000151518585611458565b90509392505050565b6112f6611593565b825182111561130457600080fd5b846020015182856113159190612175565b111561134a5761134985600261133a886020015188876113359190612175565b6114e6565b6113449190612067565b611502565b5b6000808651805187602083010193508088870111156113695787860182525b60208701925050505b602084106113b0578051825260208261138b9190612175565b915060208161139a9190612175565b90506020846113a9919061251f565b9350611372565b60006001856020036101000a03905080198251168184511681811785525050508692505050949350505050565b6113ea82600283516110b9565b6113fd818361123e90919063ffffffff16565b505050565b61140a611593565b836020015183106114305761142f846002866020015161142a9190612067565b611502565b5b8351805160208583010184815381860361144b576001820183525b5050508390509392505050565b611460611593565b846020015184836114719190612175565b11156114995761149885600286856114899190612175565b6114939190612067565b611502565b5b60006001836101006114ab9190612686565b6114b5919061251f565b905085518386820101858319825116178152815185880111156114d85784870182525b505085915050949350505050565b6000818311156114f8578290506114fc565b8190505b92915050565b600082600001519050611515838361104f565b50611520838261123e565b50505050565b6040518060a0016040528060008019168152602001600073ffffffffffffffffffffffffffffffffffffffff16815260200160007bffffffffffffffffffffffffffffffffffffffffffffffffffffffff191681526020016000815260200161158d611593565b81525090565b604051806040016040528060608152602001600081525090565b6000819050919050565b6115c0816115ad565b82525050565b60006020820190506115db60008301846115b7565b92915050565b600073ffffffffffffffffffffffffffffffffffffffff82169050919050565b600061160c826115e1565b9050919050565b61161c81611601565b82525050565b60006020820190506116376000830184611613565b92915050565b600060408201905061165260008301856115b7565b61165f60208301846115b7565b9392505050565b6000604051905090565b600080fd5b600080fd5b6000819050919050565b61168d8161167a565b811461169857600080fd5b50565b6000813590506116aa81611684565b92915050565b6116b9816115ad565b81146116c457600080fd5b50565b6000813590506116d6816116b0565b92915050565b600080fd5b600080fd5b6000601f19601f8301169050919050565b7f4e487b7100000000000000000000000000000000000000000000000000000000600052604160045260246000fd5b61172f826116e6565b810181811067ffffffffffffffff8211171561174e5761174d6116f7565b5b80604052505050565b6000611761611666565b905061176d8282611726565b919050565b600067ffffffffffffffff82111561178d5761178c6116f7565b5b611796826116e6565b9050602081019050919050565b82818337600083830152505050565b60006117c56117c084611772565b611757565b9050828152602081018484840111156117e1576117e06116e1565b5b6117ec8482856117a3565b509392505050565b600082601f830112611809576118086116dc565b5b81356118198482602086016117b2565b91505092915050565b60008060008060008060c0878903121561183f5761183e611670565b5b600061184d89828a0161169b565b965050602061185e89828a016116c7565b955050604061186f89828a016116c7565b945050606087013567ffffffffffffffff8111156118905761188f611675565b5b61189c89828a016117f4565b93505060806118ad89828a016116c7565b92505060a06118be89828a016116c7565b9150509295509295509295565b600081519050919050565b600082825260208201905092915050565b60005b838110156119055780820151818401526020810190506118ea565b60008484015250505050565b600061191c826118cb565b61192681856118d6565b93506119368185602086016118e7565b61193f816116e6565b840191505092915050565b600060208201905081810360008301526119648184611911565b905092915050565b60006020828403121561198257611981611670565b5b6000611990848285016116c7565b91505092915050565b6119a281611601565b81146119ad57600080fd5b50565b6000813590506119bf81611999565b92915050565b6000806000606084860312156119de576119dd611670565b5b60006119ec868287016119b0565b935050602084013567ffffffffffffffff811115611a0d57611a0c611675565b5b611a19868287016117f4565b9250506040611a2a868287016116c7565b9150509250925092565b60007fffffffff0000000000000000000000000000000000000000000000000000000082169050919050565b611a6981611a34565b8114611a7457600080fd5b50565b600081359050611a8681611a60565b92915050565b60008060008060808587031215611aa657611aa5611670565b5b6000611ab48782880161169b565b9450506020611ac5878288016116c7565b9350506040611ad687828801611a77565b9250506060611ae7878288016116c7565b91505092959194509250565b600060208284031215611b0957611b08611670565b5b6000611b17848285016119b0565b91505092915050565b600081519050611b2f816116b0565b92915050565b600060208284031215611b4b57611b4a611670565b5b6000611b5984828501611b20565b91505092915050565b7f536f75726365206d75737420626520746865206f7261636c65206f662074686560008201527f2072657175657374000000000000000000000000000000000000000000000000602082015250565b6000611bbe6028836118d6565b9150611bc982611b62565b604082019050919050565b60006020820190508181036000830152611bed81611bb1565b9050919050565b7f4e487b7100000000000000000000000000000000000000000000000000000000600052602260045260246000fd5b60006002820490506001821680611c3b57607f821691505b602082108103611c4e57611c4d611bf4565b5b50919050565b60008190508160005260206000209050919050565b60006020601f8301049050919050565b600082821b905092915050565b600060088302611cb67fffffffffffffffffffffffffffffffffffffffffffffffffffffffffffffffff82611c79565b611cc08683611c79565b95508019841693508086168417925050509392505050565b6000819050919050565b6000611cfd611cf8611cf3846115ad565b611cd8565b6115ad565b9050919050565b6000819050919050565b611d1783611ce2565b611d2b611d2382611d04565b848454611c86565b825550505050565b600090565b611d40611d33565b611d4b818484611d0e565b505050565b5b81811015611d6f57611d64600082611d38565b600181019050611d51565b5050565b601f821115611db457611d8581611c54565b611d8e84611c69565b81016020851015611d9d578190505b611db1611da985611c69565b830182611d50565b50505b505050565b600082821c905092915050565b6000611dd760001984600802611db9565b1980831691505092915050565b6000611df08383611dc6565b9150826002028217905092915050565b611e09826118cb565b67ffffffffffffffff811115611e2257611e216116f7565b5b611e2c8254611c23565b611e37828285611d73565b600060209050601f831160018114611e6a5760008415611e58578287015190505b611e628582611de4565b865550611eca565b601f198416611e7886611c54565b60005b82811015611ea057848901518255600182019150602085019450602081019050611e7b565b86831015611ebd5784890151611eb9601f891682611dc6565b8355505b6001600288020188555050505b505050505050565b7f4d7573742062652070726f706f736564206f776e657200000000000000000000600082015250565b6000611f086016836118d6565b9150611f1382611ed2565b602082019050919050565b60006020820190508181036000830152611f3781611efb565b9050919050565b6000604082019050611f536000830185611613565b611f6060208301846115b7565b9392505050565b60008115159050919050565b611f7c81611f67565b8114611f8757600080fd5b50565b600081519050611f9981611f73565b92915050565b600060208284031215611fb557611fb4611670565b5b6000611fc384828501611f8a565b91505092915050565b7f556e61626c6520746f207472616e73666572204c696e6b000000000000000000600082015250565b60006120026017836118d6565b915061200d82611fcc565b602082019050919050565b6000602082019050818103600083015261203181611ff5565b9050919050565b7f4e487b7100000000000000000000000000000000000000000000000000000000600052601160045260246000fd5b6000612072826115ad565b915061207d836115ad565b925082820261208b816115ad565b915082820484148315176120a2576120a1612038565b5b5092915050565b7f4e487b7100000000000000000000000000000000000000000000000000000000600052601260045260246000fd5b60006120e3826115ad565b91506120ee836115ad565b9250826120fe576120fd6120a9565b5b828204905092915050565b7f4f6e6c792063616c6c61626c65206279206f776e657200000000000000000000600082015250565b600061213f6016836118d6565b915061214a82612109565b602082019050919050565b6000602082019050818103600083015261216e81612132565b9050919050565b6000612180826115ad565b915061218b836115ad565b92508282019050808211156121a3576121a2612038565b5b92915050565b6121b28161167a565b82525050565b6121c181611a34565b82525050565b600081519050919050565b600082825260208201905092915050565b60006121ee826121c7565b6121f881856121d2565b93506122088185602086016118e7565b612211816116e6565b840191505092915050565b600060e082019050612231600083018a611613565b61223e60208301896115b7565b61224b60408301886121a9565b61225860608301876121b8565b61226560808301866115b7565b61227260a08301856115b7565b81810360c083015261228481846121e3565b905098975050505050505050565b60006080820190506122a760008301876121a9565b6122b460208301866115b7565b6122c160408301856121b8565b6122ce60608301846115b7565b95945050505050565b7f43616e6e6f74207472616e7366657220746f2073656c66000000000000000000600082015250565b600061230d6017836118d6565b9150612318826122d7565b602082019050919050565b6000602082019050818103600083015261233c81612300565b9050919050565b600061235e612359612354846115e1565b611cd8565b6115e1565b9050919050565b600061237082612343565b9050919050565b600061238282612365565b9050919050565b60008160601b9050919050565b60006123a182612389565b9050919050565b60006123b382612396565b9050919050565b6123cb6123c682612377565b6123a8565b82525050565b6000819050919050565b6123ec6123e7826115ad565b6123d1565b82525050565b60006123fe82856123ba565b60148201915061240e82846123db565b6020820191508190509392505050565b60006060820190506124336000830186611613565b61244060208301856115b7565b818103604083015261245281846121e3565b9050949350505050565b7f756e61626c6520746f207472616e73666572416e6443616c6c20746f206f726160008201527f636c650000000000000000000000000000000000000000000000000000000000602082015250565b60006124b86023836118d6565b91506124c38261245c565b604082019050919050565b600060208201905081810360008301526124e7816124ab565b9050919050565b60006124f9826115ad565b9150612504836115ad565b925082612514576125136120a9565b5b828206905092915050565b600061252a826115ad565b9150612535836115ad565b925082820390508181111561254d5761254c612038565b5b92915050565b60008160011c9050919050565b6000808291508390505b60018511156125aa5780860481111561258657612585612038565b5b60018516156125955780820291505b80810290506125a385612553565b945061256a565b94509492505050565b6000826125c3576001905061267f565b816125d1576000905061267f565b81600181146125e757600281146125f157612620565b600191505061267f565b60ff84111561260357612602612038565b5b8360020a91508482111561261a57612619612038565b5b5061267f565b5060208310610133831016604e8410600b84101617156126555782820a9050838111156126505761264f612038565b5b61267f565b6126628484846001612560565b9250905081840481111561267957612678612038565b5b81810290505b9392505050565b6000612691826115ad565b915061269c836115ad565b92506126c97fffffffffffffffffffffffffffffffffffffffffffffffffffffffffffffffff84846125b3565b90509291505056fea2646970667358221220015afa6cd0efc46110672e7961985966b8aba51c314e9f33997941b843f40f6a64736f6c63430008120033",
  "linkReferences": {},
  "deployedLinkReferences": {}
}